:020000040800F2
:10000000C8070020E50100085F1C0008491B000824
:100010005D1C0008590D0008211F000800000000A9
:10002000000000000000000000000000631C000849
:100030005B0D000800000000611C0008651C000842
:10004000FF010008FF010008FF010008FF01000890
:10005000FF010008FF010008FF010008FF01000880
:10006000FF010008FF010008FF010008FF01000870
:10007000FF010008FF010008FF010008FF01000860
:10008000FF010008FF010008FF010008FF01000850
:10009000FF010008FF010008FF010008FF01000840
:1000A000FF010008FF010008FF010008FF01000830
:1000B000FF010008FF010008FF010008FF01000820
:1000C000FF010008FF010008FF010008FF01000810
:1000D000FF010008151F0008FF010008FF010008CC
:1000E000FF010008FF010008FF010008FF010008F0
:1000F000FF010008FF010008FF010008FF010008E0
:10010000FF010008FF010008FF010008FF010008CF
:10011000FF010008FF010008FF010008FF010008BF
:10012000FF010008FF010008FF010008FF010008AF
:1001300000F002F800F047F80AA090E8000C8244B2
:100140008344AAF10107DA4501D100F03CF8AFF28F
:10015000090EBAE80F0013F0010F18BFFB1A43F0A5
:1001600001031847E41E0000041F0000103A24BFDA
:1001700078C878C1FAD8520724BF30C830C144BF0C
:1001800004680C607047000000230024002500264E
:10019000103A28BF78C1FBD8520728BF30C148BFEA
:1001A0000B607047642900F07D80002070471FB508
:1001B0009DE8030000F0A2FB00F094F91FBD10B50C
:1001C00000F0F9F910BD00F05CFA1146FFF7EFFFFF
:1001D00001F0C4FE00F060FB03B4FFF7F0FF03BCC6
:1001E00000F01EFD0948804709480047FEE7FEE78A
:1001F000FEE7FEE7FEE7FEE7FEE7FEE7FEE7FEE7D7
:1002000004480549054A064B70470000C71C000812
:1002100031010008C8010020C8070020C8030020E1
:10022000C80300200FB4044910B503AA029800F0D7
:100230002BF910BC5DF814FBBC0000202DE9F04147
:100240000E460446002020622046E168884730B30D
:10025000252805D0D4E901219047206A401CF2E707
:10026000E168204600278847050018D0A5F1410025
:10027000192802D820354FF4006732462946204617
:100280002760FFF78FFF40B1012804D0F61D26F04C
:1002900007060836D8E7361DD6E72846DAE7206A8B
:1002A000BDE8F0812DE9F04106460024106875296B
:1002B000314616A510D0AFF30080002802DA404284
:1002C00013A507E031688A0701D512A502E04907A6
:1002D00004D511A5012401E0AFF3008000210A221A
:1002E00006F1240709E0B0FBF2FCB0FBF2F302FBDD
:1002F0001C00303078541846491C0028F3D123469E
:100300002A463046BDE8F04100F064B80000000025
:100310002D0000002B0000002000000010B5203A46
:10032000C0F00B80B1E81850203AA0E81850B1E8AE
:100330001850A0E81850BFF4F5AF5FEA027C24BF64
:10034000B1E81850A0E8185044BF18C918C0BDE85B
:1003500010405FEA827C24BF51F8043B40F8043B24
:1003600008BF7047D20728BF31F8023B48BF11F8D9
:10037000012B28BF20F8023B48BF00F8012B704733
:100380004FF0000200B5134694469646203922BF2E
:10039000A0E80C50A0E80C50B1F12001BFF4F7AF79
:1003A000090728BFA0E80C5048BF0CC05DF804EB5B
:1003B000890028BF40F8042B08BF704748BF20F8C9
:1003C000022B11F0804F18BF00F8012B70477047C7
:1003D000704770472DE9F0470D469946924604460E
:1003E00000F124080168880604D5E06921F01001B5
:1003F000216000E00120A84201DD471B00E000274A
:10040000A1697A1902EB0900081AA0612078C006D8
:1004100002D42046AFF30080002608E0D4E9012191
:100420001AF806009047206A401C761C20624E4550
:10043000F4DB2078C0060AD52046AFF3008006E042
:10044000D4E9012130209047206A401C2062381EE8
:10045000A7F10107F4DC07E0D4E9012118F8050051
:100460009047206A401C2062281EA5F10105F3DC9C
:100470002046AFF300802078000602D50220BDE8B8
:10048000F0870120FBE70000074B70B50D467B4469
:1004900000F011F80446284600F020F810B14FF0A3
:1004A000FF3070BD204670BDB31A000001694A1CC0
:1004B00002610878704700B58FB0CDE901310021A5
:1004C000059105497944CDE9031011466846FFF7C7
:1004D000B5FE0FB000BD0000E5FFFFFF007B00F0A0
:1004E0008000704710B542485421FFF749FF41484A
:1004F0005421FFF745FF40485421FFF741FF3F4992
:100500003B483C4A3F4B08603D490A603A49196004
:10051000531C0365481C1065012008653B48344A9C
:1005200039A1784400F01CF920B9384878440A38D9
:1005300000F0BBF937482F4A35A1784400F010F994
:1005400020B9344878440A3800F0AFF932482A4AD2
:100550002FA1784400F004F920B92F4878440A38D4
:1005600000F0A3F940232248DC000021224600F0DD
:10057000D4F820B125487844543800F096F91D4845
:1005800022464023002100F0C8F820B121487844D9
:10059000543800F08AF9184822461023002100F050
:1005A000BCF8002806D01C487844BDE810405638F6
:1005B00000F07BB910BD104870B5006D20F001044B
:1005C0000B4800F043F90B4800F040F90A4800F0EE
:1005D0003DF909E0206D20F00105204600F036F9D4
:1005E000204600F073F82C46002CF3D170BD0000BB
:1005F00068000020BC000020100100201400002032
:10060000180000201C00002072000000141B0000D5
:1006100077000000001B0000EC1A00000EB5CDE9C9
:10062000000100F0DDFA029069460120ABBE0EBD6C
:1006300008B5694600900220ABBE08BD1FB58DE825
:10064000070069460520ABBE04B010BD1FB58DE89C
:100650000F0069460620ABBEF6E708B56946009074
:100660000920ABBE08BD1CB5CDE9000169460A20D2
:10067000ABBE1CBD704708B5694600900C20ABBEF0
:1006800008BD754600F018F9AE46050069465346A8
:1006900020F00700854618B020B5FFF7B1FDBDE892
:1006A00020404FF000064FF000074FF000084FF0D9
:1006B000000B21F00701AC46ACE8C009ACE8C0096A
:1006C000ACE8C009ACE8C0098D46704770B5044677
:1006D000051F00F0F7F80068002C14BF446870BDD7
:1006E000002C18BFAC423CBF20466468F8D30168B8
:1006F0000A18AA4218BF456003D12A68054611446A
:10070000016028684119A1421CBF6C6070BD61681E
:10071000696021680844286070BD70B5C468A50789
:1007200013D0650211D4B2F5807F09D0B2F5007FF5
:1007300006D0B2F5806F08D1012300F1240106E054
:100740005D1E6FF07F46B54201D3012070BD01618F
:10075000C361416024F470611143C160002070BD29
:100760002DE9F0410C4607461646104600F06EF89B
:100770002078611C61280AD0722802D077283CD1E9
:1007800002E00125002405E00225042402E00824FB
:1007900048F2020511F8010B2B2806D0622809D077
:1007A00011F8010C74280AD00BE045F0030544F061
:1007B0000204EFE745F0040544F00104EAE744F0E1
:1007C000100438462146FFF729FF411C15D00021AF
:1007D000316171604FF40071F560F1617061200763
:1007E00004D530460222002100F0E6F8306D40F0DA
:1007F000010030653046BDE8F0810020FBE72DE9BF
:10080000F0410D460646104C206DC10704D041084A
:1008100004D020F00104F7E722460EE0542000F057
:100820009CF807000ED0206D47F0010108435421C9
:1008300020653846FFF7A4FD3A4629463046BDE814
:10084000F0418DE70020D6E7680000202DE9F04751
:1008500004464FF000094FF0FF37C568D4E904861D
:10086000A80707D0204600F057F93046FFF7E0FE12
:10087000002802DA3846BDE8F087280502D5404650
:10088000FFF724FF4C212046FFF77AFD206D20F072
:10089000010020654846EEE710B50446AFF300803E
:1008A0002046BDE81040FFF797BC10B500F07EF978
:1008B000BDE8104000F074B90048704764010020A2
:1008C00070470000004870476C0100207047704777
:1008D0007047704738B504460A4600206946AFF3B2
:1008E0000080002808BF38BD02460099204600F06D
:1008F000A4F9012038BD012000F0F3B9F8B5AFF339
:100900000080054600200C46102000BF0646A819AE
:10091000A0420DD9324669460020AFF3008007009F
:1009200008BF00F0DEF90098A04218BF0546C419C0
:10093000FFF7C8FF05600746F01D20F007004619C5
:10094000284600F073F9B44208BFF8BDA21B314637
:100950003868BDE8F84000F070B970B50646FFF79A
:10096000B1FF056806F10B0020F00704B4429CBFFC
:10097000002070BD2B466A68BAB11068A04210D33F
:1009800004F1080188423CBF5068586007D35168A1
:10099000101941601168091B016058601460101D36
:1009A00070BD13465268002AE7D121462846FFF75A
:1009B00091FF0028DED170BD2DE9F04104461646B6
:1009C0000D464769007B80072ED03846FFF745FE6D
:1009D00050BB3EB3012E02D0022E25D104E02046AA
:1009E00000F045F905441DE03846FFF744FEE16894
:1009F000002841F01001E16005DA204600F058F8C7
:100A00000120BDE8F081C9030BD56268E16A91421B
:100A100000D81146A26911442269891A814200DD79
:100A200008460544002D01DA0220EAE7E16A606821
:100A3000E268814206D29103E06203D522F40031DC
:100A400041F01002A6690027AE4213DCE16A814240
:100A500001D90B4600E0034603EB060C2369ACEB1F
:100A6000030CAC4506DD814201D98C4600E084468A
:100A70009C4505D1A760276042F02000A5620DE0EB
:100A8000AD1BE669AE1B8142A66000D90846C01ABC
:100A9000281A20605819606022F02000034908409D
:100AA000E060002084F84870ABE70000BFCFD7FFBC
:100AB000C16821F4001141F08001C1600021816012
:100AC000016070472DE9F047814614460E464FF00D
:100AD000FF383248D5685769054209D03846A169C0
:100AE000FFF7C1FD002811DB2C48C0430540E5603D
:100AF0002B46324649463846FFF7A0FDA16920F053
:100B00000042B21A11440028A16103D02046FFF729
:100B1000CFFF4046BDE8F08770B504460569C06A5E
:100B20006168884200D80846E16821F42011E1603C
:100B3000C90312D5A84208D02246411B2846FFF718
:100B4000C1FF10B14FF0FF3070BD0020E562C4E975
:100B50000150E06820F48030E060002070BD10B5E6
:100B60000446C06820F02000E060A16AA0698842C5
:100B70000DD02046FFF7D0FFE06820F4405040F051
:100B80001000E060A06AA0612069E062606044F249
:100B90004001E0688843E06010BD000010000200E2
:100BA000002801D000F03CB87047000010B50146A5
:100BB00002A000F07DF8012010BD0000534947520B
:100BC000545245443A2052656469726563743A2010
:100BD00063616E2774206F70656E3A20000000001C
:100BE00010B5431C02E010F8011B71B18107FAD166
:100BF0004FF0013202C88C1A8C4314EAC211F9D0AA
:100C0000C01A0A0603D0C01E10BDC01A10BD0A04C7
:100C100001D0801E10BD0902FCD0401E10BD000096
:100C200001491820ABBEFEE726000200002101604A
:100C3000C0E90110704710207047034640688C4699
:100C4000002818BF88423CBF03464068F8D31868A4
:100C50001844884207D00CF1030020F00700001D63
:100C6000411A521A0146081D0A60FFF72FBD10B540
:100C70000146C268900703D0900607D5886A0AE04B
:100C800000F03EF801210160881E10BD8B694868A4
:100C900018440B69C01A91F848301BB191F84910FB
:100CA000401A10BD1103FCD50028FADD401E10BD0E
:100CB00070B505460C460A2000E06D1C00F018F8DF
:100CC00035B128780028F8D102E0641C00F010F853
:100CD00014B120780028F8D1BDE870400A2000F057
:100CE00007B810B500F010F8BDE81040FFF758BF86
:100CF00008B569468DF800000320ABBE08BD0000B2
:100D0000004870476401002010B5012805D000217B
:100D100003A0FFF7CDFF012010BD09A1F8E70000F7
:100D200053494752544D454D3A204F7574206F66D4
:100D30002068656170206D656D6F7279000000003C
:100D40003A2048656170206D656D6F727920636F20
:100D50007272757074656400FEE7704710B590F8A4
:100D600021100022022905D00421816380F820206F
:100D7000012010BD01680B6823F00E030B600168B1
:100D80000B6823F001030B6090F84030C46B012125
:100D900001FA03F3636080F8211080F820201046E8
:100DA00010BD00002DE9F05F90F821100024022909
:100DB00003D004218163012485E001680A6822F0E0
:100DC0000E020A6001680A6822F001020A603F4EC2
:100DD0003E4FB215DFF8F4C0DFF8F090DFF8ECA07A
:100DE000DFF8E8B0DFF8E4E00168783F13011502AE
:100DF000ACF1640CA9F15009AAF13C0AABF1280B43
:100E0000AEF1140E4FF48018B14227D9B9420ED07A
:100E1000614512D049451DD0514518D0594518D0CB
:100E2000714501D1424615E0294EB14201D101225E
:100E300010E0274E1436B14201D110220AE0244EB0
:100E40002836B14206D0224A3C32914201D11A469C
:100E500000E02A461E49091F0A602BE0B94213D060
:100E6000614517D0494522D051451DD059451DD067
:100E7000714501D142461AE0B14202D14FF0807271
:100E800015E0134EB14201D1012210E0104E14368C
:100E9000B14201D110220AE00D4E2836B14206D0EF
:100EA0000B4A3C32914201D11A4600E02A460749DA
:100EB00080394A60012180F82110002180F820103B
:100EC000416B01B188472046BDE8F09F8000024099
:100ED0000804024070B5044600F01CF90546601C89
:100EE00002D004480078044400F014F9401BA042EA
:100EF000FAD370BD040000202DE9F84FDFF8C89147
:100F00000024A9F1040B23460F2709F1040AABF1D1
:100F1000040ED1E00125A54006EA0502AA4276D1D9
:100F2000DFF8A8C14E68A6EB0C0866452BD00DDC97
:100F3000032E34D005DC36B3012E19D0022E2FD16A
:100F40001BE0112E16D0122E2AD119E0B8F5881FF9
:100F500019D006DCB8F5803F15D0B8F5801F1FD139
:100F600011E0B8F5001F0ED0B8F5041F18D10AE043
:100F7000CB6815E0CB681B1D12E0CB6808330FE08F
:100F8000CB680C330CE08B682BB1012B4FF00803BE
:100F900003D0456104E0042302E0056100E0002382
:100FA000FF2A01D8064601E000F104064FEA840555
:100FB00001D9A5F12005D6F8008007FA05FC28EA3A
:100FC0000C0803FA05F548EA0508C6F800804D68E4
:100FD000ED0070D53E4DAE6946F00106AE61AD69DB
:100FE00024F0030605F0010500953A4D06EB050CCB
:100FF000DCF80850A607360F07FA06F825EA0805B8
:10100000DFF8D480404503D14FF0000825E052E0DE
:10101000DFF8C880404502D14FF001081DE0DFF83D
:10102000C080404502D14FF0020816E0DFF8B480DE
:10103000404502D14FF003080FE0DFF8AC80404597
:1010400002D14FF0040808E0DFF8A080404502D14B
:101050004FF0050801E04FF0060808FA06F848EAE4
:101060000508CCF808804D68D9F80060ED024D46BF
:1010700001D5164300E096432E604D68DAF8006013
:10108000AD02554601D5164300E096432E604D68EB
:10109000DBF80060AD035D4601D5164300E09643E2
:1010A0002E604D68DEF80060ED03754601D51643ED
:1010B00000E096432E60641C0A681646E2407FF406
:1010C00029AFBDE8F88F00000804014000001110AE
:1010D000001002400000014000080140000C0140E7
:1010E000001001400014014000180140001C0140A4
:1010F0008068084000D001207047C26821EA0203DE
:101100000A4043EA0241016170470AB10161704738
:101110000904FBE7014880687047000004000020D4
:101120000248816802781144816070470400002001
:10113000074810B5016841F010010160032000F07C
:1011400075F80F2000F006F800F024F8002010BD1C
:101150000020024070B50D4D04464FF47A71287896
:10116000B1FBF0F00A490968B1FBF0F000F0DCFADD
:1011700048B9102C07D200222146501E00F036F844
:1011800000206C6070BD012070BD000004000020D4
:10119000100000200C4808B5816941F0010181610F
:1011A000816901F001010091C16941F08051C16183
:1011B000C06900F0805000900448416821F0E0616F
:1011C00041F00071416008BD001002400000014084
:1011D000002809DB00F01F02012191404009800036
:1011E00000F1E020C0F8001170470000F0B40E4B91
:1011F0001B680C46C3F30223C3F10705042D00D975
:101200000425191D072901D2002300E0DB1E012659
:1012100006FA05F1491E214099409E40761E16406F
:101220003143F0BC00F07DBE0CED00E0064900F05B
:10123000070208684FF6FF03184040EA0220034AFD
:1012400010430860704700000CED00E00000FA0554
:101250002DE9F0470F46050061D0434E306800F09D
:101260000700B84209D2306820F0070038433060E8
:10127000306800F00700B84251D128683B4C810724
:1012800012D5400703D5606840F4E06060602878BC
:10129000000703D5606840F4605060606068A9682A
:1012A00020F0F000084360602878C00728D0686804
:1012B000012810D02168022810D0890700292EDAD1
:1012C000616821F0030101436160FFF723FF80465D
:1012D00041F288390DE021688903EFE78901EDE7E4
:1012E000FFF718FFA0EB0801494502D90320BDE82C
:1012F000F0876068696800F00C00B0EB810FEFD1F7
:10130000306800F00700B8420BD9306820F00700C1
:1013100038433060306800F00700B84201D0012047
:10132000E5E72878400705D56068E96820F4E060C3
:10133000084360602878000706D56068296920F4B2
:10134000605040EAC100606000F038F86168084A07
:10135000C1F30311515CC8400649086006480068A3
:10136000FFF7F8FE0020C2E7002002400010024014
:101370002220000810000020080000200448054931
:1013800000684968044AC1F30221515CC8407047B3
:1013900010000020001002403220000804480549D7
:1013A00000684968044AC1F3C221515CC8407047D3
:1013B0001000002000100240322000080E4A516840
:1013C0000E4801F00C03042B11D0082B0FD10C4850
:1013D000C1F38343C903C05C0AD55168084AC1F30D
:1013E0004041921E515C054A5043B0FBF1F07047FA
:1013F00004494843704700000010024000127A0080
:101400001220000800093D002DE9F84F040070D0BB
:101410002078C04DC00749D06868C0F3810001281A
:1014200007D06868C0F38100022809D16868C0034A
:1014300006D52868800339D560680028E7D035E0F4
:101440006068B0F5803F0BD010B1B0F5A02F11D07F
:10145000286820F480302860286820F4802002E08A
:10146000286840F480302860606890B1FFF752FE31
:1014700006460AE0286840F480202860F0E700BFB4
:10148000FFF748FE801B642873D828688003F7D5CF
:101490000CE0FFF73FFE064605E000BFFFF73AFE0F
:1014A000801B6428F0D828688003F7D420789A4EEF
:1014B00080074FF001094FF0000839D5686810F037
:1014C0000C0F07D06868C0F38100022809D1686852
:1014D000C00306D42868800714D52069012808D1E4
:1014E00010E02069B0B1C6F80090FFF713FE074680
:1014F00005E00AE1FFF70EFEC01B0228C4D82868E9
:101500008007F7D52868616920F0F80040EAC1003B
:1015100028600DE0C6F80080FFF7FCFD074604E0F8
:10152000FFF7F8FDC01B022823D828688007F7D4EE
:10153000207800072CD57948A169D9B1C0F800906E
:10154000FFF7E8FD074604E0FFF7E4FDC01B0228B3
:101550000FD8686A8007F7D571484FF4FA510068D0
:10156000B0FBF1F0009000BF0098411E0091FAD24C
:101570000EE080E0C0F80080FFF7CCFD074604E0F5
:10158000FFF7C8FDC01B022875D8686A8007F7D42A
:101590002078400760D5E8690027C00008D4E869D2
:1015A00040F08050E861E869012700F08050009029
:1015B0005C480168C90513D40168834641F4807111
:1015C0000160FFF7A7FD824606E000BFFFF7A2FD1E
:1015D000A0EB0A0064284ED8DBF80000C005F5D562
:1015E000E06801280AD008B1052813D0286A20F045
:1015F00001002862286A20F0040002E0286A40F016
:1016000001002862E06841F2883B98B1FFF782FD53
:1016100082460BE0286A40F004002862EEE700BF33
:10162000FFF778FDA0EB0A0159455AD8286A8007D0
:10163000F6D50CE0FFF76EFD824605E0FFF76AFD88
:10164000A0EB0A0159454CD8286A8007F6D41FB18F
:10165000E86920F08050E861E06988B36968C1F307
:101660008101022944D00228C6F8608004D0FFF727
:1016700051FD044638E034E0FFF74CFD074604E036
:10168000FFF748FDC01B02282BD828688001F7D43B
:10169000206AB0F5803F05D16868A16820F4003069
:1016A00008436860D4E908010843696821F47411AB
:1016B00008436860C6F86090FFF72CFD044606E01A
:1016C00025E000BFFFF726FD001B022809D8286887
:1016D0008001F7D51BE000BFFFF71CFD001B0228AF
:1016E00002D90320BDE8F88F28688001F4D40EE009
:1016F0000128F7D06868226A00F48031914204D151
:10170000616A00F47010884201D00120EAE70020ED
:10171000E8E700000010024000004242800442421C
:10172000100000200070004010B5401EB0F1807F16
:1017300001D3012010BD4FF0E02460610F2160173C
:1017400000F0EFFB0020A06107202061002010BD09
:1017500070477047F8B5016804460868CA684B6965
:1017600010F00F0F4FF0000559D003F0010602F4FE
:101770009077374365D0C10705D0D10503D5616C9B
:1017800041F001016164410705D5D90703D0616CBF
:1017900041F002016164810705D5D90703D0616C6E
:1017A00041F004016164010707D502F020013143D3
:1017B00003D0616C41F008016164616C00293AD08A
:1017C000800604D5900602D5204600F0ACFA2068C9
:1017D0004069616CC0F38010090700D460B32046F3
:1017E00000F07AFA20684069400621D5206814305C
:1017F00050E8001F21F0400140E80012002AF5D116
:10180000E06BA8B16D494163E06BFFF7CBFA0028AC
:1018100011D0E06B416B01B0BDE8F0400847830692
:101820000FD593060DD52046BDE8F84000F07BBAF1
:101830002046FFF78EFFF8BD2046FFF78AFF65645C
:10184000F8BD266B2023012E7CD1C6067AD5D6069C
:1018500078D508684868009048694FF0020640064D
:1018600040D5E16B086840680004000CE8D0A28D08
:101870008242E5D9E085886920282DD020680C3087
:1018800050E8001F21F4807140E80012002AF5D1D1
:101890002068143050E8001F21F0010140E80012D8
:1018A000002AF5D12068143050E8001F21F04001D3
:1018B00040E80012002AF5D184F842302563206800
:1018C0000C3050E8001F21F0100140E80012002AFF
:1018D000F5D1E06BFFF742FA6663A08DE18D401A07
:1018E00081B22AE0A08DE18D401A81B2E08D0028FE
:1018F000A6D00029A4D022680C3252E8000F20F4B0
:10190000907042E80007002FF5D12068143050E8AD
:10191000002F22F0010240E80027002FF5D184F8C3
:101920004230256320680C3050E8002F22F010026E
:1019300040E80023002BF5D166632046FFF708FF3F
:10194000F8BDFFE705062BD5150629D594F841000B
:101950002128F5D1A068B0F5805F01D12069B0B130
:10196000206A411C2162216800784860E08C401E9A
:101970000004000CE084E3D12068C16821F08001FC
:10198000C1602068C16841F04001C160D8E7206AA9
:101990000088C0F308004860206A801C2062E5E7E8
:1019A0004006CDD55006CBD5CA68204622F040026D
:1019B000CA6084F8413000F0C6F8C1E7C91C0008CD
:1019C00070B5040004D094F84100002510B106E081
:1019D000012070BD84F84050204600F023F82420F8
:1019E00084F841002068C16821F40051C16020469C
:1019F00000F0FAF92068016921F490410161206842
:101A0000416921F02A0141612068C16841F4005117
:101A1000C1606564202084F8410084F84200656359
:101A2000002070BD30B585B000240094019402946C
:101A300003940068184988422CD11848816941F400
:101A400080418161816901F480410491816941F0A3
:101A5000040181618069124D00F0040004904FF48C
:101A600000700090022001900320039069462846F0
:101A7000FFF742FA2815CDE900046946284602948A
:101A8000FFF73AFA00220A212520FFF7AFFB2520B5
:101A9000FFF79EFB05B030BD00380140001002404A
:101AA0000008014070472DE9F843044690F84100D2
:101AB000984616460D46202802D00220BDE8F8833D
:101AC00085B17EB100206064212084F84100FFF7D9
:101AD00021FBA6848146E684A0682027B0F5805FBC
:101AE00002D003E00120E9E7206910B12E4600256D
:101AF0000EE000260CE08021204600F0D1F9A8B9C4
:101B0000C6B116F8010B21684860E08C401EE084E5
:101B1000E08C4B464FF00002CDF800800028EAD15F
:101B20004FF04001204600F0BBF940B184F841700D
:101B30000320C3E735F8020BC0F30800E3E784F89D
:101B400041700020BAE77047FEE700002DE9F04140
:101B50001A4C1B4D1B4F20786E1458B1012128469A
:101B6000FFF7C6FA01280BD031463846FFF7C0FA16
:101B7000012805D001212846FFF7BAFAA0B11AE0E2
:101B80000A20FFF7A7F90020207001212846FFF75F
:101B9000AFFA012806D031463846FFF7A9FA0128E6
:101BA00009D10220BDE8F08131463846FFF7A0FA9E
:101BB00008B9012020700020F4E700000000002098
:101BC000000801400010014070B586B000241F4895
:101BD0000094019402940394816941F010018161A1
:101BE000816901F010010491816941F00401816172
:101BF000816901F004010491816941F0080181616A
:101C00008069134E00F00800049001222321304621
:101C1000FFF77BFA7014CDE9000469460D48029481
:101C2000FFF76AF90125CDE9005469460A48029494
:101C3000FFF762F92320CDE900050320CDE902403A
:101C400069463046FFF758F906B070BD00100240F3
:101C5000000C01400010014000080140FEE7FEE7D3
:101C600070477047FFF75CBA30B58FB028216846DF
:101C7000FEF786FB14210AA8FEF782FB0121080467
:101C8000CDE900100024029402250491CDE907500B
:101C90004FF4E01009906846FFF7B6FB08B172B642
:101CA000FEE70F20CDE90A054FF48060CDE90C4036
:101CB00002210AA80E94FFF7CBFA002801D072B6D1
:101CC000FEE70FB030BD704710B5406A0021C185F6
:101CD000C184FFF73EFD10BD01680C3151E8002FB3
:101CE00022F4907241E80023002BF5D101681431F1
:101CF00051E8002F22F0010241E80023002BF5D12A
:101D0000016B012909D101680C3151E8002F22F043
:101D1000100241E80023002BF5D1202180F8421069
:101D200000210163704708B590F84210222901D0C4
:101D3000022008BD82684FF480539A4201D10169A4
:101D400021B1816A9A421BD04AB10AE00268816AD5
:101D50005268C2F308020A80816A891C08E002699D
:101D600072B10268526802F07F020A70816A491CEF
:101D70008162C18D491E0904090CC18503D01BE095
:101D800002685268F1E70168CA6822F02002CA605E
:101D90000168CA6822F48072CA6001684A6922F048
:101DA00001024A61202180F8421000214163026B48
:101DB000012A03D0FFF776FE002008BD0163016809
:101DC0000C3151E8002F22F0100241E80023002BD3
:101DD000F5D101680A68D20602D50A6849680091FF
:101DE000818DFFF7B5FCE7E770B50446006801692F
:101DF000E26821F44051114301612169A068084360
:101E0000616908432168CA6841F20C639A4302433E
:101E1000CA6020684169A26921F44071114341619F
:101E20001E492068884202D1FFF7B8FA01E0FFF7A7
:101E3000A5FA00EBC00101EB00126068642180008C
:101E4000B2FBF0F3B3FBF1F36FF018067343B2FB90
:101E5000F0F5B2FBF0F605EB8305322303EB051535
:101E6000B5FBF1F5B6FBF1F605F0F00505EB06154F
:101E7000B2FBF0F6B2FBF0F0B0FBF1F06FF018023D
:101E8000504306EB800003EB0010B0FBF1F021683B
:101E900000F00F002844886070BD00000038014049
:101EA0002DE9F843984617460D460446089E24E05F
:101EB000701C22D0FFF72EF9A0EB0800B0421AD810
:101EC000CEB12068C168490717D5802D15D0402DA7
:101ED00013D00168C94309070FD401680025406881
:101EE00000902046FFF7F8FE0820606484F8405018
:101EF0000120BDE8F8830320FBE72068006835EA8D
:101F0000000004D00020B842D2D00020F1E7012028
:101F1000F9E700000148FFF71DBC00002000002089
:101F2000FEE70907090E002804DB00F1E02080F835
:101F30000014704700F00F0000F1E02080F8141D3D
:101F40007047000013B54FF6FF730122694602483F
:101F5000FFF7A9FD00981CBD2000002086B01422C8
:101F60001BA16846FEF7DAF90024FFF7E1F8FFF756
:101F70007BFEFFF729FE1C481A49002201604FF43E
:101F80001651C0E901120821C260C0E90421826132
:101F9000C261FFF715FD08B172B6FEE7134D4FF6AB
:101FA000FF7600BFFFF7D2FD0128FBD1641CE4B22D
:101FB00020212846FFF7A1F83346122269460A4835
:101FC000FFF771FD21460AA0FEF72CF9EAE70000B1
:101FD000796F752070726573736564206B657931F4
:101FE000202100000038014020000020000C0140AA
:101FF000796F752070726573736564206B657931D4
:102000002025642074696D657320210D0A0000008D
:10201000010202030405060708090A0B0C0D0E0F46
:102020001010000000000000000001020304060779
:10203000080900000000010203043A7474003A74B5
:1020400074003A747400000068200008000000204A
:10205000200000006C0100088820000820000020FB
:10206000A80700008801000801000000010000002E
:10207000100000000000000000127A0000000000C4
:08208000000000000000000058
:0400000508000131BD
:00000001FF
