:020000040800F2
:10000000C00A0020CD01000873110008DB100008B1
:1000100071110008D30200086914000800000000F4
:100020000000000000000000000000007711000840
:10003000D5020008000000007511000879110008C1
:10004000E7010008E7010008E7010008E7010008F0
:10005000E7010008E7010008E7010008E7010008E0
:10006000E7010008E7010008E7010008E7010008D0
:10007000E7010008E7010008E7010008E7010008C0
:10008000E7010008E7010008E7010008E7010008B0
:10009000E7010008E7010008E7010008E7010008A0
:1000A000E7010008E7010008E7010008E701000890
:1000B000E7010008E7010008E7010008E701000880
:1000C000E7010008E7010008E7010008E701000870
:1000D000E70100085D140008E7010008E7010008D7
:1000E000E7010008E7010008E7010008E701000850
:1000F000E7010008E7010008E7010008E701000840
:10010000E7010008E7010008E7010008E70100082F
:10011000E7010008E7010008E7010008E70100081F
:10012000E7010008E7010008E7010008E70100080F
:1001300000F002F800F03AF80AA090E8000C8244BF
:100140008344AAF10107DA4501D100F02FF8AFF29C
:10015000090EBAE80F0013F0010F18BFFB1A43F0A5
:1001600001031847DC130000FC130000103A24BF01
:1001700078C878C1FAD8520724BF30C830C144BF0C
:1001800004680C607047000000230024002500264E
:10019000103A28BF78C1FBD8520728BF30C148BFEA
:1001A0000B6070471FB51FBD10B510BD00F058F8AB
:1001B0001146FFF7F7FF01F069F900F076F803B494
:1001C000FFF7F2FF03BC00F07DF80000094880470C
:1001D00009480047FEE7FEE7FEE7FEE7FEE7FEE729
:1001E000FEE7FEE7FEE7FEE704480549054A064B41
:1001F00070470000DB11000831010008C004002036
:10020000C00A0020C0060020C00600204FF00002F7
:1002100000B5134694469646203922BFA0E80C50FC
:10022000A0E80C50B1F12001BFF4F7AF090728BFD7
:10023000A0E80C5048BF0CC05DF804EB890028BF53
:1002400040F8042B08BF704748BF20F8022B11F07C
:10025000804F18BF00F8012B7047704770477047F8
:10026000754600F02BF8AE4605006946534620F06F
:100270000700854618B020B5FFF7B6FFBDE820405F
:100280004FF000064FF000074FF000084FF0000B52
:1002900021F00701AC46ACE8C009ACE8C009ACE805
:1002A000C009ACE8C0098D46704710B50446AFF3ED
:1002B00000802046BDE81040FFF781BF004870472E
:1002C0006004002001491820ABBEFEE726000200B2
:1002D0007047FEE7704710B590F821100022022900
:1002E00005D00421816380F82020012010BD016821
:1002F0000B6823F00E030B6001680B6823F0010309
:100300000B6090F84030C46B012101FA03F3636085
:1003100080F8211080F82020104610BD2DE9F05FF4
:1003200090F821100024022903D0042181630124C4
:1003300085E001680A6822F00E020A6001680A6816
:1003400022F001020A603F4E3E4FB215DFF8F4C0C2
:10035000DFF8F090DFF8ECA0DFF8E8B0DFF8E4E0D9
:100360000168783F13011502ACF1640CA9F1500942
:10037000AAF13C0AABF1280BAEF1140E4FF4801831
:10038000B14227D9B9420ED0614512D049451DD09E
:10039000514518D0594518D0714501D1424615E054
:1003A000294EB14201D1012210E0274E1436B1424C
:1003B00001D110220AE0244E2836B14206D0224A4A
:1003C0003C32914201D11A4600E02A461E49091FDB
:1003D0000A602BE0B94213D0614517D0494522D0BD
:1003E00051451DD059451DD0714501D142461AE0F5
:1003F000B14202D14FF0807215E0134EB14201D1EB
:10040000012210E0104E1436B14201D110220AE050
:100410000D4E2836B14206D00B4A3C32914201D1F2
:100420001A4600E02A46074980394A60012180F8CF
:100430002110002180F82010416B01B1884720462F
:10044000BDE8F09F80000240080402402DE9F84F0B
:10045000DFF8C8910024A9F1040B23460F2709F106
:10046000040AABF1040ED1E00125A54006EA05021D
:10047000AA4276D1DFF8A8C14E68A6EB0C08664503
:100480002BD00DDC032E34D005DC36B3012E19D071
:10049000022E2FD11BE0112E16D0122E2AD119E0D8
:1004A000B8F5881F19D006DCB8F5803F15D0B8F52F
:1004B000801F1FD111E0B8F5001F0ED0B8F5041F42
:1004C00018D10AE0CB6815E0CB681B1D12E0CB68A1
:1004D00008330FE0CB680C330CE08B682BB1012B99
:1004E0004FF0080303D0456104E0042302E00561F6
:1004F00000E00023FF2A01D8064601E000F10406CF
:100500004FEA840501D9A5F12005D6F8008007FA45
:1005100005FC28EA0C0803FA05F548EA0508C6F8C0
:1005200000804D68ED0070D53E4DAE6946F0010685
:10053000AE61AD6924F0030605F0010500953A4D62
:1005400006EB050CDCF80850A607360F07FA06F88C
:1005500025EA0805DFF8D480404503D14FF00008B4
:1005600025E052E0DFF8C880404502D14FF0010895
:100570001DE0DFF8C080404502D14FF0020816E0D0
:10058000DFF8B480404502D14FF003080FE0DFF8F8
:10059000AC80404502D14FF0040808E0DFF8A080AD
:1005A000404502D14FF0050801E04FF0060808FA77
:1005B00006F848EA0508CCF808804D68D9F80060CC
:1005C000ED024D4601D5164300E096432E604D687E
:1005D000DAF80060AD02554601D5164300E09643B7
:1005E0002E604D68DBF80060AD035D4601D5164313
:1005F00000E096432E604D68DEF80060ED0375461E
:1006000001D5164300E096432E60641C0A68164626
:10061000E2407FF429AFBDE8F88F000008040140F4
:1006200000001110001002400000014000080140CD
:10063000000C01400010014000140140001801406E
:10064000001C01400AB1016170470904FBE700008A
:100650000148806870470000080000200248816857
:10066000027811448160704708000020074810B5E7
:10067000016841F010010160032000F075F80F20BF
:1006800000F006F800F024F8002010BD0020024021
:1006900070B50D4D04464FF47A712878B1FBF0F037
:1006A0000A490968B1FBF0F000F0DCFA48B9102CF7
:1006B00007D200222146501E00F036F800206C6060
:1006C00070BD012070BD0000080000201400002053
:1006D0000C4808B5816941F001018161816901F02F
:1006E00001010091C16941F08051C161C06900F010
:1006F000805000900448416821F0E06141F00071B1
:10070000416008BD0010024000000140002809DBE4
:1007100000F01F02012191404009800000F1E0201B
:10072000C0F8001170470000F0B40E4B1B680C4677
:10073000C3F30223C3F10705042D00D90425191DB5
:10074000072901D2002300E0DB1E012606FA05F18D
:10075000491E214099409E40761E16403143F0BC10
:1007600000F083BE0CED00E0064900F007020868C7
:100770004FF6FF03184040EA0220034A1043086086
:10078000704700000CED00E00000FA052DE9F0478D
:100790000F46050061D0434E306800F00700B842B4
:1007A00009D2306820F0070038433060306800F02C
:1007B0000700B84251D128683B4C810712D5400749
:1007C00003D5606840F4E06060602878000703D5D6
:1007D000606840F4605060606068A96820F0F000D4
:1007E000084360602878C00728D06868012810D0C6
:1007F0002168022810D0890700292EDA616821F0CB
:10080000030101436160FFF723FF804641F288390D
:100810000DE021688903EFE78901EDE7FFF718FF95
:10082000A0EB0801494502D90320BDE8F0876068C4
:10083000696800F00C00B0EB810FEFD1306800F078
:100840000700B8420BD9306820F007003843306009
:10085000306800F00700B84201D00120E5E72878B1
:10086000400705D56068E96820F4E06008436060EF
:100870002878000706D56068296920F4605040EAAE
:10088000C100606000F038F86168084AC1F30311E4
:10089000515CC8400649086006480068FFF7F8FE4A
:1008A0000020C2E700200240001002402615000888
:1008B000140000200C000020044805490068496825
:1008C000044AC1F30221515CC84070471400002063
:1008D00000100240361500080448054900684968C0
:1008E000044AC1F3C221515CC84070471400002083
:1008F00000100240361500080E4A51680E4801F0FB
:100900000C03042B11D0082B0FD10C48C1F38343E7
:10091000C903C05C0AD55168084AC1F34041921E20
:10092000515C054A5043B0FBF1F07047044948431D
:10093000704700000010024000127A0016150008EF
:1009400000093D002DE9F84F040070D02078C04D1B
:10095000C00749D06868C0F38100012807D06868E3
:10096000C0F38100022809D16868C00306D5286851
:10097000800339D560680028E7D035E06068B0F5BD
:10098000803F0BD010B1B0F5A02F11D0286820F413
:1009900080302860286820F4802002E0286840F435
:1009A00080302860606890B1FFF752FE06460AE08A
:1009B000286840F480202860F0E700BFFFF748FE79
:1009C000801B642873D828688003F7D50CE0FFF7F4
:1009D0003FFE064605E000BFFFF73AFE801B642895
:1009E000F0D828688003F7D420789A4E80074FF01B
:1009F00001094FF0000839D5686810F00C0F07D0D6
:100A00006868C0F38100022809D16868C00306D471
:100A10002868800714D52069012808D110E02069D2
:100A2000B0B1C6F80090FFF713FE074605E00AE1F3
:100A3000FFF70EFEC01B0228C4D828688007F7D530
:100A40002868616920F0F80040EAC10028600DE0E4
:100A5000C6F80080FFF7FCFD074604E0FFF7F8FD4D
:100A6000C01B022823D828688007F7D42078000705
:100A70002CD57948A169D9B1C0F80090FFF7E8FDFD
:100A8000074604E0FFF7E4FDC01B02280FD8686AA0
:100A90008007F7D571484FF4FA510068B0FBF1F0C8
:100AA000009000BF0098411E0091FAD20EE080E055
:100AB000C0F80080FFF7CCFD074604E0FFF7C8FD53
:100AC000C01B022875D8686A8007F7D420784007D1
:100AD00060D5E8690027C00008D4E86940F080507C
:100AE000E861E869012700F0805000905C480168E7
:100AF000C90513D40168834641F480710160FFF792
:100B0000A7FD824606E000BFFFF7A2FDA0EB0A00AA
:100B100064284ED8DBF80000C005F5D5E068012850
:100B20000AD008B1052813D0286A20F001002862F5
:100B3000286A20F0040002E0286A40F001002862E0
:100B4000E06841F2883B98B1FFF782FD82460BE0F6
:100B5000286A40F004002862EEE700BFFFF778FD46
:100B6000A0EB0A0159455AD8286A8007F6D50CE04F
:100B7000FFF76EFD824605E0FFF76AFDA0EB0A0174
:100B800059454CD8286A8007F6D41FB1E86920F08F
:100B90008050E861E06988B36968C1F38101022986
:100BA00044D00228C6F8608004D0FFF751FD044607
:100BB00038E034E0FFF74CFD074604E0FFF748FD5E
:100BC000C01B02282BD828688001F7D4206AB0F512
:100BD000803F05D16868A16820F400300843686050
:100BE000D4E908010843696821F474110843686076
:100BF000C6F86090FFF72CFD044606E025E000BF34
:100C0000FFF726FD001B022809D828688001F7D5C8
:100C10001BE000BFFFF71CFD001B022802D90320C8
:100C2000BDE8F88F28688001F4D40EE00128F7D0E1
:100C30006868226A00F48031914204D1616A00F44C
:100C40007010884201D00120EAE70020E8E70000A8
:100C50000010024000004242800442421400002082
:100C60000070004010B5401EB0F1807F01D301201C
:100C700010BD4FF0E02460610F21601700F0F5FB1C
:100C80000020A06107202061002010BD7047704740
:100C9000F8B5016804460868CA684B6910F00F0F80
:100CA0004FF0000559D003F0010602F49077374366
:100CB00065D0C10705D0D10503D5616C41F00101B4
:100CC0006164410705D5D90703D0616C41F0020189
:100CD0006164810705D5D90703D0616C41F0040137
:100CE0006164010707D502F02001314303D0616C34
:100CF00041F008016164616C00293AD0800604D596
:100D0000900602D5204600F098FA20684069616C90
:100D1000C0F38010090700D460B3204600F066FAE3
:100D200020684069400621D52068143050E8001F33
:100D300021F0400140E80012002AF5D1E06BA8B193
:100D40006D494163E06BFFF7E9FA002811D0E06BD1
:100D5000416B01B0BDE8F040084783060FD593060C
:100D60000DD52046BDE8F84000F067BA2046FFF7F1
:100D70008EFFF8BD2046FFF78AFF6564F8BD266B3D
:100D80002023012E7CD1C6067AD5D60678D50868F0
:100D90004868009048694FF00206400640D5E16B74
:100DA000086840680004000CE8D0A28D8242E5D9B2
:100DB000E085886920282DD020680C3050E8001F7D
:100DC00021F4807140E80012002AF5D12068143027
:100DD00050E8001F21F0010140E80012002AF5D17F
:100DE0002068143050E8001F21F0400140E8001254
:100DF000002AF5D184F84230256320680C3050E891
:100E0000001F21F0100140E80012002AF5D1E06B2C
:100E1000FFF761FA6663A08DE18D401A81B22AE086
:100E2000A08DE18D401A81B2E08D0028A6D0002966
:100E3000A4D022680C3252E8000F20F4907042E8EF
:100E40000007002FF5D12068143050E8002F22F061
:100E5000010240E80027002FF5D184F842302563D5
:100E600020680C3050E8002F22F0100240E80023E8
:100E7000002BF5D166632046FFF708FFF8BDFFE7BA
:100E800005062BD5150629D594F841002128F5D162
:100E9000A068B0F5805F01D12069B0B1206A411C23
:100EA0002162216800784860E08C401E0004000C3C
:100EB000E084E3D12068C16821F08001C16020682E
:100EC000C16841F04001C160D8E7206A0088C0F3E2
:100ED00008004860206A801C2062E5E74006CDD506
:100EE0005006CBD5CA68204622F04002CA6084F87A
:100EF000413000F0F1F8C1E7DD11000870B50400E1
:100F000004D094F84100002510B106E0012070BD26
:100F100084F84050204600F023F8242084F8410053
:100F20002068C16821F40051C160204600F0E6F954
:100F30002068016921F4904101612068416921F034
:100F40002A0141612068C16841F40051C1606564B3
:100F5000202084F8410084F842006563002070BDC1
:100F600030B585B000240094019402940394006885
:100F7000184988422CD11848816941F48041816127
:100F8000816901F480410491816941F0040181612A
:100F90008069124D00F0040004904FF4007000903E
:100FA000022001900320039069462846FFF74EFA7D
:100FB0002815CDE90004694628460294FFF746FA51
:100FC00000220A212520FFF7AFFB2520FFF79EFB1B
:100FD00005B030BD0038014000100240000801405B
:100FE00090F84230202B01D00220704721B11AB175
:100FF0000023036300F0DEB90120704700680A494E
:10100000884210D109480A4B0278401E41685A5460
:10101000491C41600A2A01D10121017001220349C2
:101020000448FFF7DDBF7047003801400100002091
:1010300018000020180400202DE9F843044690F819
:101040004100984616460D46202802D00220BDE8F1
:10105000F88385B17EB100206064212084F84100CE
:10106000FFF7F6FAA6848146E684A0682027B0F54B
:10107000805F02D003E00120E9E7206910B12E462D
:1010800000250EE000260CE08021204600F0ADF99E
:10109000A8B9C6B116F8010B21684860E08C401E63
:1010A000E084E08C4B464FF00002CDF80080002831
:1010B000EAD14FF04001204600F097F940B184F8A2
:1010C00041700320C3E735F8020BC0F30800E3E7E3
:1010D00084F841700020BAE77047FEE770B586B02B
:1010E00000241F480094019402940394816941F004
:1010F00010018161816901F010010491816941F061
:1011000004018161816901F004010491816941F068
:10111000080181618069134E00F0080004900122EB
:1011200023213046FFF78EFA7014CDE9000469469A
:101130000D480294FFF78AF90125CDE9005469466C
:101140000A480294FFF782F92320CDE90005032025
:10115000CDE9024069463046FFF778F906B070BD28
:1011600000100240000C0140001001400008014046
:10117000FEE7FEE770477047FFF770BA30B58FB0F3
:1011800028216846FFF742F814210AA8FFF73EF825
:1011900001210804CDE900100024029402250491E5
:1011A000CDE907504FF4E01009906846FFF7CAFBFD
:1011B00008B172B6FEE70F20CDE90A054FF4806052
:1011C000CDE90C4002210AA80E94FFF7DFFA0028AF
:1011D00001D072B6FEE70FB030BD704710B5406A5F
:1011E0000021C185C184FFF752FD10BD01680C319B
:1011F00051E8002F22F4907241E80023002BF5D132
:101200000168143151E8002F22F0010241E8002367
:10121000002BF5D1016B012909D101680C3151E88E
:10122000002F22F0100241E80023002BF5D12021ED
:1012300080F8421000210163704708B590F8421011
:10124000222901D0022008BD82684FF480539A42BF
:1012500001D1016921B1816A9A421BD04AB10AE0E9
:101260000268816A5268C2F308020A80816A891C96
:1012700008E0026972B10268526802F07F020A70E7
:10128000816A491C8162C18D491E0904090CC1850E
:1012900003D01BE002685268F1E70168CA6822F0D7
:1012A0002002CA600168CA6822F48072CA600168BC
:1012B0004A6922F001024A61202180F8421000218F
:1012C0004163026B012A03D0FFF798FE002008BD9E
:1012D000016301680C3151E8002F22F0100241E84F
:1012E0000023002BF5D101680A68D20602D50A68EE
:1012F00049680091818DFFF7C9FCE7E770B50446A6
:1013000000680169E26821F44051114301612169DB
:10131000A0680843616908432168CA6841F20C6308
:101320009A430243CA6020684169A26921F440716E
:10133000114341611E492068884202D1FFF7CCFA6F
:1013400001E0FFF7B9FA00EBC00101EB00126068A1
:1013500064218000B2FBF0F3B3FBF1F36FF01806E9
:101360007343B2FBF0F5B2FBF0F605EB83053223D5
:1013700003EB0515B5FBF1F5B6FBF1F605F0F0054D
:1013800005EB0615B2FBF0F6B2FBF0F0B0FBF1F0A6
:101390006FF01802504306EB800003EB0010B0FB27
:1013A000F1F0216800F00F002844886070BD000053
:1013B0000038014081628285C2850021416422217A
:1013C00080F84210016921B10168CA6842F4807254
:1013D000CA6001684A6942F001024A610068C16856
:1013E00041F02001C160002070472DE9F843984684
:1013F00017460D460446089E24E0701C22D0FFF7D5
:1014000027F9A0EB0800B0421AD8CEB12068C16815
:10141000490717D5802D15D0402D13D00168C94339
:1014200009070FD401680025406800902046FFF7A7
:10143000DDFE0820606484F840500120BDE8F88398
:101440000320FBE72068006835EA000004D0002094
:10145000B842D2D00020F1E70120F9E70148FFF7B8
:1014600017BC000018040020FEE70907090E002839
:1014700004DB00F1E02080F80014704700F00F005A
:1014800000F1E02080F8141D70470000FFF7EEF82F
:10149000FFF774FEFFF722FE194818490024016087
:1014A0004FF4E131C0E901140C21C460C0E90441EA
:1014B0008461C461FFF722FD08B172B6FEE7012224
:1014C00010490F48FFF78CFD0F4F104E104D4FF68F
:1014D000FF7830780028FCD02888434682B20A4939
:1014E0000748FFF7A9FD0020296801E03C54401C93
:1014F0008842FBD32C603470EBE7000000380140D9
:101500001804002001000020180000200000002026
:1015100004000020010202030405060708090A0B63
:101520000C0D0E0F10100000000000000000010262
:10153000030406070809000000000102030400007C
:101540006015000800000020180000006C01000871
:101550007815000818000020A80A0000880100087B
:10156000000000000000000001000000100000006A
:081570000000000000127A00E7
:0400000508000131BD
:00000001FF
