:020000040800F2
:100000008013002045010008932D0008972900085F
:10001000912D0008A50700089D330008000000008E
:10002000000000000000000000000000D12D0008CA
:100030004709000800000000952D0008D32D000896
:100040005F0100085F0100085F0100085F01000810
:100050005F0100085F0100085F0100085F01000800
:100060005F0100085F0100085F0100081109000836
:100070005F0100085F0100085F0100085F010008E0
:100080005F0100085F010008550600085F010008D5
:100090005F0100085F0100085F0100085F010008C0
:1000A0005F010008552E00085F0100085F0100088D
:1000B000612E00086D2E0008792E00085F010008EF
:1000C0005F0100085F0100085F0100085F01000890
:1000D0005F010008913300085F0100085F0100081C
:1000E0005F0100085F0100085F0100085F01000870
:1000F0005F0100085F0100085F0100085F01000860
:100100005F0100085F0100085F0100085F0100084F
:100110005F0100085F0100085F0100085F0100083F
:100120005F0100085F0100085F0100085F0100082F
:10013000DFF80CD000F07CFA004800476D3500086D
:10014000801300200648804706480047FEE7FEE788
:10015000FEE7FEE7FEE7FEE7FEE7FEE7FEE7FEE777
:10016000512E000831010008202A04DB203A21FA30
:1001700002F00021704721FA02F3D040C2F12002C0
:100180009140084319467047D2B201E000F8012BB4
:10019000491EFBD270470022F6E710B513460A4607
:1001A00004461946FFF7F0FF204610BD2DE9FE4F2B
:1001B000804681EA0300C00F0C46009021F0004108
:1001C00023F00045B8EB0200A94105D24046214684
:1001D00090461C460B46024623F00040104347D091
:1001E000270DC7F30A00C3F30A510290401A019089
:1001F00040286BDAC3F3130040F4801B009892464A
:1002000020B10023D2EB030A63EB0B0B0198594694
:10021000C0F14002504600F08DF906460D465046AA
:100220005946019A00F095F910EB0800614100244D
:1002300087EA115284EAE7731A4340D0009A62B306
:10024000019A012A4FEA075215DC001B61EB0201FB
:100250004FF0004202EA0752CDE90042001C41F58E
:10026000801132462B4600F095F903B0BDE8F08FBF
:1002700040462146F9E7001B61EB0201001C41F5F5
:10028000801300185B412018A2F5001747EB03010B
:1002900040EAD570B6196D4111E06D084FEA360697
:1002A00045EAC0754FEA0752001B61EB0201001CD2
:1002B00041F5801149084FEA30000019514132469A
:1002C0002B4603B0BDE8F04F00F055B9009801226D
:1002D00040000023D0EB020263EBE073009821465C
:1002E0004FEAE074B8EB000061EB0401E9E783F04A
:1002F00000435BE781F0004158E72DE9FE4F81EABA
:10030000030404F0004421F0004100944FF0000B7E
:1003100023F0004350EA01045ED052EA03045BD0AC
:10032000C3F30A54C1F30A552C44A4F2F3340194E4
:10033000A0FB0254C1F3130141F48011C3F3130372
:1003400043F4801301FB024400FB034E840A970A26
:1003500044EA815447EA8357A4FB076802958D0A53
:1003600005FB07854FEA932C04FB0C542705029DDF
:100370004FEA065847EA1637B5EB08056EEB070C4F
:10038000870E920E47EA811742EA8312A7FB020109
:10039000B6EB0B0164EB00042B0D43EA0C335E1843
:1003A00044EB1C50DA465146E7FB0201C5F3130447
:1003B0004FEA0B3343EA14534FEA0432019C43EAF9
:1003C0000603A4F10C040294009CCDE900B400F0F3
:1003D000E1F803B0BDE8F08F00200146F9E72DE910
:1003E000F04D81EA030404F0004B21F0004514466F
:1003F0004FF0000A23F0004150EA050220D054EAF1
:1004000001021DD0C5F30A570246C5F31303C1F319
:100410001300C1F30A5640F4801543F48013A7EB90
:100420000608101BD64608F2FD3873EB050002D310
:1004300008F1010801E092185B41B8F1000F03DAFE
:1004400000200146BDE8F08D00204FF480110646E3
:1004500084460EE0171B73EB050705D3121B63EBF5
:10046000050306434CEA010C49084FEA3000921894
:100470005B4150EA0107EDD152EA030012D082EA53
:10048000040083EA0501084305D0101BAB4106D2E6
:100490000122002306E000224FF0004302E06FF04B
:1004A000010253101AEB06004CEB085110EB0A0046
:1004B00041EB0B01BDE8F04D00F05DB80EB540F228
:1004C000334102910021CDE900110A460B4600F0AC
:1004D00061F803B000BDC1F30A5210B5C1F31301B6
:1004E00040F2FF3341F480119A4201DA002010BD3E
:1004F00040F233439A42A2F2334203DC5242FFF706
:1005000033FE10BD904010BD30B50B4601460020B3
:100510002022012409E021FA02F59D4205D303FAC5
:1005200002F5491B04FA02F52844151EA2F1010246
:10053000F1DC30BD202A04DB203A00FA02F1002071
:1005400070479140C2F1200320FA03F31943904011
:100550007047202A06DBCB17203A41FA02F043EA23
:10056000E07306E041FA02F3D040C2F1200291406C
:1005700008431946704710B5141E73F1000408DAD9
:10058000401C41F1000192185B411A4301D120F057
:10059000010010BD2DE9F04D92469B4611B1B1FA14
:1005A00081F202E0B0FA80F220329046FFF7C2FFFB
:1005B00004460F4640EA0A0041EA0B0153465A46F8
:1005C000084313D0114653EA010019D0C8F1400284
:1005D0005046FFF7C9FD05460E465046594642466D
:1005E000FFF7A8FF084305D0012004E02046394664
:1005F000BDE8F08D0020054346EAE0762C43374302
:100600000A986305E40AA0EB08000022FD0A44EA08
:1006100047540A3002D500200146E9E701051019C8
:100620006941DDE9084500196941BDE8F04DA2E7DF
:10063000064C074D06E0E06840F0010394E807002F
:1006400098471034AC42F6D3FFF776FD003F000820
:10065000203F0008014800F0E7BA00002800002011
:1006600070B5044600688168C943C90717D181681D
:1006700021F00101816001F04DF805460AE000BF5C
:1006800001F048F8401B022804D920688068C04364
:10069000C00706D020688068C043C007F0D00020A3
:1006A00070BDA06A40F01000A062E06A40F0010056
:1006B000E062012070BD10B50146406A826A12F006
:1006C000500F05D0006A026BBDE810400846104785
:1006D000816A41F40071816201688968C1F3424115
:1006E00007290CD1017B51B9816A21F480718162A3
:1006F000816AC90403D4816A41F00101816200F07A
:100700007DFA10BD10B5406A816A41F040018162F6
:10071000C16A41F00401C16200F085FA10BD10B554
:10072000406A00F07FFA10BDF8B500260446009636
:1007300000688168C943C9072DD0816841F0010173
:100740008160164816490068B0FBF1F000E0401ED9
:1007500000900028FBD100F0DDFF054616E000BF49
:1007600000F0D8FF401B022810D920688068C043E1
:10077000C0070BD0A06A40F01000A062E06A40F011
:100780000100E06284F824600120F8BD20688068E0
:10079000C043C007E4D10020F8BD000020000020C5
:1007A00040420F00FEE7000070B5094DFF221346DE
:1007B00005F5807606E000BF10F8014B54402A5D35
:1007C0005A40335D491E89B2F6D243EA022070BD19
:1007D000C43C00081FB54FF48060009001200190D8
:1007E000022003906946024800F086FE1FBD00000B
:1007F000000C01402DE9F0410025174E2C464FF426
:1008000080674FF001083946304600F071FF00283C
:10081000F9D0322000F098F83946304600F068FFF1
:1008200001280BD0C4F1070108FA01F08543641CCC
:10083000E4B2082CE7D32846BDE8F08139463046BB
:1008400000F056FF0128F9D0C4F1070108FA01F0C1
:10085000C0B20543EBE70000000C01407FB5044641
:10086000FFF7B8FF294E4FF4806500222946304635
:1008700000F04BFF122000F02DFE012229463046E9
:1008800000F043FF322000F05FF80020CDE9005077
:1008900002906946304600F02FFE2946304600F0AF
:1008A00027FF10B1032004B070BD2946304600F088
:1008B0001FFF0028F9D02946304600F019FF012813
:1008C000F9D0FFF797FF2070FFF794FF6070FFF7F4
:1008D00091FFA070FFF78EFFE070FFF78BFF207194
:1008E000FFF778FF01222946304600F00EFF2078FE
:1008F0006178E2780844A17811440844217988425B
:1009000001D10120CFE70020CDE70000000C01401D
:10091000014800F045BC0000C001002030B590F84F
:1009200040500124AC40C56B6C6004686360436850
:10093000102B036803D099600068C26030BD9A60D4
:100940000068C16030BD704730B54FF0E02185B020
:100950008A6901924A69521C08B1012300E0002310
:10096000C01A50434FF47A73B0FBF3F3019C00209C
:1009700000948C690194DDE90045AC4200D2144436
:10098000641B204400958342F3D805B030BD72B695
:10099000FEE7000030B503460020084A01464FF448
:1009A0008C7400BF32F821509D4203D802EB8100C5
:1009B000408830BD491CA142F4DD30BD60380008DC
:1009C00070B586B018216846FFF7E5FB0020134B91
:1009D00006224FF41674694690FBF2F502FB1505EA
:1009E00053F8206051F82550354490FBF2F602FB95
:1009F0001606401C41F82650A042EDDB0020084BB3
:100A0000642200BF51F82040B4FBF2F443F82040C8
:100A1000401C0628F6DB06B070BD00000402002072
:100A2000640B0020F8B500250446009590F82400DA
:100A300001280BD0012084F824002046FFF710FE87
:100A40002046FFF771FE060002D050E00220F8BDFC
:100A5000A06A20F4885040F00200A062022000F05A
:100A6000F7FE25490968B1FBF0F0400000E0401EA8
:100A700000900028FBD12068816841F00801816066
:100A800000F048FE074608E000F044FEC01B0A28BC
:100A900003D920688068000715D4206880680007A3
:100AA000F2D42068816841F00401816000F032FED8
:100AB000074612E000F02EFEC01B0A280DD9206860
:100AC0008068400709D5A06A20F0020040F01000BD
:100AD000A06284F824500120F8BD20688068400797
:100AE000E8D4A06A20F0020040F00100A06284F87F
:100AF00024503046F8BD0000200000207047000060
:100B0000F8B50024009490F824202546012A12D03C
:100B1000012280F824204A681F23072A0DD2066884
:100B2000776B521E02EB820293409F430B68934007
:100B30001F43776319E00220F8BD06680D2A0AD228
:100B4000376BD21F02EB820293409F430B689340A6
:100B50001F43376309E0F76A0D3A02EB82029340C4
:100B60009F430B6893401F43F7620A680723066898
:100B70000A2A0AD3F7680A3A02EB420293409F43DB
:100B80008B6893401F43F76008E0376902EB42022D
:100B900093409F438B6893401F4337610A68102A34
:100BA00001D0112A20D1124B02689A4217D19368C2
:100BB0001B0219D4936843F4000393600968102959
:100BC00012D10C490C4A0968B1FBF2F101EB810129
:100BD000490000E0491E00910029FBD104E0816A30
:100BE00041F020018162012480F824502046F8BDA4
:100BF000002401402000002040420F00074910B5AA
:100C000088420AD1FFF7DCFE044800F0E3F904480B
:100C10004168491C41600121017010BD280000207D
:100C2000000000207047704770B5044600680668F1
:100C30004568A90625D5B10723D5A16AC90603D4FD
:100C4000A16A41F40071A1628168C1F342410729A0
:100C500010D1217B71B9416821F020014160A06A67
:100C600020F48070A062A06AC00403D4A06A40F09F
:100C70000100A0622046FFF7C1FF21686FF012005B
:100C8000086028062ED570072CD5A06AC00603D4AC
:100C9000A06A40F40050A06220688168C1F302316C
:100CA000072909D04168490515D48168C1F342413B
:100CB000072910D1217B71B9416821F08001416081
:100CC000A06A20F48050A062A06AC00503D4A06A84
:100CD00040F00100A0622046FFF710FF21686FF08E
:100CE0000C00086068060CD5F0070AD0A06A40F432
:100CF0008030A062204600F095F821686FF0010076
:100D0000086070BD2DE9F04104004FF000057FD070
:100D1000A06A002628B9E66284F82460204600F024
:100D200083F82046FFF79CFCA16AC90600D420B1D5
:100D3000A06A40F01000A0626AE0A16A21F4885124
:100D400041F00201A162334923688B42E16904D179
:100D5000B1F5402F01D14FF40021277B4FF4807C67
:100D600041EA470261680A43A168614508D0012948
:100D700006D0002194F814E0BEF1010F02D00AE081
:100D80006146F7E7C7B1A76A47F02007A762E76A9D
:100D900047F00107E7625F6827F469470F435F6028
:100DA000236899681C4F394011439960A1686145D7
:100DB0000BD0012909D00CE0DFF860E0A7690EEB49
:100DC00047370F4347F40061E5E7218A0D05A5F594
:100DD00080152168CB6A23F470032B43CB62216812
:100DE00089680F4B1940914208D1E662A16A21F04F
:100DF000020141F00101A162BDE8F081A06A20F08A
:100E0000020040F01000A062E06A40F00100E062E1
:100E10000120F1E7003C0140FDF7E1FF00E0FFFFAA
:100E2000FE0E1FFF7047000070B586B00025064615
:100E3000009501950295039500681E49884236D1B8
:100E40001D49886940F400708861886900F4007069
:100E50000490886940F0040088618869694600F060
:100E600004000490FC20009003200190134800F03F
:100E700043FB144C1248C4E900058020C4E9025029
:100E800080002061800060612020C4E906052046C2
:100E900000F0AAFA08B1FFF77AFD346200220721B8
:100EA0001220666200F0A2FC122000F091FC06B055
:100EB00070BD000000240140001002400008014005
:100EC00008000240C00100202DE9F0478946044691
:100ED0003B4900683B4F0E1D9046884201D0B84206
:100EE00007D1306810F4702F03D001252846BDE8E3
:100EF000F08794F8240001280CD0012084F8240005
:100F00002046FFF711FC05004FF0000004D084F8E4
:100F10002400EBE70220EAE7A16A40F60162914370
:100F200041F48071A1622168B94218D1326812F48B
:100F3000702F14D0A16A41F48011A1623168490573
:100F400005D5A16A21F4005141F48051A162A16A42
:100F5000C9040AD5E16A21F00601E16206E0A26A4D
:100F600022F48012A2624968E9E7E06284F8240072
:100F7000216A15488862216A1448C862216A1448A7
:100F8000086321686FF0020008602068816841F4FE
:100F900080718160216843464A464C31206A00F0E6
:100FA00061FA20688168C1F342410729816803D052
:100FB00041F48011816099E741F4A001FAE7000053
:100FC0000024014000280140B70600081F07000860
:100FD0000507000810B5044690F82400012807D042
:100FE000012084F824002046FFF73AFB10B113E0FB
:100FF000022010BD21688A6822F480728A60216A0A
:1010000091F82120022A07D1084600F00EF8A16AC3
:1010100030B141F04001A162002184F8241010BDDC
:1010200021F4885141F00101F5E710B590F8211045
:101030000022022905D00421816380F820200120AC
:1010400010BD01680B6823F00E030B6001680B688C
:1010500023F001030B6090F84030C46B012101FACA
:1010600003F3636080F8211080F82020104610BD43
:101070002DE9F05F90F821100024022903D004210B
:101080008163012485E001680A6822F00E020A608B
:1010900001680A6822F001020A603F4E3E4FB21515
:1010A000DFF8F4C0DFF8F090DFF8ECA0DFF8E8B08C
:1010B000DFF8E4E00168783F13011502ACF1640C3D
:1010C000A9F15009AAF13C0AABF1280BAEF1140EBC
:1010D0004FF48018B14227D9B9420ED0614512D0E1
:1010E00049451DD0514518D0594518D0714501D1F9
:1010F000424615E0294EB14201D1012210E0274EAF
:101100001436B14201D110220AE0244E2836B142F1
:1011100006D0224A3C32914201D11A4600E02A46CA
:101120001E49091F0A602BE0B94213D0614517D050
:10113000494522D051451DD059451DD0714501D199
:1011400042461AE0B14202D14FF0807215E0134ED0
:10115000B14201D1012210E0104E1436B14201D14A
:1011600010220AE00D4E2836B14206D00B4A3C321E
:10117000914201D11A4600E02A46074980394A6067
:10118000012180F82110002180F82010416B01B16D
:1011900088472046BDE8F09F8000024008040240D6
:1011A0002DE9F05FC16B0A6801680B68046C4FF0B1
:1011B000040808FA04F8844D844E854FDFF814C201
:1011C000DFF81492DFF814A2DFF814B2DFF814E2AB
:1011D00018EA020F65D05FEA437862D50A68920682
:1011E00003D40A6822F004020A60DFF8F0814FF4A9
:1011F0008062016808F1140813011402414524D9E2
:10120000A9420DD0B1420FD0B9421AD0614515D0D4
:10121000494515D0514501D1120312E0594501D17C
:1012200004220EE0714501D140220AE06D4D1435D3
:10123000A94206D06B4A2832914201D11A4600E0F9
:1012400022466749091F0A6029E0A94213D0B1422A
:1012500015D0B94220D061451BD049451BD051451E
:1012600002D14FF4800217E0414502D14FF0806275
:1012700012E0594501D104220EE0714501D140220E
:101280000AE0584D1435A94206D0564A28329142F8
:1012900001D11A4600E022464B4908394A60C16A2A
:1012A00071E04FF0020808FA04F818EA020F70D053
:1012B0005FEA83786DD50A68920606D40A6822F040
:1012C0000A020A60012180F82110DFF810814FF432
:1012D0000072016808F1140813011402414524D971
:1012E000A9420DD0B1420FD0B9421AD0614515D0F4
:1012F000494515D0514501D1120312E0594501D19C
:1013000002220EE0714501D120220AE0354D14354C
:10131000A94206D0334A2832914201D11A4600E050
:1013200022462F49091F0A6029E0A94213D0B14281
:1013300015D0B94220D061451BD049451BD051453D
:1013400002D14FF4001217E0414502D14FF0007274
:1013500012E0594501D102220EE0714501D120224F
:101360000AE0204D1435A94206D01E4A2832914287
:1013700001D11A4600E02246134908394A6000218B
:1013800080F82010816A00291CD0BDE8F05F084772
:10139000FFE70825A540154214D01A0712D50A68A0
:1013A00022F00E020A6090F84020C36B012101FA7E
:1013B00002F25A60816380F82110002180F8201029
:1013C000016BE0E7BDE8F09F080002401C0002400E
:1013D0003000024044000240580002406C000240CD
:1013E000080402401C04024030B560B11A4B026888
:1013F00014219A4209D2194B1344B3FBF1F189002D
:10140000016417490AE0012030BD134B5B421344CD
:10141000B3FBF1F1890001640F490839C16302216E
:1014200080F82110136843F6F0718B43F0E9011442
:101430002143D0E902452C432143046921434469F7
:101440002143846921431943116000214163012232
:1014500042770177084630BD08040240F8FFFDBF1F
:101460000000024070B5044690F8200000250128D5
:101470000CD0012084F8200094F821600020012E77
:1014800006D084F820000225284670BD022070BDD9
:10149000022684F82160A0632068066826F0010611
:1014A00006602046FFF73AFAE06A002820680168E3
:1014B00002D041F00E0106E021F004010160206835
:1014C000016841F00A0101602068016841F00101F2
:1014D0000160D9E770B5044600F01CF90546601CB0
:1014E00002D004480078044400F014F9401BA042E4
:1014F000FAD370BD140000202DE9F84FDFF8C89131
:101500000024A9F1040B23460F2709F1040AABF1CB
:10151000040ED1E00125A54006EA0502AA4276D1D3
:10152000DFF8A8C14E68A6EB0C0866452BD00DDC91
:10153000032E34D005DC36B3012E19D0022E2FD164
:101540001BE0112E16D0122E2AD119E0B8F5881FF3
:1015500019D006DCB8F5803F15D0B8F5801F1FD133
:1015600011E0B8F5001F0ED0B8F5041F18D10AE03D
:10157000CB6815E0CB681B1D12E0CB6808330FE089
:10158000CB680C330CE08B682BB1012B4FF00803B8
:1015900003D0456104E0042302E0056100E000237C
:1015A000FF2A01D8064601E000F104064FEA84054F
:1015B00001D9A5F12005D6F8008007FA05FC28EA34
:1015C0000C0803FA05F548EA0508C6F800804D68DE
:1015D000ED0070D53E4DAE6946F00106AE61AD69D5
:1015E00024F0030605F0010500953A4D06EB050CC5
:1015F000DCF80850A607360F07FA06F825EA0805B2
:10160000DFF8D480404503D14FF0000825E052E0D8
:10161000DFF8C880404502D14FF001081DE0DFF837
:10162000C080404502D14FF0020816E0DFF8B480D8
:10163000404502D14FF003080FE0DFF8AC80404591
:1016400002D14FF0040808E0DFF8A080404502D145
:101650004FF0050801E04FF0060808FA06F848EADE
:101660000508CCF808804D68D9F80060ED024D46B9
:1016700001D5164300E096432E604D68DAF800600D
:10168000AD02554601D5164300E096432E604D68E5
:10169000DBF80060AD035D4601D5164300E09643DC
:1016A0002E604D68DEF80060ED03754601D51643E7
:1016B00000E096432E60641C0A681646E2407FF400
:1016C00029AFBDE8F88F00000804014000001110A8
:1016D000001002400000014000080140000C0140E1
:1016E000001001400014014000180140001C01409E
:1016F0008068084000D001207047C26821EA0203D8
:101700000A4043EA0241016170470AB10161704732
:101710000904FBE7014880687047000014000020BE
:1017200002488168027811448160704714000020EB
:10173000074810B5016841F010010160032000F076
:1017400075F80F2000F006F800F024F8002010BD16
:101750000020024070B50D4D04464FF47A71287890
:10176000B1FBF0F00A490968B1FBF0F000F0AEFB04
:1017700048B9102C07D200222146501E00F036F83E
:1017800000206C6070BD012070BD000014000020BE
:10179000200000200C4808B5816941F001018161F9
:1017A000816901F001010091C16941F08051C1617D
:1017B000C06900F0805000900448416821F0E06169
:1017C00041F00071416008BD00100240000001407E
:1017D000002809DB00F01F02012191404009800030
:1017E00000F1E020C0F8001170470000F0B40E4B8B
:1017F0001B680C46C3F30223C3F10705042D00D96F
:101800000425191D072901D2002300E0DB1E012653
:1018100006FA05F1491E214099409E40761E164069
:101820003143F0BC01F0CCBD0CED00E0064900F006
:10183000070208684FF6FF03184040EA0220034AF7
:1018400010430860704700000CED00E00000FA054E
:1018500010B501460020284C04292FD00BDC0129AB
:1018600030D0022929D100F06BF96168C1F38131D0
:10187000491C49001FE0082920D010291DD16168AA
:101880002268D20119D51D48C1F38342C903805C87
:101890000AD56168194AC1F34041921E515C184A49
:1018A000B2FBF1F1484301E016494843616849023F
:1018B00003D440000321B0FBF1F010BDBDE810409F
:1018C00000F04EB9226AC2F30121012903D1920727
:1018D00001D5C80310BD022905D1626A920702D55D
:1018E00049F6404010BD0329FCD121688903F9D590
:1018F0004FF2244010BD000000100240D83E000806
:1019000000127A0000093D002DE9F84305460078F1
:10191000354CC00754D0E0690026C00008D4E06907
:1019200040F08050E061E069012600F080500090B6
:101930002E480168C90512D40168804641F48071BF
:101940000160FFF7E7FE074605E000BFFFF7E2FE94
:10195000C01B642823D8D8F80000C005F6D5206A3B
:1019600010F4407021D0A98801F4407181421CD04C
:10197000206A1F49012220F440700A6000220A6098
:101980002062C00711D0FFF7C5FE074641F2883834
:1019900008E000BFFFF7BEFEC11B414502D903208E
:1019A000BDE8F883206A8007F4D5206A696820F4CE
:1019B0004070084320621EB1E06920F08050E06171
:1019C0002878800705D56068A96820F4404008435E
:1019D00060602878C00605D56068696920F48000D9
:1019E000084360600020DBE7001002400070004008
:1019F000400442422DE9F0470F46050061D0434EB6
:101A0000306800F00700B84209D2306820F00700C3
:101A100038433060306800F00700B84251D1286880
:101A20003B4C810712D5400703D5606840F4E06065
:101A300060602878000703D5606840F460506060FB
:101A40006068A96820F0F000084360602878C0074B
:101A500028D06868012810D02168022810D0890792
:101A600000292EDA616821F0030101436160FFF76C
:101A700051FE804641F288390DE021688903EFE785
:101A80008901EDE7FFF746FEA0EB0801494502D9C1
:101A90000320BDE8F0876068696800F00C00B0EBD7
:101AA000810FEFD1306800F00700B8420BD93068E1
:101AB00020F0070038433060306800F00700B8427B
:101AC00001D00120E5E72878400705D56068E9687E
:101AD00020F4E060084360602878000706D560685D
:101AE000296920F4605040EAC100606000F038F8D5
:101AF0006168084AC1F30311515CC8400649086097
:101B000006480068FFF726FE0020C2E700200240DA
:101B100000100240E83E00082000002018000020CD
:101B20000448054900684968044AC1F30221515C30
:101B3000C84070472000002000100240F83E000816
:101B40000448054900684968044AC1F3C221515C50
:101B5000C84070472000002000100240F83E0008F6
:101B60000E4A51680E4801F00C03042B11D0082BCB
:101B70000FD10C48C1F38343C903C05C0AD5516837
:101B8000084AC1F34041921E515C054A5043B0FBE4
:101B9000F1F07047044948437047000000100240CC
:101BA00000127A00C63E000800093D002DE9F84FFA
:101BB000040070D02078C04DC00749D06868C0F3D9
:101BC0008100012807D06868C0F38100022809D18C
:101BD0006868C00306D52868800339D56068002886
:101BE000E7D035E06068B0F5803F0BD010B1B0F5BC
:101BF000A02F11D0286820F480302860286820F4B5
:101C0000802002E0286840F480302860606890B14D
:101C1000FFF780FD06460AE0286840F4802028602F
:101C2000F0E700BFFFF776FD801B642873D82868B3
:101C30008003F7D50CE0FFF76DFD064605E000BF19
:101C4000FFF768FD801B6428F0D828688003F7D46C
:101C500020789A4E80074FF001094FF0000839D5DF
:101C6000686810F00C0F07D06868C0F38100022884
:101C700009D16868C00306D42868800714D5206994
:101C8000012808D110E02069B0B1C6F80090FFF734
:101C900041FD074605E00AE1FFF73CFDC01B0228B5
:101CA000C4D828688007F7D52868616920F0F80053
:101CB00040EAC10028600DE0C6F80080FFF72AFD69
:101CC000074604E0FFF726FDC01B022823D828683A
:101CD0008007F7D4207800072CD57948A169D9B1BD
:101CE000C0F80090FFF716FD074604E0FFF712FD6D
:101CF000C01B02280FD8686A8007F7D571484FF4D7
:101D0000FA510068B0FBF1F0009000BF0098411E4E
:101D10000091FAD20EE080E0C0F80080FFF7FAFCF4
:101D2000074604E0FFF7F6FCC01B022875D8686A76
:101D30008007F7D42078400760D5E8690027C00005
:101D400008D4E86940F08050E861E869012700F0B4
:101D5000805000905C480168C90513D4016883462F
:101D600041F480710160FFF7D5FC824606E000BFB8
:101D7000FFF7D0FCA0EB0A0064284ED8DBF8000087
:101D8000C005F5D5E06801280AD008B1052813D0B0
:101D9000286A20F001002862286A20F0040002E08E
:101DA000286A40F001002862E06841F2883B98B15F
:101DB000FFF7B0FC82460BE0286A40F0040028627E
:101DC000EEE700BFFFF7A6FCA0EB0A0159455AD881
:101DD000286A8007F6D50CE0FFF79CFC824605E0F8
:101DE000FFF798FCA0EB0A0159454CD8286A8007F8
:101DF000F6D41FB1E86920F08050E861E06988B34B
:101E00006968C1F38101022944D00228C6F86080C4
:101E100004D0FFF77FFC044638E034E0FFF77AFC9B
:101E2000074604E0FFF776FCC01B02282BD8286881
:101E30008001F7D4206AB0F5803F05D16868A168B9
:101E400020F4003008436860D4E908010843696859
:101E500021F4741108436860C6F86090FFF75AFCDB
:101E6000044606E025E000BFFFF754FC001B0228F3
:101E700009D828688001F7D51BE000BFFFF74AFCAE
:101E8000001B022802D90320BDE8F88F28688001D2
:101E9000F4D40EE00128F7D06868226A00F480319B
:101EA000914204D1616A00F47010884201D001208F
:101EB000EAE70020E8E7000000100240000042428C
:101EC00080044242200000200070004010B5401EF7
:101ED000B0F1807F01D3012010BD4FF0E02460619C
:101EE0000F21601701F06CFA0020A061072020612B
:101EF000002010BD7047704710B590F83C20012AB3
:101F000022D0012280F83C20CA688C6822F44072FA
:101F100022434C6822F4806222430C6822F400625F
:101F200022430C6922F4805222434C6922F400526D
:101F30002243C969002322F480420A4301684A64AB
:101F400080F83C30002010BD022010BD70B590F824
:101F50003C20012A2CD0012480F83C40022280F849
:101F60003D2003685A689D6822F070060A68324373
:101F70005A60104B02689A420ED00F4B9A420BD017
:101F8000B2F1804F08D00D4B9A4205D00C4B9A42CB
:101F900002D00C4B9A4204D1496825F080031943C2
:101FA000916080F83D40002180F83C10084670BDEB
:101FB000022070BD002C01400034014000040040AC
:101FC00000080040000C004010B5040003D094F855
:101FD0003D0010B107E0012010BD002084F83C0056
:101FE000204600F01FF8022084F83D00211D2068E3
:101FF00000F048FF012084F8460084F83E0084F891
:102000003F0084F8400084F8410084F8420084F8DE
:10201000430084F8440084F8450084F83D00002023
:1020200010BD000008B5274A0168274891420ED12B
:10203000816941F4006181618069002200F40060DF
:10204000009008211920FFF7D1FB192034E0B1F1ED
:10205000804F11D01D4A91421DD1C16941F002014A
:10206000C161C069002200F00200009009211D201A
:10207000FFF7BCFB1D201FE0C16941F00101C161F8
:10208000C069002200F00100009006211C20FFF72B
:10209000ADFB1C2010E00E4A914211D1C16941F004
:1020A0000401C161C069002200F0040000900B210E
:1020B0001E20FFF79BFB1E20BDE80840FFF788BBF2
:1020C00008BD0000002C0140001002400004004048
:1020D0000008004090F83D10012901D00120704710
:1020E000022180F83D100168CA6842F00102CA600E
:1020F00000680E4988420ED00D4988420BD0B0F1DD
:10210000804F08D00B49884205D00B49884202D045
:102110000A49884204D1816801F00701062903D0E9
:10212000016841F00101016000207047002C01406E
:10213000003401400004004000080040000C004052
:102140000168CA6822F00102CA6001680A6A41F2A5
:1021500011131A4207D10A6A9B101A4203D10A6866
:1021600022F001020A60012180F83D100020704732
:1021700070B5044690F83C000025012817D00126D0
:1021800084F83C60022084F83D002068826822F0D8
:10219000770222F47F4282600868502838D00DDC34
:1021A00020284FD005DC90B3102811D14AE002203E
:1021B00070BD302846D040280AD13BE060282FD09F
:1021C00070280DD0B0F5805F03D0B0F5005F12D05D
:1021D000012584F83D60002084F83C00284670BD4D
:1021E000CB68D1E90121206800F09AFE206881685F
:1021F00041F0770109E0CB68D1E90121206800F0C6
:102200008FFE2068816841F480418160E1E719E038
:10221000CA684968206800F057FF5021206806E02E
:10222000CA684968206800F060FF6021206800F0FB
:1022300081FECEE7CA684968206800F045FF40216A
:102240002068F4E7226801461046F0E770472DE960
:10225000F04104460068C66805694FF00007A90709
:1022600013D5B10711D5F91E01610120207720682F
:1022700080698007204602D0FFF7E8FF04E000F005
:10228000A5F8204600F037F92777680716D57007BC
:1022900014D521686FF004000861022020772068BF
:1022A000806910F4407F204602D0FFF7CFFF04E0A2
:1022B00000F08CF8204600F01EF92777280715D586
:1022C000300713D521686FF00800086104202077DB
:1022D0002068C0698007204602D0FFF7B7FF04E0FE
:1022E00000F074F8204600F006F92777E80616D5C6
:1022F000F00614D521686FF01000086108202077DF
:102300002068C06910F4407F204602D0FFF79EFF8E
:1023100004E000F05BF8204600F0EDF82777E807CE
:1023200008D0F00706D021686FF001000861204650
:1023300000F0E2F8280608D5300606D521686FF0CF
:10234000800008612046FFF7D5FD680608D57006B5
:1023500006D521686FF040000861204600F0E4F8DF
:10236000A8060AD5B00608D521686FF020000861DC
:102370002046BDE8F041FFF7BEBDBDE8F08100009A
:1023800000B585B000210091019102910391006890
:102390000B49884212D10B48816941F004018161E7
:1023A0008069694600F0040004904FF400600090DA
:1023B0000220019003900448FFF79EF805B000BD8D
:1023C000002C01400010024000080140704770B529
:1023D000044690F83C0000260D4601280FD001204D
:1023E00084F83C006AB1042A1DD0082A2FD00C2A98
:1023F0003FD00126002084F83C00304670BD02200A
:1024000070BD206800F09EFD2068816941F00801E0
:1024100081612068816921F00401816120688169FE
:102420002A69114311E0206800F0BCFD2068816931
:1024300041F4006181612068816921F480618161DA
:10244000206881692A6941EA02218161D2E7206816
:1024500000F0DEFD2068C16941F00801C16120681B
:10246000C16921F00401C1612068C1692A69114371
:1024700011E0206800F000FE2068C16941F40061AD
:10248000C1612068C16921F48061C1612068C169AE
:102490002A6941EA0221C161ACE710B5040003D00A
:1024A00094F83D0010B107E0012010BD002084F831
:1024B0003C00204600F01EF8022084F83D00211D5B
:1024C000206800F0DFFC012084F8460084F83E001C
:1024D00084F83F0084F8400084F8410084F842000A
:1024E00084F8430084F8440084F8450084F83D00F3
:1024F000002010BD70477047084910B588420BD1C5
:1025000020210748FFF7F9F8064901200870BDE8C7
:1025100010400248FFF714BE10BD0000A0000020CC
:10252000000C014009000020704770477047000010
:10253000F8B5016804460868CA684B6910F00F0FC7
:102540004FF0000559D003F0010602F490773743AD
:1025500065D0C10705D0D10503D5616C41F00101FB
:102560006164410705D5D90703D0616C41F00201D0
:102570006164810705D5D90703D0616C41F004017E
:102580006164010707D502F02001314303D0616C7B
:1025900041F008016164616C00293AD0800604D5DD
:1025A000900602D5204600F0E1FD20684069616C8C
:1025B000C0F38010090700D460B3204600F0AFFDDF
:1025C00020684069400621D52068143050E8001F7B
:1025D00021F0400140E80012002AF5D1E06BA8B1DB
:1025E0006D494163E06BFEF743FD002811D0E06BBD
:1025F000416B01B0BDE8F040084783060FD5930654
:102600000DD52046BDE8F84000F0B0BD2046FFF7EC
:102610008DFFF8BD2046FFF789FF6564F8BD266B86
:102620002023012E7CD1C6067AD5D60678D5086837
:102630004868009048694FF00206400640D5E16BBB
:10264000086840680004000CE8D0A28D8242E5D9F9
:10265000E085886920282DD020680C3050E8001FC4
:1026600021F4807140E80012002AF5D1206814306E
:1026700050E8001F21F0010140E80012002AF5D1C6
:102680002068143050E8001F21F0400140E800129B
:10269000002AF5D184F84230256320680C3050E8D8
:1026A000001F21F0100140E80012002AF5D1E06B74
:1026B000FEF7BBFC6663A08DE18D401A81B22AE073
:1026C000A08DE18D401A81B2E08D0028A6D00029AE
:1026D000A4D022680C3252E8000F20F4907042E837
:1026E0000007002FF5D12068143050E8002F22F0A9
:1026F000010240E80027002FF5D184F8423025631D
:1027000020680C3050E8002F22F0100240E800232F
:10271000002BF5D166632046FFF707FFF8BDFFE702
:1027200005062BD5150629D594F841002128F5D1A9
:10273000A068B0F5805F01D12069B0B1206A411C6A
:102740002162216800784860E08C401E0004000C83
:10275000E084E3D12068C16821F08001C160206875
:10276000C16841F04001C160D8E7206A0088C0F329
:1027700008004860206A801C2062E5E74006CDD54D
:102780005006CBD5CA68204622F04002CA6084F8C1
:10279000413000F0FFF8C1E70F31000870B50400C8
:1027A00004D094F84100002510B106E0012070BD6E
:1027B00084F84050204600F023F8242084F841009B
:1027C0002068C16821F40051C160204600F030FD4E
:1027D0002068016921F4904101612068416921F07C
:1027E0002A0141612068C16841F40051C1606564FB
:1027F000202084F8410084F842006563002070BD09
:1028000030B585B0002400940194029403940068CC
:10281000184988422CD11848816941F4804181616E
:10282000816901F480410491816941F00401816171
:102830008069124D00F0040004904FF40070009085
:10284000022001900320039069462846FEF754FEBB
:102850002815CDE90004694628460294FEF74CFE8F
:1028600000220A212520FEF7C1FF2520FEF7B0FF38
:1028700005B030BD003801400010024000080140A2
:1028800090F84230202B01D00220704721B11AB1BC
:102890000023036300F028BD0120704710B50068D5
:1028A0000F4988421BD10F480021026851620E4C2B
:1028B000616831B900686FF0010101610948FFF7F3
:1028C00009FC0948094A017860681154401C60609D
:1028D000BDE81040012204490548FFF7D1BF10BDF3
:1028E00000380140A00000200C0000207C0B0020DC
:1028F000780100202DE9F843044690F841009846FD
:1029000016460D46202802D00220BDE8F88385B186
:102910007EB100206064212084F84100FEF7FAFEB9
:10292000A6848146E684A0682027B0F5805F02D0A7
:1029300003E00120E9E7206910B12E4600250EE0F2
:1029400000260CE08021204600F0E9FCA8B9C6B1C1
:1029500016F8010B21684860E08C401EE084E08C92
:102960004B464FF00002CDF800800028EAD14FF02E
:102970004001204600F0D3FC40B184F841700320B0
:10298000C3E735F8020BC0F30800E3E784F84170B1
:102990000020BAE77047FEE710B50C4C0121204635
:1029A000FEF7A6FE012810D11420FEF793FD0121A9
:1029B0002046FEF79DFE012807D105490870012138
:1029C0002046FEF795FE0128F9D010BD0008014011
:1029D00008000020FEB500212B4800910191294AF2
:1029E000029102609215826001240473017506252C
:1029F0004FF460220561C2614160FEF783F908B1BE
:102A000072B6FEE70226CDE90064052469461E4839
:102A10000294FEF775F808B172B6FEE70327CDE918
:102A2000007669461848FEF76BF808B172B6FEE703
:102A3000042669461448CDE90067FEF761F808B13D
:102A400072B6FEE7CDE9004669460F48FEF758F832
:102A500008B172B6FEE7CDE9005469460A48FEF7B0
:102A60004FF808B172B6FEE70720CDE900056946C8
:102A70000548FEF745F808B172B6FEE70248FDF7D3
:102A8000D1FFFEBD00240140280000202DE9F041C7
:102A900086B000242A48009401940294039481692A
:102AA00041F010018161816901F010010491816997
:102AB00041F004018161816901F00401049181699F
:102AC00041F00801816180691E4F00F00800049008
:102AD000002204213846FEF718FEDFF86C80012240
:102AE00023214046FEF711FE002239154046FEF72D
:102AF0000CFE781402258DE8310069463846FEF751
:102B0000FBFC04200126CDE9000669463846CDE9E4
:102B10000245FEF7F1FC009669460C48CDE90145F7
:102B2000FEF7EAFC40F22340CDE900066946404644
:102B3000CDE90245FEF7E0FC06B0BDE8F0810000FB
:102B40000010024000100140000C0140000801404C
:102B500010B596B000240F9410941194129413940D
:102B60001C2108A81494FDF716FB20216846FDF7E8
:102B700012FB2848264901600521C0E901144FF6DF
:102B8000FF71C0E903148021C0E90541FFF71CFA79
:102B900008B172B6FEE74FF480500F900FA91D48A0
:102BA000FFF7E6FA08B172B6FEE71A48FFF775FCC0
:102BB00008B172B6FEE7139413A916481494FFF7F0
:102BC000C5F908B172B6FEE76020CDE908040A94A1
:102BD0000C940D940C2208A90E480E94FFF7F7FBF5
:102BE00008B172B6FEE700944FF40050CDE90440FE
:102BF000029401940394694606480794FFF77CF910
:102C000008B172B6FEE70348FFF7BAFB16B010BD75
:102C1000002C01405800002010B586B00024164852
:102C2000009401940294039404944FF0804105941D
:102C3000016041F61F41C0E901143121C0E90314CC
:102C40008461FFF7C1F908B172B6FEE74FF4805016
:102C5000009069460848FFF78BFA08B172B6FEE7A4
:102C6000049404A904480594FFF770F9002801D0E2
:102C700072B6FEE706B010BDA000002010B586B009
:102C80000024174800940194029403940494134977
:102C90000594016041F61F41C0E901146321C0E9B8
:102CA00003148461FFF790F908B172B6FEE74FF4A0
:102CB0008050009069460A48FFF75AFA08B172B688
:102CC000FEE7049404A906480594FFF73FF900289D
:102CD00001D072B6FEE706B010BD0000000400404F
:102CE000E800002010B586B0002417480094019435
:102CF00002940394049413490594016041F61F4122
:102D0000C0E901144FF6FF71C0E903148461FFF7B5
:102D10005BF908B172B6FEE74FF480500090694647
:102D20000948FFF725FA08B172B6FEE7049404A932
:102D300005480594FFF70AF9002801D072B6FEE7AE
:102D400006B010BD00080040300100200E4810B54C
:102D50000C4901604FF416514160002181600C2242
:102D6000C160C0E904128161C161FFF717FD08B1BC
:102D700072B6FEE7BDE81040012204490248FFF7A1
:102D80007FBD000000380140780100200C000020C9
:102D9000FEE7FEE77047000070B50B4E0C46054697
:102DA000012204213046FEF7B0FC4FF0FF332246EB
:102DB00029460648FFF79EFD3046BDE870400022D8
:102DC0000421FEF7A2BC00000010014078010020A1
:102DD0007047FEF7A5BC30B595B028216846FDF7D1
:102DE000DAF914210AA8FDF7D6F918210FA8FDF782
:102DF000D2F901210804CDE9001000250295022432
:102E00000491CDE907404FF4E01009906846FEF7C1
:102E1000CDFE08B172B6FEE70AA90F2081E83100A5
:102E20004FF48060CDE90D0502210AA8FEF7E2FD0E
:102E300008B172B6FEE74FF4004011900F940FA84E
:102E4000FEF762FD002801D072B6FEE715B030BD76
:102E5000704700000148FFF7FAB900005800002051
:102E60000148FFF7F4B90000A00000200148FFF777
:102E7000EEB90000E80000200148FFF7E8B90000C3
:102E800030010020F0B50268204C214D214E224F28
:102E9000224B4FF0804CA04209D0984207D06045A9
:102EA00005D0A84203D0B04201D0B84204D122F0EC
:102EB000700E4A6842EA0E02A04209D0984207D03A
:102EC000604505D0A84203D0B04201D0B84203D13A
:102ED00022F44075CA682A434D6922F080022A43D1
:102EE00002608A68C2620A688262A04201D0984287
:102EF00001D109690163012141610169C90703D059
:102F0000016921F001010161F0BD0000002C0140C8
:102F10000004004000080040000C00400034014064
:102F200010B5846842EA032224F47F440A43224312
:102F3000826010BD826822F070020A4342F00701ED
:102F400081607047F0B5036A026A22F001020262F2
:102F500042688469124E24F073050C682C4323F0F8
:102F600002058B682B430D4DA84201D0B04205D11C
:102F700023F00807CB683B4323F00403A84201D0A9
:102F8000B04205D14D6922F4407215438A692A4343
:102F900042608461496841630362F0BD002C0140D6
:102FA00000340140F0B5026A036A23F010030362A3
:102FB000436884690D6824F4E64444EA05248D6876
:102FC00022F0200242EA05120F4D104EA84201D015
:102FD000B04206D1CF6822F0800242EA071222F006
:102FE0004002A84201D0B04207D14D6923F44063AA
:102FF00043EA85038D6943EA850343608461496838
:1030000081630262F0BD0000002C014000340140E9
:10301000F0B5026A036A23F4807303624368C469EB
:1030200022F4007224F073050C68124E2C438D6854
:1030300042EA05220E4DA84201D0B04206D1CF6827
:1030400022F4006242EA072222F48062A84201D000
:10305000B04207D14D6923F4405343EA05138D690B
:1030600043EA05134360C4614968C1630262F0BD6D
:10307000002C01400034014030B5046A026A22F499
:10308000805202624268C3690D6823F4E64343EA52
:1030900005238D6824F4005444EA0534084DA84201
:1030A00002D0084DA84204D14D6922F4804242EA80
:1030B00085124260C36149680164046230BD00004A
:1030C000002C01400034014010B5036A046A24F06A
:1030D00001040462846924F0F00444EA021423F039
:1030E0000A020A438461026210BD10B5036A046AD1
:1030F00024F010040462846923F0A00324F47044D3
:1031000044EA023243EA01118261016210BD10B546
:10311000406A0021C185C184FFF708FA10BD01682B
:103120000C3151E8002F22F4907241E80023002B6B
:10313000F5D10168143151E8002F22F0010241E875
:103140000023002BF5D1016B012909D101680C3155
:1031500051E8002F22F0100241E80023002BF5D1A6
:10316000202180F8421000210163704708B590F8D3
:103170004210222901D0022008BD82684FF48053FA
:103180009A4201D1016921B1816A9A421BD04AB1A8
:103190000AE00268816A5268C2F308020A80816A02
:1031A000891C08E0026972B10268526802F07F026D
:1031B0000A70816A491C8162C18D491E0904090C8B
:1031C000C18503D01BE002685268F1E70168CA6854
:1031D00022F02002CA600168CA6822F48072CA60C4
:1031E00001684A6922F001024A61202180F84210F8
:1031F00000214163026B012A03D0FFF74FFB00203F
:1032000008BD016301680C3151E8002F22F0100263
:1032100041E80023002BF5D101680A68D20602D5E7
:103220000A6849680091818DFFF77FF9E7E70000A0
:1032300070B5044600680169E26821F44051114309
:1032400001612169A0680843616908432168CA686F
:1032500041F20C639A430243CA6020684169A26943
:1032600021F44071114341611E492068884202D116
:10327000FEF766FC01E0FEF753FC00EBC00101EB3A
:103280000012606864218000B2FBF0F3B3FBF1F33D
:103290006FF018067343B2FBF0F5B2FBF0F605EBE6
:1032A0008305322303EB0515B5FBF1F5B6FBF1F60B
:1032B00005F0F00505EB0615B2FBF0F6B2FBF0F0F9
:1032C000B0FBF1F06FF01802504306EB800003EB07
:1032D0000010B0FBF1F0216800F00F002844886076
:1032E00070BD00000038014081628285C2850021E6
:1032F0004164222180F84210016921B10168CA6845
:1033000042F48072CA6001684A6942F001024A616F
:103310000068C16841F02001C160002070472DE9BC
:10332000F843984617460D460446089E24E0701C54
:1033300022D0FEF7EFF9A0EB0800B0421AD8CEB1C8
:103340002068C168490717D5802D15D0402D13D0AE
:103350000168C94309070FD401680025406800903F
:103360002046FFF7DCFE0820606484F8405001200E
:10337000BDE8F8830320FBE72068006835EA000019
:1033800004D00020B842D2D00020F1E70120F9E7B4
:103390000148FFF7CDB8000078010020FEE70000EB
:1033A0000FB4054B10B503A9044A029800F028F8A1
:1033B00010BC5DF814FB0000553500082400002007
:1033C0000907090E002804DB00F1E02080F8001452
:1033D000704700F00F0000F1E02080F8141D7047E6
:1033E00002E008C8121F08C1002AFAD170477047CE
:1033F000002001E001C1121F002AFBD1704700002C
:103400002DE9FF4F89B09B460446002506E025289C
:103410000BD05A460B999047641C6D1C20780028ED
:10342000F5D10DB02846BDE8F08F0027B84601223F
:10343000474900E0074314F8013F203B02FA03F03C
:103440000842F7D120782E2819D114F8010F47F03F
:1034500004072A280ED06FF02F022078A0F1300147
:1034600009290CD808EB880102EB410100EB0108A7
:10347000641CF2E70A98641C50F8048B0A902078C8
:103480000028CED0642808D0692806D075281ED020
:103490005A460B9990476D1C58E00A994FF00A095B
:1034A00001C90A91002802DA40422D2102E03905C3
:1034B00004D52B218DF82010012103E0F90704D059
:1034C0002021F7E78A4608AE0DE00021FAE70A99C5
:1034D0004FF00A0901C90A91F7E74946FDF714F8C8
:1034E000303106F8011D0028F7D1ADEB060000F1E0
:1034F0002009780701D44FF00108C84502DDA8EB88
:10350000090000E000208046002706E008A85A468F
:10351000C05D0B9990476D1C7F1C5745F6DB04E09E
:1035200030205A460B9990476D1CB8F10001A8F164
:103530000108F5DC05E016F8010B5A460B99904797
:103540006D1CB9F10001A9F10109F4DC641C65E707
:103550000928010013B54FF0FF33012269460248E4
:10356000FFF7C8F900981CBD780100208CB0FEF769
:10357000DFF8FFF730FCFFF789FA8F48416941F027
:10358000010141614069002200F0010000901146F4
:103590000B20FEF72BF90B20FEF71AF9FFF7D8FAEC
:1035A000FFF76CFBFFF79EFBFFF714FAFFF7CEFB6C
:1035B000FFF732FB81A003AB07C883E8070082A0B6
:1035C00009AB07C883E8070001A8FDF747F9DFF852
:1035D0000482DFF804B2DFF80492814C0026DFF8A1
:1035E00004A2814DFFF7D8F998F80000474601285A
:1035F00025D1002220215846FEF787F801A8FDF7C3
:103600002DF9012803D078B103280FD011E09DF8DF
:10361000070000909DF806309DF805209DF80410E5
:1036200072A0FFF7BDFE04E07BA000E07FA0FFF7E3
:10363000B7FE012220215846FEF767F83E7099F840
:1036400000004F46012828D17D480069FCF736FF6D
:103650007C4A7D4BFCF751FE0B46024600207B491D
:10366000FCF7BDFE00227A4BFCF741FEFCF733FF6E
:10367000FDF790F9010A8DF811108DF8120007215D
:1036800003A8FDF791F88DF81300000A8DF81400D7
:10369000092103A8FFF780FB3E709AF80000574607
:1036A00000289FD0207820B101281BD0022840D0CC
:1036B0007FE02888801E81B24948FDF775F82968A7
:1036C000214411F8011C41EA0121814271D1607845
:1036D00006286ED1E07805286BD15E486179C0F884
:1036E000941166E02888801E81B23D48FDF75CF8A1
:1036F0002968621832F8022C82425AD16078062872
:103700000AD1E078052854D152486279C0F8942152
:1037100089B23348FFF740FB6078032849D1E0784D
:10372000012846D14FF416724B494C48FDF7CCFBAB
:103730003FE02888801E81B22948FDF735F82968C6
:10374000621832F8022C824233D1607806280AD1FE
:10375000E07805282DD13F486279C0F8942189B2DC
:103760001F48FFF719FB6078032822D1E078012871
:103770001FD101A8FDF772F89DF804008DF827000D
:103780009DF805008DF828009DF806008DF82900A9
:103790009DF807008DF82A00072109A8FDF704F815
:1037A0008DF82B00000A8DF82C00092109A8FFF7DD
:1037B000F3FA2E603E7015E700100240010304008A
:1037C00000000000000000000203040000000000F0
:1037D0000000000008000020000C01400000002054
:1037E0007C0B0020090000201000002048756D6946
:1037F000646974793A2025642E256425252C20548B
:10380000656D70657261747572653A2025642E2548
:1038100064430D0A000000004448543131207265B1
:103820006164206572726F722E0D0A004448543133
:103830003120697320627573792E0D0A0000000033
:10384000640B00209A9999999999F13F00886341F6
:103850000088A340008021420402002028000020AC
:10386000409C0100EE660200A0500300D04304001B
:10387000423B05001635060066300700A62C0800FE
:103880009A29090006270A00E0240B00F6220C0002
:1038900052210D00E01F0E00961E0F006A1D100041
:1038A0005C1C1100621B1200861A1300B41914006C
:1038B000F618150042181600A21717000C1718006A
:1038C00076161900F4151A0072151B00FA141C0064
:1038D0008C141D0028141E00BA131F006013200052
:1038E00006132100AC1222005C1223000C122400EB
:1038F000BC1125007611260030112700EA1028009F
:10390000AE10290072102A0036102B00FA0F2C007E
:10391000C80F2D008C0F2E005A0F2F00280F3000DB
:10392000000F3100CE0E32009C0E3300740E3400B6
:103930004C0E3500240E3600FC0D3700D40D380037
:10394000AC0D3900840D3A00660D3B003E0D3C0085
:10395000200D3D00020D3E00E40C3F00C60C40006F
:103960009E0C41008A0C42006C0C43004E0C44003B
:10397000300C4500120C4600FE0B4700E00B4800DF
:10398000CC0B4900AE0B4A009A0B4B007C0B4C0051
:10399000680B4D00540B4E00400B4F00220B5000A3
:1039A0000E0B5100FA0A5200E60A5300D20A5400E4
:1039B000BE0A5500AA0A5600960A5700820A580005
:1039C000780A5900640A5A00500A5B003C0A5C00FD
:1039D000320A5D001E0A5E000A0A5F00000A6000EB
:1039E000EC096100E2096200CE096300BA096400D3
:1039F000B00965009C0966009209670088096800A3
:103A0000740969006A096A0056096B004C096C0068
:103A100042096D0038096E0024096F001A09700010
:103A200010097100FC087200F2087300E8087400C5
:103A3000DE087500D4087600CA087700B60878005A
:103A4000AC087900A2087A0098087B008E087C00F8
:103A500084087D007A087E0070087F006608800078
:103A60005C08810052088200480883003E088400F8
:103A7000340885002A088600200887001608880078
:103A80000C08890002088A00F8078B00EE078D00F9
:103A9000E4078E00DA078F00D0079000C607910078
:103AA000BC079300B2079400A80795009E079600F4
:103AB000940798008A07990080079A0076079B0070
:103AC0006C079D0062079E005807A0004E07A100EA
:103AD0004407A2003A07A4003007A5002607A70064
:103AE0001C07A8001207AA000807AB00FE06AD00DD
:103AF000F406AF00EA06B000E006B200D606B40055
:103B0000CC06B500C206B700B806B900AE06BB00C9
:103B1000A406BC009A06BE009006C0008606C2003D
:103B20007C06C4007206C6006806C8005E06CA00AD
:103B30005406CC004A06CE004006D0003606D2001D
:103B40002C06D4002206D7001806D9000E06DB008A
:103B50000406DE00FA05E000F005E200E605E500F7
:103B6000DC05E700D205EA00C805ED00BE05EF0060
:103B7000B405F200AA05F500A005F8009605FA00C4
:103B80008C05FD0082050001780503016E05060124
:103B900064050A015A050D0150051001460513017F
:103BA0003C05170132051A0128051E011E052101D9
:103BB000140525010A05290100052C01F604300130
:103BC000EC043401E2043801D8043D01CE04410183
:103BD000C4044501BA044A01B0044E01A6045301CD
:103BE0009C04580192045C01880461017E04660112
:103BF00074046C016A0471016004760156047C014E
:103C00004C0482014204870138048D012E04930183
:103C100024049A011A04A0011004A7010604AE01AD
:103C2000FC03B401F203BC01E803C301DE03CA01D3
:103C3000D403D201CA03DA01C003E201B603EB01E7
:103C4000AC03F301A203FC01980305028E030E02EC
:103C5000840318027A03220270032C0266033702DF
:103C60005C03420252034D02480358023E036402C1
:103C7000340371022A037D0220038A02160398028C
:103C80000C03A6020203B402F802C302EE02D3023E
:103C9000E402E302DA02F402D0020503C6021703CB
:103CA000BC022903B2023D03A80251039E02650330
:103CB00094027B038A0292038002A9037602C10365
:103CC0006C02DB0300C1814001C0804101C0804122
:103CD00000C1814001C0804100C1814000C18140DC
:103CE00001C0804101C0804100C1814000C18140CC
:103CF00001C0804100C1814001C0804101C08041BC
:103D000000C1814001C0804100C1814000C18140AB
:103D100001C0804100C1814001C0804101C080419B
:103D200000C1814000C1814001C0804101C080418B
:103D300000C1814001C0804100C1814000C181407B
:103D400001C0804101C0804100C1814000C181406B
:103D500001C0804100C1814001C0804101C080415B
:103D600000C1814000C1814001C0804101C080414B
:103D700000C1814001C0804100C1814000C181403B
:103D800001C0804100C1814001C0804101C080412B
:103D900000C1814001C0804100C1814000C181401B
:103DA00001C0804101C0804100C1814000C181400B
:103DB00001C0804100C1814001C0804101C08041FB
:103DC00000C1814000C0C101C30302C2C60607C7CB
:103DD00005C5C404CC0C0DCD0FCFCE0E0ACACB0B3B
:103DE000C90908C8D81819D91BDBDA1A1EDEDF1F6B
:103DF000DD1D1CDC14D4D515D71716D6D21213D35B
:103E000011D1D010F03031F133F3F23236F6F7370A
:103E1000F53534F43CFCFD3DFF3F3EFEFA3A3BFBFA
:103E200039F9F83828E8E929EB2B2AEAEE2E2FEFAA
:103E30002DEDEC2CE42425E527E7E62622E2E3231A
:103E4000E12120E0A06061A163A3A26266A6A7674A
:103E5000A56564A46CACAD6DAF6F6EAEAA6A6BABBA
:103E600069A9A86878B8B979BB7B7ABABE7E7FBFEA
:103E70007DBDBC7CB47475B577B7B67672B2B373DA
:103E8000B17170B05090915193535292965657978A
:103E9000559594549C5C5D9D5F9F9E5E5A9A9B5B7A
:103EA00099595898884849894B8B8A4A4E8E8F4F2A
:103EB0008D4D4C8C4484854587474686824243839A
:103EC00041818040010202030405060708090A0B2C
:103ED0000C0D0E0F1010010202030405060708095D
:103EE0000A0B0C0D0E0F1010000000000000000067
:103EF0000102030406070809000000000102030490
:103F0000203F00080000002028000000E0330008E7
:103F1000483F00082800002058130000F033000834
:103F20000000000000000000000000000000000091
:103F30000000000001000000100000000000000070
:083F400000127A0000000000ED
:0400000508000131BD
:00000001FF
