:020000040800F2
:1000000070060020CD010008AD020008A50200081E
:10001000A902000887020008BF02000800000000D3
:10002000000000000000000000000000B302000813
:100030008B02000800000000B1020008B5020008B1
:10004000E7010008E7010008E7010008E7010008F0
:10005000E7010008E7010008E7010008E7010008E0
:10006000E7010008E7010008E7010008E7010008D0
:10007000E7010008E7010008E7010008E7010008C0
:10008000E7010008E7010008E7010008E7010008B0
:10009000E7010008E7010008E7010008E7010008A0
:1000A000E7010008E7010008E7010008E701000890
:1000B000E7010008E7010008E7010008E701000880
:1000C000E7010008E7010008E7010008E701000870
:1000D000E7010008E7010008E7010008E701000860
:1000E000E7010008E7010008E7010008E701000850
:1000F000E7010008E7010008E7010008E701000840
:10010000E7010008E7010008E7010008E70100082F
:10011000E7010008E7010008E7010008E70100081F
:10012000E7010008E7010008E7010008E70100080F
:1001300000F002F800F03AF80AA090E8000C8244BF
:100140008344AAF10107DA4501D100F02FF8AFF29C
:10015000090EBAE80F0013F0010F18BFFB1A43F0A5
:1001600001031847E001000000020000103A24BF1C
:1001700078C878C1FAD8520724BF30C830C144BF0C
:1001800004680C607047000000230024002500264E
:10019000103A28BF78C1FBD8520728BF30C148BFEA
:1001A0000B6070471FB51FBD10B510BD00F031F8D2
:1001B0001146FFF7F7FF00F08BF800F04FF803B49B
:1001C000FFF7F2FF03BC00F057F800000948804732
:1001D00009480047FEE7FEE7FEE7FEE7FEE7FEE729
:1001E000FEE7FEE7FEE7FEE704480549054A064B41
:1001F00070470000BD0200083101000870000020B7
:1002000070060020700200207002002070477047C6
:100210007047754600F02CF8AE4605006946534617
:1002200020F00700854618B020B5FFF7DDFFBDE8D8
:1002300020404FF000064FF000074FF000084FF04D
:10024000000B21F00701AC46ACE8C009ACE8C009DE
:10025000ACE8C009ACE8C0098D46704710B504464B
:10026000AFF300802046BDE81040FFF7A8BF0000B4
:10027000004870470C00002001491820ABBEFEE783
:1002800026000200704700BFFEE770470348006881
:1002900003490978084401490860704700000020BC
:1002A0000800002000BFFEE700BFFEE700BFFEE73A
:1002B0007047704710B5FFF7E9FF10BD704700BFEA
:1002C000FEE700BF011EA0F10100FBD17047000056
:1002D0001948806940F0080017498861174800688C
:1002E00020F0FF00154908600846006840F0220031
:1002F000086020E011480C30006840F001000F4910
:100300000C3108600846006820F0020008604FF6D3
:10031000FF70FFF7D6FF09480C30006840F002007C
:1003200006490C3108600846006820F001000860AA
:100330000348FFF7C6FFDDE700100240000C014054
:10034000FFFF0F0064030008000000200C00000005
:100350006C010008700300080C0000206406000017
:1003600088010008000000001000000001000000EB
:0400000508000131BD
:00000001FF
