:020000040800F2
:10000000F004002045010008D31500085D14000825
:10001000D1150008DD010008A91900080000000042
:10002000000000000000000000000000D7150008DC
:10003000DF01000800000000D5150008D9150008F0
:100040005F0100085F0100085F0100085F01000810
:100050005F0100085F0100085F0100085F01000800
:100060005F0100085F0100085F0100085F010008F0
:100070005F0100085F0100085F0100085F010008E0
:100080005F0100085F0100085F0100085F010008D0
:100090005F0100085F0100085F0100085F010008C0
:1000A0005F0100085F0100085F0100085F010008B0
:1000B0005F0100083D1600085F0100085F010008AD
:1000C0005F0100085F0100085F0100085F01000890
:1000D0005F0100089D1900085F0100085F0100082A
:1000E0005F0100085F0100085F0100085F01000870
:1000F0005F0100085F0100085F0100085F01000860
:100100005F0100085F0100085F0100085F0100084F
:100110005F0100085F0100085F0100085F0100083F
:100120005F0100085F0100085F0100085F0100082F
:10013000DFF80CD000F040F800480047791B0008B9
:10014000F00400200648804706480047FEE7FEE727
:10015000FEE7FEE7FEE7FEE7FEE7FEE7FEE7FEE777
:100160003B16000831010008D2B201E000F8012B73
:10017000491EFBD270470022F6E710B513460A4627
:1001800004461946FFF7F0FF204610BD30B50B4678
:10019000014600202022012409E021FA02F59D42B7
:1001A00005D303FA02F5491B04FA02F52844151E8B
:1001B000A2F10102F1DC30BD064C074D06E0E0681B
:1001C00040F0010394E8070098471034AC42F6D39E
:1001D000FFF7B2FF701C0008901C0008FEE7704794
:1001E00010B590F821100022022905D00421816366
:1001F00080F82020012010BD01680B6823F00E0359
:100200000B6001680B6823F001030B6090F840302D
:10021000C46B012101FA03F3636080F8211080F8B8
:100220002020104610BD00002DE9F05F90F821104D
:100230000024022903D004218163012485E00168A0
:100240000A6822F00E020A6001680A6822F00102C0
:100250000A603F4E3E4FB215DFF8F4C0DFF8F09071
:10026000DFF8ECA0DFF8E8B0DFF8E4E00168783F01
:1002700013011502ACF1640CA9F15009AAF13C0A72
:10028000ABF1280BAEF1140E4FF48018B14227D910
:10029000B9420ED0614512D049451DD0514518D004
:1002A000594518D0714501D1424615E0294EB14259
:1002B00001D1012210E0274E1436B14201D11022A3
:1002C0000AE0244E2836B14206D0224A3C329142FE
:1002D00001D11A4600E02A461E49091F0A602BE098
:1002E000B94213D0614517D0494522D051451DD0A0
:1002F00059451DD0714501D142461AE0B14202D1A3
:100300004FF0807215E0134EB14201D1012210E08E
:10031000104E1436B14201D110220AE00D4E28369B
:10032000B14206D00B4A3C32914201D11A4600E05C
:100330002A46074980394A60012180F821100021AE
:1003400080F82010416B01B188472046BDE8F09F3E
:10035000800002400804024070B5044600F014F921
:100360000546601C02D004480078044400F00CF9F3
:10037000401BA042FAD370BD040000202DE9F84FC5
:10038000DFF8C8910024A9F1040B23460F2709F1D7
:10039000040AABF1040ED1E00125A54006EA0502EE
:1003A000AA4276D1DFF8A8C14E68A6EB0C086645D4
:1003B0002BD00DDC032E34D005DC36B3012E19D042
:1003C000022E2FD11BE0112E16D0122E2AD119E0A9
:1003D000B8F5881F19D006DCB8F5803F15D0B8F500
:1003E000801F1FD111E0B8F5001F0ED0B8F5041F13
:1003F00018D10AE0CB6815E0CB681B1D12E0CB6872
:1004000008330FE0CB680C330CE08B682BB1012B69
:100410004FF0080303D0456104E0042302E00561C6
:1004200000E00023FF2A01D8064601E000F104069F
:100430004FEA840501D9A5F12005D6F8008007FA16
:1004400005FC28EA0C0803FA05F548EA0508C6F891
:1004500000804D68ED0070D53E4DAE6946F0010656
:10046000AE61AD6924F0030605F0010500953A4D33
:1004700006EB050CDCF80850A607360F07FA06F85D
:1004800025EA0805DFF8D480404503D14FF0000885
:1004900025E052E0DFF8C880404502D14FF0010866
:1004A0001DE0DFF8C080404502D14FF0020816E0A1
:1004B000DFF8B480404502D14FF003080FE0DFF8C9
:1004C000AC80404502D14FF0040808E0DFF8A0807E
:1004D000404502D14FF0050801E04FF0060808FA48
:1004E00006F848EA0508CCF808804D68D9F800609D
:1004F000ED024D4601D5164300E096432E604D684F
:10050000DAF80060AD02554601D5164300E0964387
:100510002E604D68DBF80060AD035D4601D51643E3
:1005200000E096432E604D68DEF80060ED037546EE
:1005300001D5164300E096432E60641C0A681646F7
:10054000E2407FF429AFBDE8F88F000008040140C5
:10055000000011100010024000000140000801409E
:10056000000C01400010014000140140001801403F
:10057000001C01408068084000D0012070470AB18B
:10058000016170470904FBE701488068704700007B
:10059000040000200248816802781144816070479D
:1005A00004000020074810B5016841F01001016007
:1005B000032000F075F80F2000F006F800F024F892
:1005C000002010BD0020024070B50D4D04464FF4D0
:1005D0007A712878B1FBF0F00A490968B1FBF0F0B4
:1005E00000F0DCFA48B9102C07D200222146501E38
:1005F00000F036F800206C6070BD012070BD000076
:1006000004000020100000200C4808B5816941F06A
:1006100001018161816901F001010091C16941F02D
:100620008051C161C06900F0805000900448416869
:1006300021F0E06141F00071416008BD001002400E
:1006400000000140002809DB00F01F020121914059
:100650004009800000F1E020C0F800117047000060
:10066000F0B40E4B1B680C46C3F30223C3F107051D
:10067000042D00D90425191D072901D2002300E00B
:10068000DB1E012606FA05F1491E214099409E40D5
:10069000761E16403143F0BC01F098B90CED00E035
:1006A000064900F0070208684FF6FF03184040EAC9
:1006B0000220034A10430860704700000CED00E080
:1006C0000000FA052DE9F0470F46050061D0434EC2
:1006D000306800F00700B84209D2306820F0070007
:1006E00038433060306800F00700B84251D12868C4
:1006F0003B4C810712D5400703D5606840F4E060A9
:1007000060602878000703D5606840F4605060603E
:100710006068A96820F0F000084360602878C0078E
:1007200028D06868012810D02168022810D08907D5
:1007300000292EDA616821F0030101436160FFF7AF
:1007400023FF804641F288390DE021688903EFE7F5
:100750008901EDE7FFF718FFA0EB0801494502D931
:100760000320BDE8F0876068696800F00C00B0EB1A
:10077000810FEFD1306800F00700B8420BD9306824
:1007800020F0070038433060306800F00700B842BE
:1007900001D00120E5E72878400705D56068E968C1
:1007A00020F4E060084360602878000706D56068A0
:1007B000296920F4605040EAC100606000F038F818
:1007C0006168084AC1F30311515CC84006490860DA
:1007D00006480068FFF7F8FE0020C2E7002002404C
:1007E00000100240561C00081000002008000020E5
:1007F0000448054900684968044AC1F30221515C74
:10080000C84070471000002000100240661C00081D
:100810000448054900684968044AC1F3C221515C93
:10082000C84070471000002000100240661C0008FD
:100830000E4A51680E4801F00C03042B11D0082B0E
:100840000FD10C48C1F38343C903C05C0AD551687A
:10085000084AC1F34041921E515C054A5043B0FB27
:10086000F1F070470449484370470000001002400F
:1008700000127A00461C000800093D002DE9F84FDF
:10088000040070D02078C04DC00749D06868C0F31C
:100890008100012807D06868C0F38100022809D1CF
:1008A0006868C00306D52868800339D560680028C9
:1008B000E7D035E06068B0F5803F0BD010B1B0F5FF
:1008C000A02F11D0286820F480302860286820F4F8
:1008D000802002E0286840F480302860606890B191
:1008E000FFF752FE06460AE0286840F480202860A0
:1008F000F0E700BFFFF748FE801B642873D8286824
:100900008003F7D50CE0FFF73FFE064605E000BF89
:10091000FFF73AFE801B6428F0D828688003F7D4DC
:1009200020789A4E80074FF001094FF0000839D522
:10093000686810F00C0F07D06868C0F381000228C7
:1009400009D16868C00306D42868800714D52069D7
:10095000012808D110E02069B0B1C6F80090FFF777
:1009600013FE074605E00AE1FFF70EFEC01B022852
:10097000C4D828688007F7D52868616920F0F80096
:1009800040EAC10028600DE0C6F80080FFF7FCFDDA
:10099000074604E0FFF7F8FDC01B022823D82868AB
:1009A0008007F7D4207800072CD57948A169D9B100
:1009B000C0F80090FFF7E8FD074604E0FFF7E4FD0C
:1009C000C01B02280FD8686A8007F7D571484FF41A
:1009D000FA510068B0FBF1F0009000BF0098411E92
:1009E0000091FAD20EE080E0C0F80080FFF7CCFD65
:1009F000074604E0FFF7C8FDC01B022875D8686AE7
:100A00008007F7D42078400760D5E8690027C00048
:100A100008D4E86940F08050E861E869012700F0F7
:100A2000805000905C480168C90513D40168834672
:100A300041F480710160FFF7A7FD824606E000BF28
:100A4000FFF7A2FDA0EB0A0064284ED8DBF80000F7
:100A5000C005F5D5E06801280AD008B1052813D0F3
:100A6000286A20F001002862286A20F0040002E0D1
:100A7000286A40F001002862E06841F2883B98B1A2
:100A8000FFF782FD82460BE0286A40F004002862EE
:100A9000EEE700BFFFF778FDA0EB0A0159455AD8F1
:100AA000286A8007F6D50CE0FFF76EFD824605E068
:100AB000FFF76AFDA0EB0A0159454CD8286A800768
:100AC000F6D41FB1E86920F08050E861E06988B38E
:100AD0006968C1F38101022944D00228C6F8608008
:100AE00004D0FFF751FD044638E034E0FFF74CFD39
:100AF000074604E0FFF748FDC01B02282BD82868F2
:100B00008001F7D4206AB0F5803F05D16868A168FC
:100B100020F4003008436860D4E90801084369689C
:100B200021F4741108436860C6F86090FFF72CFD4B
:100B3000044606E025E000BFFFF726FD001B022863
:100B400009D828688001F7D51BE000BFFFF71CFD1E
:100B5000001B022802D90320BDE8F88F2868800115
:100B6000F4D40EE00128F7D06868226A00F48031DE
:100B7000914204D1616A00F47010884201D00120D2
:100B8000EAE70020E8E700000010024000004242CF
:100B900080044242100000200070004010B5401E4A
:100BA000B0F1807F01D3012010BD4FF0E0246061DF
:100BB0000F21601700F00AFF0020A06107202061CC
:100BC000002010BD7047704770B590F83C20012A96
:100BD0002CD0012480F83C40022280F83D2003689C
:100BE0005A689D6822F070060A6832435A60104BBA
:100BF00002689A420ED00F4B9A420BD0B2F1804F4E
:100C000008D00D4B9A4205D00C4B9A4202D00C4BA7
:100C10009A4204D1496825F080031943916080F815
:100C20003D40002180F83C10084670BD022070BD98
:100C3000002C014000340140000400400008004046
:100C4000000C004010B5040003D094F83D0010B132
:100C500007E0012010BD002084F83C00204600F091
:100C60001FF8022084F83D00211D206800F0ECFCF4
:100C7000012084F8460084F83E0084F83F0084F8A0
:100C8000400084F8410084F8420084F8430084F86E
:100C9000440084F8450084F83D00002010BD0000A9
:100CA00000B585B000210091019102910391184A8D
:100CB00001681848914217D1816941F4006181614E
:100CC000816901F400610491816941F0040181614D
:100CD0008069694600F004000490901400900E486A
:100CE000FFF74CFB05B000BD0C4A9142FAD1C16937
:100CF00041F00201C161C069002200F002000490CD
:100D000009211D20FFF7ACFC1D20FFF79BFCE9E744
:100D1000002C014000100240000801400004004087
:100D200090F83D10012901D001207047022180F880
:100D30003D1000680E4988420ED00E4988420BD003
:100D4000B0F1804F08D00C49884205D00B49884249
:100D500002D00B49884204D1816801F007010629BD
:100D600003D0016841F001010160002070470000DC
:100D7000002C014000340140000400400008004005
:100D8000000C004090F83D10012901D0012070476F
:100D9000022180F83D100168CA6842F00102CA6071
:100DA00000680E4988420ED00D4988420BD0B0F140
:100DB000804F08D00B49884205D00B49884202D0A9
:100DC0000A49884204D1816801F00701062903D04D
:100DD000016841F00101016000207047002C0140D2
:100DE000003401400004004000080040000C0040B6
:100DF00070B5044690F83C000025012817D0012664
:100E000084F83C60022084F83D002068826822F06B
:100E1000770222F47F4282600868502838D00DDCC7
:100E200020284FD005DC90B3102811D14AE00220D1
:100E300070BD302846D040280AD13BE060282FD032
:100E400070280DD0B0F5805F03D0B0F5005F12D0F0
:100E5000012584F83D60002084F83C00284670BDE0
:100E6000CB68D1E90121206800F03CFC2068816852
:100E700041F0770109E0CB68D1E90121206800F059
:100E800031FC2068816841F480418160E1E719E02C
:100E9000CA684968206800F037FC5021206806E0E5
:100EA000CA684968206800F040FC6021206800F0B2
:100EB00023FCCEE7CA684968206800F025FC402181
:100EC0002068F4E7226801461046F0E770472DE9F4
:100ED000F04104460068C66805694FF00007A9079D
:100EE00013D5B10711D5F91E0161012020772068C3
:100EF00080698007204602D0FFF7E8FF04E000F099
:100F00007EF8204600F07CF82777680716D5700732
:100F100014D521686FF00400086102202077206852
:100F2000806910F4407F204602D0FFF7CFFF04E035
:100F300000F065F8204600F063F82777280715D5FC
:100F4000300713D521686FF008000861042020776E
:100F50002068C0698007204602D0FFF7B7FF04E091
:100F600000F04DF8204600F04BF82777E80616D53C
:100F7000F00614D521686FF0100008610820207772
:100F80002068C06910F4407F204602D0FFF79EFF22
:100F900004E000F034F8204600F032F82777E80744
:100FA00008D0F00706D021686FF0010008612046E4
:100FB00000F028F8280608D5300606D521686FF01D
:100FC000800008612046FFF7FDFD680608D5700621
:100FD00006D521686FF040000861204600F040F817
:100FE000A8060AD5B00608D521686FF02000086170
:100FF0002046BDE8F041FFF7E6BDBDE8F08170474F
:101000007047000070B5124988420FD1114C124848
:101010000125217859B1002601290FD0022905D1D7
:101020000121FFF7A7FA002800D1267070BD012129
:10103000FFF7A0FA0128F9D1257070BD0121FFF753
:1010400099FA0128F1D1022020700448057070BD82
:101050006000002000000020000801400100002086
:101060007047704770470000F8B50168044608688B
:10107000CA684B6910F00F0F4FF0000559D003F00C
:10108000010602F49077374365D0C10705D0D1053A
:1010900003D5616C41F001016164410705D5D907B1
:1010A00003D0616C41F002016164810705D5D90765
:1010B00003D0616C41F004016164010707D502F0BF
:1010C0002001314303D0616C41F008016164616C1F
:1010D00000293AD0800604D5900602D5204600F0BB
:1010E00065FB20684069616CC0F38010090700D47B
:1010F00060B3204600F033FB20684069400621D5EC
:101100002068143050E8001F21F0400140E8001230
:10111000002AF5D1E06BA8B16D494163E06BFFF7A0
:1011200083F8002811D0E06B416B01B0BDE8F040BE
:10113000084783060FD593060DD52046BDE8F84035
:1011400000F034BB2046FFF78DFFF8BD2046FFF7C7
:1011500089FF6564F8BD266B2023012E7CD1C6066D
:101160007AD5D60678D508684868009048694FF067
:101170000206400640D5E16B086840680004000C98
:10118000E8D0A28D8242E5D9E085886920282DD05B
:1011900020680C3050E8001F21F4807140E80012F4
:1011A000002AF5D12068143050E8001F21F0010119
:1011B00040E80012002AF5D12068143050E8001FE2
:1011C00021F0400140E80012002AF5D184F84230B5
:1011D000256320680C3050E8001F21F0100140E822
:1011E0000012002AF5D1E06BFEF7FAFF6663A08DCE
:1011F000E18D401A81B22AE0A08DE18D401A81B2C2
:10120000E08D0028A6D00029A4D022680C3252E834
:10121000000F20F4907042E80007002FF5D12068FD
:10122000143050E8002F22F0010240E80027002F80
:10123000F5D184F84230256320680C3050E8002F47
:1012400022F0100240E80023002BF5D1666320460F
:10125000FFF707FFF8BDFFE705062BD5150629D5D3
:1012600094F841002128F5D1A068B0F5805F01D144
:101270002069B0B1206A411C216221680078486071
:10128000E08C401E0004000CE084E3D12068C168BB
:1012900021F08001C1602068C16841F04001C16057
:1012A000D8E7206A0088C0F308004860206A801CE4
:1012B0002062E5E74006CDD55006CBD5CA6820466A
:1012C00022F04002CA6084F8413000F0C6F8C1E75D
:1012D0004F17000870B5040004D094F841000025B1
:1012E00010B106E0012070BD84F84050204600F0A7
:1012F00023F8242084F841002068C16821F40051BB
:10130000C160204600F0B4FA2068016921F49041E0
:1013100001612068416921F02A0141612068C168AA
:1013200041F40051C1606564202084F8410084F8D4
:1013300042006563002070BD30B585B00024009484
:101340000194029403940068184988422CD11848EB
:10135000816941F480418161816901F48041049196
:10136000816941F0040181618069124D00F004003F
:1013700004904FF40070009002200190032003902D
:1013800069462846FEF7FAFF2815CDE900046946AC
:1013900028460294FEF7F2FF00220A212520FFF7DB
:1013A0005FF92520FFF74EF905B030BD0038014048
:1013B000001002400008014070472DE9F843044640
:1013C00090F84100984616460D46202802D002208B
:1013D000BDE8F88385B17EB100206064212084F8E7
:1013E0004100FFF7D1F8A6848146E684A068202753
:1013F000B0F5805F02D003E00120E9E7206910B179
:101400002E4600250EE000260CE08021204600F04C
:101410008BFAA8B9C6B116F8010B21684860E08CB8
:10142000401EE084E08C4B464FF00002CDF8008077
:101430000028EAD14FF04001204600F075FA40B193
:1014400084F841700320C3E735F8020BC0F30800AD
:10145000E3E784F841700020BAE77047FEE7000038
:10146000F0B585B000241F480094019402940394C1
:10147000816941F010018161816901F010010491DD
:10148000816941F004018161816901F004010491E5
:10149000816941F0080181618069134F00F0080003
:1014A0000490012223213846FFF769F878140225B9
:1014B0008DE8310069460D48FEF760FF0126009671
:1014C00069460B48CDE90145FEF758FF2320CDE9D9
:1014D00000060320CDE9024069463846FEF74EFF7C
:1014E00005B0F0BD00100240000C014000100140AA
:1014F0000008014010B586B00024194800940194FA
:1015000002940394049415490594C0E900144FF61D
:10151000FF71C0E90241046144618461FFF792FBFD
:1015200008B172B6FEE74FF40050CDE90004029412
:1015300069460B480394FFF75BFC08B172B6FEE7FF
:10154000049404A906480594FFF73EFB08B172B65F
:10155000FEE70348FFF7E4FB06B010BD002C014096
:101560001800002010B586B000241848009401949B
:1015700002940394049414490594016041F61F41B8
:10158000C0E901146321C0E903148461FFF75AFB29
:1015900008B172B6FEE74FF48050009069460B48E0
:1015A000FFF726FC08B172B6FEE7049404A90748C9
:1015B0000594FFF709FB08B172B6FEE70348FFF791
:1015C000E1FB06B010BD00000004004060000020F8
:1015D000FEE7FEE770477047FEF7DCBF30B58FB01F
:1015E00028216846FEF7C7FD14210AA8FEF7C3FDAF
:1015F00001210804CDE90010002402940225049181
:10160000CDE907504FF4E01009906846FFF736F92E
:1016100008B172B6FEE70F20CDE90A054FF48060ED
:10162000CDE90C4002210AA80E94FFF74BF80028E0
:1016300001D072B6FEE70FB030BD70470148FFF72A
:1016400046BC000060000020F0B50268204C214D2F
:10165000214E224F224B4FF0804CA04209D098429D
:1016600007D0604505D0A84203D0B04201D0B842AF
:1016700004D122F0700E4A6842EA0E02A04209D05C
:10168000984207D0604505D0A84203D0B04201D0AF
:10169000B84203D122F44075CA682A434D6922F04A
:1016A00080022A4302608A68C2620A688262A0429B
:1016B00001D0984201D109690163012141610169A9
:1016C000C90703D0016921F001010161F0BD0000EB
:1016D000002C01400004004000080040000C0040C5
:1016E0000034014010B5846842EA032224F47F44A8
:1016F0000A432243826010BD826822F070020A43CE
:1017000042F007018160704710B5036A046A24F053
:1017100001040462846924F0F00444EA021423F012
:101720000A020A438461026210BD10B5036A046AAA
:1017300024F010040462846923F0A00324F47044AC
:1017400044EA023243EA01118261016210BD10B520
:10175000406A0021C185C184FFF784FC10BD016887
:101760000C3151E8002F22F4907241E80023002B45
:10177000F5D10168143151E8002F22F0010241E84F
:101780000023002BF5D1016B012909D101680C312F
:1017900051E8002F22F0100241E80023002BF5D180
:1017A000202180F8421000210163704708B590F8AD
:1017B0004210222901D0022008BD82684FF48053D4
:1017C0009A4201D1016921B1816A9A421BD04AB182
:1017D0000AE00268816A5268C2F308020A80816ADC
:1017E000891C08E0026972B10268526802F07F0247
:1017F0000A70816A491C8162C18D491E0904090C65
:10180000C18503D01BE002685268F1E70168CA682D
:1018100022F02002CA600168CA6822F48072CA609D
:1018200001684A6922F001024A61202180F84210D1
:1018300000214163026B012A03D0FFF7BDFD0020A8
:1018400008BD016301680C3151E8002F22F010023D
:1018500041E80023002BF5D101680A68D20602D5C1
:101860000A6849680091818DFFF7FBFBE7E70000FC
:1018700070B5044600680169E26821F440511143E3
:1018800001612169A0680843616908432168CA6849
:1018900041F20C639A430243CA6020684169A2691D
:1018A00021F44071114341611E492068884202D1F0
:1018B000FEF7AEFF01E0FEF79BFF00EBC00101EB7E
:1018C0000012606864218000B2FBF0F3B3FBF1F317
:1018D0006FF018067343B2FBF0F5B2FBF0F605EBC0
:1018E0008305322303EB0515B5FBF1F5B6FBF1F6E5
:1018F00005F0F00505EB0615B2FBF0F6B2FBF0F0D3
:10190000B0FBF1F06FF01802504306EB800003EBE0
:101910000010B0FBF1F0216800F00F00284488604F
:1019200070BD0000003801402DE9F8439846174685
:101930000D460446089E24E0701C22D0FEF724FECB
:10194000A0EB0800B0421AD8CEB12068C1684907A0
:1019500017D5802D15D0402D13D00168C943090734
:101960000FD401680025406800902046FFF7F7FE7D
:101970000820606484F840500120BDE8F88303200B
:10198000FBE72068006835EA000004D00020B84278
:10199000D2D00020F1E70120F9E700000148FFF76D
:1019A00063BB0000A8000020FEE700000FB4054B59
:1019B00010B503A9044A029800F028F810BC5DF89D
:1019C00014FB0000611B0008140000200907090E29
:1019D000002804DB00F1E02080F80014704700F0DC
:1019E0000F0000F1E02080F8141D704702E008C8E5
:1019F000121F08C1002AFAD170477047002001E089
:101A000001C1121F002AFBD1704700002DE9FF4FD2
:101A100089B09B460446002506E025280BD05A468F
:101A20000B999047641C6D1C20780028F5D10DB0EF
:101A30002846BDE8F08F0027B8460122474900E05C
:101A4000074314F8013F203B02FA03F00842F7D1A4
:101A500020782E2819D114F8010F47F004072A28FE
:101A60000ED06FF02F022078A0F1300109290CD898
:101A700008EB880102EB410100EB0108641CF2E76E
:101A80000A98641C50F8048B0A9020780028CED065
:101A9000642808D0692806D075281ED05A460B99AC
:101AA00090476D1C58E00A994FF00A0901C90A9144
:101AB000002802DA40422D2102E0390504D52B210D
:101AC0008DF82010012103E0F90704D02021F7E769
:101AD0008A4608AE0DE00021FAE70A994FF00A099C
:101AE00001C90A91F7E74946FEF750FB303106F885
:101AF000011D0028F7D1ADEB060000F120097807A1
:101B000001D44FF00108C84502DDA8EB090000E050
:101B100000208046002706E008A85A46C05D0B99C1
:101B200090476D1C7F1C5745F6DB04E030205A4679
:101B30000B9990476D1CB8F10001A8F10108F5DC84
:101B400005E016F8010B5A460B9990476D1CB9F148
:101B50000001A9F10109F4DC641C65E70928010012
:101B600013B54FF0FF33012269460248FFF725FC09
:101B700000981CBDA8000020FEF714FDFFF72EFD05
:101B8000FFF76EFC1C481B49002401604FF4E13153
:101B9000C0E901140C21C460C0E904418461C4613E
:101BA000FFF798FB08B172B6FEE7FFF7DBFCFFF723
:101BB000A1FC12A0FFF7FAFE0F4F1B4D1B4E903FEA
:101BC00028780028FCD02C70002220213046FEF717
:101BD000D6FC0120FEF7C0FB012220213046FEF793
:101BE000CEFC0120FEF7B8FB3868416A10A0FFF771
:101BF000DDFEE5E700380140A80000205072657363
:101C000073204B4559312C20616E64205041313294
:101C10002077696C6C20636F756E742070756C73BF
:101C20006521200D0A00000001000020000C014089
:101C3000496E7075742070756C7365203D20256445
:101C4000200D0A00010202030405060708090A0B19
:101C50000C0D0E0F1010000000000000000001022B
:101C60000304060708090000000001020304000045
:101C7000901C00080000002018000000EC1900086B
:101C8000A81C000818000020D8040000FC19000857
:101C90000000000001000000100000000000000033
:081CA00000127A0000000000B0
:0400000508000131BD
:00000001FF
