:020000040800F2
:10000000B0040020450100087B140008C513000857
:1000100079140008DD0100085118000800000000F4
:100020000000000000000000000000007F14000835
:10003000DF010008000000007D14000881140008A2
:100040005F0100085F0100085F0100085F01000810
:100050005F0100085F0100085F0100085F01000800
:100060005F0100085F0100085F0100085F010008F0
:100070005F0100085F0100085F0100085F010008E0
:100080005F0100085F0100085F0100085F010008D0
:100090005F0100085F0100085F0100085F010008C0
:1000A0005F010008E51400085F0100085F01000817
:1000B0005F0100085F0100085F0100085F010008A0
:1000C0005F0100085F0100085F0100085F01000890
:1000D0005F010008451800085F0100085F01000883
:1000E0005F0100085F0100085F0100085F01000870
:1000F0005F0100085F0100085F0100085F01000860
:100100005F0100085F0100085F0100085F0100084F
:100110005F0100085F0100085F0100085F0100083F
:100120005F0100085F0100085F0100085F0100082F
:10013000DFF80CD000F040F800480047111C000820
:10014000B00400200648804706480047FEE7FEE767
:10015000FEE7FEE7FEE7FEE7FEE7FEE7FEE7FEE777
:10016000E314000831010008D2B201E000F8012BCD
:10017000491EFBD270470022F6E710B513460A4627
:1001800004461946FFF7F0FF204610BD30B50B4678
:10019000014600202022012409E021FA02F59D42B7
:1001A00005D303FA02F5491B04FA02F52844151E8B
:1001B000A2F10102F1DC30BD064C074D06E0E0681B
:1001C00040F0010394E8070098471034AC42F6D39E
:1001D000FFF7B2FF7C1D00089C1D0008FEE770477A
:1001E00010B590F821100022022905D00421816366
:1001F00080F82020012010BD01680B6823F00E0359
:100200000B6001680B6823F001030B6090F840302D
:10021000C46B012101FA03F3636080F8211080F8B8
:100220002020104610BD00002DE9F05F90F821104D
:100230000024022903D004218163012485E00168A0
:100240000A6822F00E020A6001680A6822F00102C0
:100250000A603F4E3E4FB215DFF8F4C0DFF8F09071
:10026000DFF8ECA0DFF8E8B0DFF8E4E00168783F01
:1002700013011502ACF1640CA9F15009AAF13C0A72
:10028000ABF1280BAEF1140E4FF48018B14227D910
:10029000B9420ED0614512D049451DD0514518D004
:1002A000594518D0714501D1424615E0294EB14259
:1002B00001D1012210E0274E1436B14201D11022A3
:1002C0000AE0244E2836B14206D0224A3C329142FE
:1002D00001D11A4600E02A461E49091F0A602BE098
:1002E000B94213D0614517D0494522D051451DD0A0
:1002F00059451DD0714501D142461AE0B14202D1A3
:100300004FF0807215E0134EB14201D1012210E08E
:10031000104E1436B14201D110220AE00D4E28369B
:10032000B14206D00B4A3C32914201D11A4600E05C
:100330002A46074980394A60012180F821100021AE
:1003400080F82010416B01B188472046BDE8F09F3E
:10035000800002400804024070B5044600F010F925
:100360000546601C02D004480078044400F008F9F7
:10037000401BA042FAD370BD080000202DE9F84FC1
:10038000DFF8C8910024A9F1040B23460F2709F1D7
:10039000040AABF1040ED1E00125A54006EA0502EE
:1003A000AA4276D1DFF8A8C14E68A6EB0C086645D4
:1003B0002BD00DDC032E34D005DC36B3012E19D042
:1003C000022E2FD11BE0112E16D0122E2AD119E0A9
:1003D000B8F5881F19D006DCB8F5803F15D0B8F500
:1003E000801F1FD111E0B8F5001F0ED0B8F5041F13
:1003F00018D10AE0CB6815E0CB681B1D12E0CB6872
:1004000008330FE0CB680C330CE08B682BB1012B69
:100410004FF0080303D0456104E0042302E00561C6
:1004200000E00023FF2A01D8064601E000F104069F
:100430004FEA840501D9A5F12005D6F8008007FA16
:1004400005FC28EA0C0803FA05F548EA0508C6F891
:1004500000804D68ED0070D53E4DAE6946F0010656
:10046000AE61AD6924F0030605F0010500953A4D33
:1004700006EB050CDCF80850A607360F07FA06F85D
:1004800025EA0805DFF8D480404503D14FF0000885
:1004900025E052E0DFF8C880404502D14FF0010866
:1004A0001DE0DFF8C080404502D14FF0020816E0A1
:1004B000DFF8B480404502D14FF003080FE0DFF8C9
:1004C000AC80404502D14FF0040808E0DFF8A0807E
:1004D000404502D14FF0050801E04FF0060808FA48
:1004E00006F848EA0508CCF808804D68D9F800609D
:1004F000ED024D4601D5164300E096432E604D684F
:10050000DAF80060AD02554601D5164300E0964387
:100510002E604D68DBF80060AD035D4601D51643E3
:1005200000E096432E604D68DEF80060ED037546EE
:1005300001D5164300E096432E60641C0A681646F7
:10054000E2407FF429AFBDE8F88F000008040140C5
:10055000000011100010024000000140000801409E
:10056000000C01400010014000140140001801403F
:10057000001C01408068084000D001207047000046
:100580000148806870470000080000200248816828
:10059000027811448160704708000020074810B5B8
:1005A000016841F010010160032000F075F80F2090
:1005B00000F006F800F024F8002010BD00200240F2
:1005C00070B50D4D04464FF47A712878B1FBF0F008
:1005D0000A490968B1FBF0F000F0DCFA48B9102CC8
:1005E00007D200222146501E00F036F800206C6031
:1005F00070BD012070BD0000080000201400002024
:100600000C4808B5816941F001018161816901F0FF
:1006100001010091C16941F08051C161C06900F0E0
:10062000805000900448416821F0E06141F0007181
:10063000416008BD0010024000000140002809DBB5
:1006400000F01F02012191404009800000F1E020EC
:10065000C0F8001170470000F0B40E4B1B680C4648
:10066000C3F30223C3F10705042D00D90425191D86
:10067000072901D2002300E0DB1E012606FA05F15E
:10068000491E214099409E40761E16403143F0BCE1
:1006900001F0F0B80CED00E0064900F00702086830
:1006A0004FF6FF03184040EA0220034A1043086057
:1006B000704700000CED00E00000FA052DE9F0475E
:1006C0000F46050061D0434E306800F00700B84285
:1006D00009D2306820F0070038433060306800F0FD
:1006E0000700B84251D128683B4C810712D540071A
:1006F00003D5606840F4E06060602878000703D5A7
:10070000606840F4605060606068A96820F0F000A4
:10071000084360602878C00728D06868012810D096
:100720002168022810D0890700292EDA616821F09B
:10073000030101436160FFF723FF804641F28839DE
:100740000DE021688903EFE78901EDE7FFF718FF66
:10075000A0EB0801494502D90320BDE8F087606895
:10076000696800F00C00B0EB810FEFD1306800F049
:100770000700B8420BD9306820F0070038433060DA
:10078000306800F00700B84201D00120E5E7287882
:10079000400705D56068E96820F4E06008436060C0
:1007A0002878000706D56068296920F4605040EA7F
:1007B000C100606000F038F86168084AC1F30311B5
:1007C000515CC8400649086006480068FFF7F8FE1B
:1007D0000020C2E70020024000100240621D000815
:1007E000140000200C0000200448054900684968F6
:1007F000044AC1F30221515CC84070471400002034
:1008000000100240721D000804480549006849684C
:10081000044AC1F3C221515CC84070471400002053
:1008200000100240721D00080E4A51680E4801F087
:100830000C03042B11D0082B0FD10C48C1F38343B8
:10084000C903C05C0AD55168084AC1F34041921EF1
:10085000515C054A5043B0FBF1F0704704494843EE
:10086000704700000010024000127A00521D00087C
:1008700000093D002DE9F84F040070D02078C04DEC
:10088000C00749D06868C0F38100012807D06868B4
:10089000C0F38100022809D16868C00306D5286822
:1008A000800339D560680028E7D035E06068B0F58E
:1008B000803F0BD010B1B0F5A02F11D0286820F4E4
:1008C00080302860286820F4802002E0286840F406
:1008D00080302860606890B1FFF752FE06460AE05B
:1008E000286840F480202860F0E700BFFFF748FE4A
:1008F000801B642873D828688003F7D50CE0FFF7C5
:100900003FFE064605E000BFFFF73AFE801B642865
:10091000F0D828688003F7D420789A4E80074FF0EB
:1009200001094FF0000839D5686810F00C0F07D0A6
:100930006868C0F38100022809D16868C00306D442
:100940002868800714D52069012808D110E02069A3
:10095000B0B1C6F80090FFF713FE074605E00AE1C4
:10096000FFF70EFEC01B0228C4D828688007F7D501
:100970002868616920F0F80040EAC10028600DE0B5
:10098000C6F80080FFF7FCFD074604E0FFF7F8FD1E
:10099000C01B022823D828688007F7D420780007D6
:1009A0002CD57948A169D9B1C0F80090FFF7E8FDCE
:1009B000074604E0FFF7E4FDC01B02280FD8686A71
:1009C0008007F7D571484FF4FA510068B0FBF1F099
:1009D000009000BF0098411E0091FAD20EE080E026
:1009E000C0F80080FFF7CCFD074604E0FFF7C8FD24
:1009F000C01B022875D8686A8007F7D420784007A2
:100A000060D5E8690027C00008D4E86940F080504C
:100A1000E861E869012700F0805000905C480168B7
:100A2000C90513D40168834641F480710160FFF762
:100A3000A7FD824606E000BFFFF7A2FDA0EB0A007B
:100A400064284ED8DBF80000C005F5D5E068012821
:100A50000AD008B1052813D0286A20F001002862C6
:100A6000286A20F0040002E0286A40F001002862B1
:100A7000E06841F2883B98B1FFF782FD82460BE0C7
:100A8000286A40F004002862EEE700BFFFF778FD17
:100A9000A0EB0A0159455AD8286A8007F6D50CE020
:100AA000FFF76EFD824605E0FFF76AFDA0EB0A0145
:100AB00059454CD8286A8007F6D41FB1E86920F060
:100AC0008050E861E06988B36968C1F38101022957
:100AD00044D00228C6F8608004D0FFF751FD0446D8
:100AE00038E034E0FFF74CFD074604E0FFF748FD2F
:100AF000C01B02282BD828688001F7D4206AB0F5E3
:100B0000803F05D16868A16820F400300843686020
:100B1000D4E908010843696821F474110843686046
:100B2000C6F86090FFF72CFD044606E025E000BF04
:100B3000FFF726FD001B022809D828688001F7D599
:100B40001BE000BFFFF71CFD001B022802D9032099
:100B5000BDE8F88F28688001F4D40EE00128F7D0B2
:100B60006868226A00F48031914204D1616A00F41D
:100B70007010884201D00120EAE70020E8E7000079
:100B80000010024000004242800442421400002053
:100B90000070004010B5401EB0F1807F01D30120ED
:100BA00010BD4FF0E02460610F21601700F062FE7D
:100BB0000020A06107202061002010BD7047704711
:100BC00070B590F83C20012A2CD0012480F83C40DC
:100BD000022280F83D2003685A689D6822F0700662
:100BE0000A6832435A60104B02689A420ED00F4B8B
:100BF0009A420BD0B2F1804F08D00D4B9A4205D0EB
:100C00000C4B9A4202D00C4B9A4204D1496825F011
:100C100080031943916080F83D40002180F83C102A
:100C2000084670BD022070BD002C01400034014018
:100C30000004004000080040000C004010B5040013
:100C400003D094F83D0010B107E0012010BD002052
:100C500084F83C00204600F01FF8022084F83D0094
:100C6000211D206800F044FC012084F8460084F82F
:100C70003E0084F83F0084F8400084F8410084F886
:100C8000420084F8430084F8440084F8450084F866
:100C90003D00002010BD000008B500680B498842E7
:100CA00012D10B48816941F40061816180690022A1
:100CB00000F40060009011461920FFF7CDFCBDE85C
:100CC00008401920FFF7BABC08BD0000002C014005
:100CD0000010024090F83D10012901D0012070471A
:100CE000022180F83D100168CA6842F00102CA6022
:100CF00000680E4988420ED00D4988420BD0B0F1F1
:100D0000804F08D00B49884205D00B49884202D059
:100D10000A49884204D1816801F00701062903D0FD
:100D2000016841F00101016000207047002C014082
:100D3000003401400004004000080040000C004066
:100D40000168CA6822F00102CA6001680A6A41F2B9
:100D500011131A4207D10A6A9B101A4203D10A687A
:100D600022F001020A60012180F83D100020704746
:100D700070B5044690F83C000025012817D00126E4
:100D800084F83C60022084F83D002068826822F0EC
:100D9000770222F47F4282600868502838D00DDC48
:100DA00020284FD005DC90B3102811D14AE0022052
:100DB00070BD302846D040280AD13BE060282FD0B3
:100DC00070280DD0B0F5805F03D0B0F5005F12D071
:100DD000012584F83D60002084F83C00284670BD61
:100DE000CB68D1E90121206800F0D0FB2068816840
:100DF00041F0770109E0CB68D1E90121206800F0DA
:100E0000C5FB2068816841F480418160E1E719E019
:100E1000CA684968206800F0CBFB5021206806E0D2
:100E2000CA684968206800F0D4FB6021206800F09F
:100E3000B7FBCEE7CA684968206800F0B9FB4021DB
:100E40002068F4E7226801461046F0E770472DE974
:100E5000F04104460068C66805694FF00007A9071D
:100E600013D5B10711D5F91E016101202077206843
:100E700080698007204602D0FFF7E8FF04E000F019
:100E80007EF8204600F07CF82777680716D57007B3
:100E900014D521686FF004000861022020772068D3
:100EA000806910F4407F204602D0FFF7CFFF04E0B6
:100EB00000F065F8204600F063F82777280715D57D
:100EC000300713D521686FF00800086104202077EF
:100ED0002068C0698007204602D0FFF7B7FF04E012
:100EE00000F04DF8204600F04BF82777E80616D5BD
:100EF000F00614D521686FF01000086108202077F3
:100F00002068C06910F4407F204602D0FFF79EFFA2
:100F100004E000F034F8204600F032F82777E807C4
:100F200008D0F00706D021686FF001000861204664
:100F300000F028F8280608D5300606D521686FF09D
:100F4000800008612046FFF739FE680608D5700664
:100F500006D521686FF040000861204600F034F8A3
:100F6000A8060AD5B00608D521686FF020000861F0
:100F70002046BDE8F041FFF722BEBDE8F081704792
:100F8000704700000E49884219D10E480122431EC5
:100F90008178491CC9B281701A700A290FD1417831
:100FA000491CCAB20021427081703C2A07D10278E4
:100FB000521CD2B2027041703C2A00D101707047BD
:100FC0001C0000200100002070477047704700009F
:100FD000F8B5016804460868CA684B6910F00F0F3D
:100FE0004FF0000559D003F0010602F49077374323
:100FF00065D0C10705D0D10503D5616C41F0010171
:101000006164410705D5D90703D0616C41F0020145
:101010006164810705D5D90703D0616C41F00401F3
:101020006164010707D502F02001314303D0616CF0
:1010300041F008016164616C00293AD0800604D552
:10104000900602D5204600F005FB20684069616CDF
:10105000C0F38010090700D460B3204600F0D3FA33
:1010600020684069400621D52068143050E8001FF0
:1010700021F0400140E80012002AF5D1E06BA8B150
:101080006D494163E06BFFF7CFF8002811D0E06BAA
:10109000416B01B0BDE8F040084783060FD59306C9
:1010A0000DD52046BDE8F84000F0D4BA2046FFF741
:1010B0008DFFF8BD2046FFF789FF6564F8BD266BFC
:1010C0002023012E7CD1C6067AD5D60678D50868AD
:1010D0004868009048694FF00206400640D5E16B31
:1010E000086840680004000CE8D0A28D8242E5D96F
:1010F000E085886920282DD020680C3050E8001F3A
:1011000021F4807140E80012002AF5D120681430E3
:1011100050E8001F21F0010140E80012002AF5D13B
:101120002068143050E8001F21F0400140E8001210
:10113000002AF5D184F84230256320680C3050E84D
:10114000001F21F0100140E80012002AF5D1E06BE9
:10115000FFF746F86663A08DE18D401A81B22AE060
:10116000A08DE18D401A81B2E08D0028A6D0002923
:10117000A4D022680C3252E8000F20F4907042E8AC
:101180000007002FF5D12068143050E8002F22F01E
:10119000010240E80027002FF5D184F84230256392
:1011A00020680C3050E8002F22F0100240E80023A5
:1011B000002BF5D166632046FFF707FFF8BDFFE778
:1011C00005062BD5150629D594F841002128F5D11F
:1011D000A068B0F5805F01D12069B0B1206A411CE0
:1011E0002162216800784860E08C401E0004000CF9
:1011F000E084E3D12068C16821F08001C1602068EB
:10120000C16841F04001C160D8E7206A0088C0F39E
:1012100008004860206A801C2062E5E74006CDD5C2
:101220005006CBD5CA68204622F04002CA6084F836
:10123000413000F0C6F8C1E7F715000870B50400AA
:1012400004D094F84100002510B106E0012070BDE3
:1012500084F84050204600F023F8242084F8410010
:101260002068C16821F40051C160204600F054FAA2
:101270002068016921F4904101612068416921F0F1
:101280002A0141612068C16841F40051C160656470
:10129000202084F8410084F842006563002070BD7E
:1012A00030B585B000240094019402940394006842
:1012B000184988422CD11848816941F480418161E4
:1012C000816901F480410491816941F004018161E7
:1012D0008069124D00F0040004904FF400700090FB
:1012E000022001900320039069462846FFF746F844
:1012F0002815CDE90004694628460294FFF73EF818
:10130000002211462520FFF7A7F92520FFF796F9BF
:1013100005B030BD00380140001002400008014017
:1013200070472DE9F843044690F841009846164668
:101330000D46202802D00220BDE8F88385B17EB199
:1013400000206064212084F84100FFF719F9A68489
:101350008146E684A0682027B0F5805F02D003E0D4
:101360000120E9E7206910B12E4600250EE0002695
:101370000CE08021204600F02BFAA8B9C6B116F87F
:10138000010B21684860E08C401EE084E08C4B46F5
:101390004FF00002CDF800800028EAD14FF0400164
:1013A000204600F015FA40B184F841700320C3E7ED
:1013B00035F8020BC0F30800E3E784F84170002021
:1013C000BAE77047FEE7000010B50C4C012120463B
:1013D000FFF7D0F8012810D11420FEF7BDFF01213E
:1013E0002046FFF7C7F8012807D1054908700121F9
:1013F0002046FFF7BFF80128F9D010BD00080140D2
:101400000500002030B587B000251A4C00950195E5
:1014100002950395049516480595206041F61F40F6
:10142000C4E9010540F2E730C4E9030565612046DF
:10143000A561FFF703FC08B172B6FEE74FF48050D8
:10144000009069460B48FFF793FC08B172B6FEE7BF
:10145000049504A907480595FFF7B2FB08B172B6D9
:10146000FEE721686FF00100086107B030BD0000A1
:10147000002C01401C000020FEE7FEE7704770478B
:10148000FFF784B830B58FB028216846FEF773FEA9
:1014900014210AA8FEF76FFE01210804CDE900100F
:1014A0000024029402250491CDE907504FF4E01086
:1014B00009906846FFF7DEF908B172B6FEE70F2023
:1014C000CDE90A054FF48060CDE90C4002210AA85D
:1014D0000E94FFF7F3F8002801D072B6FEE70FB0C4
:1014E00030BD70470148FFF7B2BC00001C0000206F
:1014F000F0B50268204C214D214E224F224B4FF077
:10150000804CA04209D0984207D0604505D0A8423F
:1015100003D0B04201D0B84204D122F0700E4A6824
:1015200042EA0E02A04209D0984207D0604505D099
:10153000A84203D0B04201D0B84203D122F4407592
:10154000CA682A434D6922F080022A4302608A68F1
:10155000C2620A688262A04201D0984201D1096940
:101560000163012141610169C90703D0016921F0CB
:1015700001010161F0BD0000002C014000040040A9
:1015800000080040000C00400034014010B58468A1
:1015900042EA032224F47F440A432243826010BDBE
:1015A000826822F070020A4342F0070181607047AE
:1015B00010B5036A046A24F001040462846924F00B
:1015C000F00444EA021423F00A020A43846102622E
:1015D00010BD10B5036A046A24F010040462846923
:1015E00023F0A00324F4704444EA023243EA0111D8
:1015F0008261016210BD10B5406A0021C185C184BD
:10160000FFF7E4FC10BD01680C3151E8002F22F413
:10161000907241E80023002BF5D10168143151E8A4
:10162000002F22F0010241E80023002BF5D1016BCD
:10163000012909D101680C3151E8002F22F0100274
:1016400041E80023002BF5D1202180F84210002131
:101650000163704708B590F84210222901D002209A
:1016600008BD82684FF480539A4201D1016921B1CB
:10167000816A9A421BD04AB10AE00268816A5268C4
:10168000C2F308020A80816A891C08E0026972B10B
:101690000268526802F07F020A70816A491C816206
:1016A000C18D491E0904090CC18503D01BE00268E5
:1016B0005268F1E70168CA6822F02002CA60016836
:1016C000CA6822F48072CA6001684A6922F0010285
:1016D0004A61202180F8421000214163026B012AF7
:1016E00003D0FFF71DFE002008BD016301680C3127
:1016F00051E8002F22F0100241E80023002BF5D121
:1017000001680A68D20602D50A6849680091818D8D
:10171000FFF75BFCE7E7000070B50446006801696D
:10172000E26821F44051114301612169A068084336
:10173000616908432168CA6841F20C639A43024315
:10174000CA6020684169A26921F440711143416176
:101750001E492068884202D1FFF756F801E0FFF7E2
:1017600043F800EBC00101EB0012606864218000C7
:10177000B2FBF0F3B3FBF1F36FF018067343B2FB67
:10178000F0F5B2FBF0F605EB8305322303EB05150C
:10179000B5FBF1F5B6FBF1F605F0F00505EB061526
:1017A000B2FBF0F6B2FBF0F0B0FBF1F06FF0180214
:1017B000504306EB800003EB0010B0FBF1F0216812
:1017C00000F00F002844886070BD00000038014020
:1017D0002DE9F843984617460D460446089E24E036
:1017E000701C22D0FEF7CCFEA0EB0800B0421AD845
:1017F000CEB12068C168490717D5802D15D0402D7E
:1018000013D00168C94309070FD401680025406857
:1018100000902046FFF7F7FE0820606484F84050EF
:101820000120BDE8F8830320FBE72068006835EA63
:10183000000004D00020B842D2D00020F1E70120FF
:10184000F9E700000148FFF7C3BB00006400002077
:10185000FEE700000FB4054B10B503A9044A029837
:1018600000F028F810BC5DF814FB0000F91B00081C
:10187000180000200907090E002804DB00F1E02011
:1018800080F80014704700F00F0000F1E02080F8AD
:10189000141D704702E008C8121F08C1002AFAD1BF
:1018A00070477047002001E001C1121F002AFBD1E0
:1018B000704700002DE9FF4F8BB088460546002693
:1018C00006E025280BD0DDE90D1290476D1C761C33
:1018D00028780028F5D10FB03046BDE8F08F0024FD
:1018E000A146A2460122AE4900E0044315F8013F9B
:1018F000203B02FA03F00842F7D128782A2810D0BA
:101900006FF02F022878A0F13001092915D809EBD2
:10191000890102EB410144F0020400EB01096D1C56
:10192000F0E758F8041B5FEA010903D544F40054BA
:10193000C9F1000944F002046D1C28782E2817D143
:1019400015F8010F44F004042A280ED06FF02F027E
:101950002878A0F1300109290AD80AEB8A0102EBA4
:10196000410100EB010A6D1CF2E758F804AB6D1C55
:1019700028786C280FD006DC4C2817D068280DD0AA
:101980006A2814D104E0742810D07A280FD10DE011
:1019900044F400140AE044F4801401E044F44014D8
:1019A0006978814202D104F580146D1C6D1C287881
:1019B000692865D006DC00288DD0632827D06428EC
:1019C00006D15DE06E2808D073282AD0752877D01C
:1019D000DDE90D129047761CE0E0C4F302500228C6
:1019E00009D003280DD0D8F8001004280DD00E60BF
:1019F00008F10408D2E0D8F80010F217C1E900623B
:101A0000F6E7D8F800100E80F2E70E70F0E718F84D
:101A1000041B8DF8001000208DF80100EB4601201A
:101A200003E058F804BB4FF0FF3061074FF00007A8
:101A300001D40AE07F1C57450DDA8742FADB1BF818
:101A400007100029F6D106E07F1C8742FCDB1BF85B
:101A500007100029F8D1DDE90D23A9EB0700814625
:101A6000214600F0B1F83044C61904E0DDE90D125A
:101A70001BF8010B90477F1EF8D22146484688E0AC
:101A800058F8040BC4F302514FF00A0B032900D19C
:101A900000B2042900D140B2002802DA40422D21D0
:101AA00002E0210505D52B218DF82410012104E049
:101AB00006E0E10710D02021F6E708AF089113E017
:101AC00058F8040BC4F302514FF00A0B032900D15C
:101AD00080B2042900D1C0B20021EEE75946FEF7DA
:101AE00055FB303107F8011D0028F7D1ADEB070099
:101AF00000F1200B600702D524F4803401E04FF0A0
:101B0000010ADA4502DDAAEB0B0000E00020824664
:101B100000EB0B0108980144A9EB01000A90E003D7
:101B200006D4DDE90D2321460A9800F04DF806445D
:101B30004FF0000908E009A911F80900DDE90D12CC
:101B4000904709F10109761C08998945F3DBE00308
:101B50000CD5DDE90D2321460A9800F035F806443E
:101B600004E0DDE90D1230209047761CBAF1000147
:101B7000AAF1010AF5DC05E0DDE90D1217F8010B09
:101B80009047761CBBF10001ABF1010BF4DC0A9825
:101B90002146DDE90D2300F005F806446D1C97E6AB
:101BA000092801002DE9F041044600251E4617468C
:101BB000880404D405E039462020B0476D1C641E1B
:101BC000F9D52846BDE8F0812DE9F041044600250D
:101BD0001E469046C80301D5302700E02027880420
:101BE00004D505E041463846B0476D1C641EF9D562
:101BF0002846BDE8F081000013B54FF0FF33012205
:101C000069460248FFF78DFB00981CBD6400002068
:101C100086B0FEF7C3FCFFF735FC00242D48019485
:101C20000394816941F010018161816901F0100123
:101C30000491816941F0040181618069694600F085
:101C40000400049001200090022002902248FEF738
:101C500095FBFFF7D7FB2248204901604FF4E131A3
:101C6000C0E901140C21C460C0E904418461C4616D
:101C7000FFF7E4FA08B172B6FEE71AA0FFF7EAFD33
:101C8000234E244D244F00BFFFF79EFB3078A0B1B8
:101C90003470287850B10020287000281048A0F136
:101CA000480005D0FFF716F81CA004E00120F3E778
:101CB000FFF746F81BA0FFF7CDFD38780028E3D0EA
:101CC0001A483C7083784278017819A0FFF7C2FD6A
:101CD000DAE700000010024000080140003801402F
:101CE000640000205072657373204B4559312C20DD
:101CF0007374617274206F722073746F70207468D3
:101D0000652073746F707761746368200D0A00003A
:101D100005000020040000200000002053746172C0
:101D2000740D0A0053746F700D0A0000010000204A
:101D300054696D65203A2025303264203A202530E0
:101D40003264203A2025303264200D0A0000000061
:101D5000010202030405060708090A0B0C0D0E0F09
:101D6000101000000000000000000102030406073C
:101D70000809000000000102030400009C1D000887
:101D8000000000201C00000094180008B81D000886
:101D90001C00002094040000A418000800000000AB
:101DA0000000000001000000100000000000000022
:081DB00000127A00000000009F
:0400000508000131BD
:00000001FF
