:020000040800F2
:10000000C0070020CD010008A71E0008AD1C000895
:10001000A51E0008B5030008C12300080000000069
:10002000000000000000000000000000AB1E0008FF
:10003000B703000800000000A91E0008AD1E00085C
:10004000E7010008E7010008E7010008E7010008F0
:10005000E7010008E7010008E7010008E7010008E0
:10006000E7010008E7010008E7010008E7010008D0
:10007000E7010008E7010008E7010008E7010008C0
:10008000E7010008E7010008D5020008E7010008C1
:10009000E7010008E7010008E7010008E7010008A0
:1000A000E70100082D1F0008E7010008E70100082C
:1000B000E7010008391F0008451F0008E701000894
:1000C000E7010008E7010008E7010008E701000870
:1000D000E7010008B5230008E7010008E701000870
:1000E000E7010008E7010008E7010008E701000850
:1000F000E7010008E7010008E7010008E701000840
:10010000E7010008E7010008E7010008E70100082F
:10011000E7010008E7010008E7010008E70100081F
:10012000E7010008E7010008E7010008E70100080F
:1001300000F002F800F03AF80AA090E8000C8244BF
:100140008344AAF10107DA4501D100F02FF8AFF29C
:10015000090EBAE80F0013F0010F18BFFB1A43F0A5
:10016000010318474423000064230000103A24BF11
:1001700078C878C1FAD8520724BF30C830C144BF0C
:1001800004680C607047000000230024002500264E
:10019000103A28BF78C1FBD8520728BF30C148BFEA
:1001A0000B6070471FB51FBD10B510BD00F058F8AB
:1001B0001146FFF7F7FF02F015F900F076F803B4E7
:1001C000FFF7F2FF03BC00F07DF80000094880470C
:1001D00009480047FEE7FEE7FEE7FEE7FEE7FEE729
:1001E000FEE7FEE7FEE7FEE704480549054A064B41
:1001F000704700002B1F000831010008C0010020DB
:10020000C0070020C0030020C00300204FF0000200
:1002100000B5134694469646203922BFA0E80C50FC
:10022000A0E80C50B1F12001BFF4F7AF090728BFD7
:10023000A0E80C5048BF0CC05DF804EB890028BF53
:1002400040F8042B08BF704748BF20F8022B11F07C
:10025000804F18BF00F8012B7047704770477047F8
:10026000754600F02BF8AE4605006946534620F06F
:100270000700854618B020B5FFF7B6FFBDE820405F
:100280004FF000064FF000074FF000084FF0000B52
:1002900021F00701AC46ACE8C009ACE8C009ACE805
:1002A000C009ACE8C0098D46704710B50446AFF3ED
:1002B00000802046BDE81040FFF781BF004870472E
:1002C0006001002001491820ABBEFEE726000200B5
:1002D00070470000014800F05CB9000010000020E9
:1002E00070B5044600688168C943C90717D18168A1
:1002F00021F00101816000F099FC05460AE000BF91
:1003000000F094FC401B022804D920688068C04398
:10031000C00706D020688068C043C007F0D0002026
:1003200070BDA06A40F01000A062E06A40F00100D9
:10033000E062012070BD0000F8B50026044600967A
:1003400000688168C943C9072DD0816841F0010167
:100350008160164816490068B0FBF1F000E0401ECD
:1003600000900028FBD100F061FC054616E000BFBC
:1003700000F05CFC401B022810D920688068C04354
:10038000C0070BD0A06A40F01000A062E06A40F005
:100390000100E06284F824600120F8BD20688068D4
:1003A000C043C007E4D10020F8BD00000C000020CD
:1003B00040420F00FEE77047F8B50025044600955F
:1003C00090F8240001280BD0012084F82400204656
:1003D000FFF786FF2046FFF7AFFF060002D050E090
:1003E0000220F8BDA06A20F4885040F00200A0620C
:1003F000022000F0B9FC25490968B1FBF0F040008B
:1004000000E0401E00900028FBD12068816841F088
:100410000801816000F00AFC074608E000F006FCD5
:10042000C01B0A2803D920688068000715D42068FB
:1004300080680007F2D42068816841F0040181607F
:1004400000F0F4FB074612E000F0F0FBC01B0A28A6
:100450000DD920688068400709D5A06A20F0020005
:1004600040F01000A06284F824500120F8BD2068FC
:1004700080684007E8D4A06A20F0020040F0010044
:10048000A06284F824503046F8BD00000C00002023
:1004900070470000F8B50024009490F82420254609
:1004A000012A12D0012280F824204A681F23072A3B
:1004B0000DD20668776B521E02EB820293409F4377
:1004C0000B6893401F43776319E00220F8BD06686C
:1004D0000D2A0AD2376BD21F02EB820293409F4350
:1004E0000B6893401F43376309E0F76A0D3A02EB4C
:1004F000820293409F430B6893401F43F7620A6850
:10050000072306680A2A0AD3F7680A3A02EB42026E
:1005100093409F438B6893401F43F76008E037691F
:1005200002EB420293409F438B6893401F43376125
:100530000A68102A01D0112A20D1124B02689A426F
:1005400017D193681B0219D4936843F40003936096
:100550000968102912D10C490C4A0968B1FBF2F163
:1005600001EB8101490000E0491E00910029FBD107
:1005700004E0816A41F020018162012480F8245066
:100580002046F8BD002401400C00002040420F002E
:10059000704770B50446006806684568A90625D509
:1005A000B10723D5A16AC90603D4A16A41F4007139
:1005B000A1628168C1F34241072910D1217B71B941
:1005C000416821F020014160A06A20F48070A0629F
:1005D000A06AC00403D4A06A40F00100A0622046D3
:1005E000FFF7D6FF21686FF01200086028062ED5AD
:1005F00070072CD5A06AC00603D4A06A40F400504E
:10060000A06220688168C1F30231072909D04168DE
:10061000490515D48168C1F34241072910D1217BD6
:1006200071B9416821F080014160A06A20F48050D6
:10063000A062A06AC00503D4A06A40F00100A062D5
:100640002046FFF725FF21686FF00C000860680660
:100650000CD5F0070AD0A06A40F48030A062204692
:1006600000F096F821686FF00100086070BD00008E
:100670002DE9F04104004FF000057FD0A06A00266C
:1006800028B9E66284F82460204600F083F820460A
:10069000FFF726FEA16AC90600D420B1A06A40F087
:1006A0001000A0626AE0A16A21F4885141F00201C1
:1006B000A162334923688B42E16904D1B1F5402F2F
:1006C00001D14FF40021277B4FF4807C41EA47029F
:1006D00061680A43A168614508D0012906D000215C
:1006E00094F814E0BEF1010F02D00AE06146F7E78A
:1006F000C7B1A76A47F02007A762E76A47F001077A
:10070000E7625F6827F469470F435F602368996871
:100710001C4F394011439960A16861450BD00129F4
:1007200009D00CE0DFF860E0A7690EEB47370F4314
:1007300047F40061E5E7218A0D05A5F580152168DC
:10074000CB6A23F470032B43CB62216889680F4B7B
:100750001940914208D1E662A16A21F0020141F0FC
:100760000101A162BDE8F081A06A20F0020040F022
:100770001000A062E06A40F00100E0620120F1E7B1
:10078000003C0140FDF7E1FF00E0FFFFFE0E1FFF10
:100790007047000000B585B00021009101910291E1
:1007A000039100681249884220D11248816941F4BE
:1007B00000718161816901F400710491816941F0E6
:1007C000040181618069694600F0040004904020C2
:1007D000009003200190084800F02CF90022072126
:1007E000122000F08FFA122000F07EFA05B000BD52
:1007F00000240140001002400008014070B504468A
:1008000090F8240001280DD0012084F8240020460F
:10081000FFF792FD02004FF0000005D084F824009D
:10082000104670BD022070BDA16A40F201239943B9
:1008300041F48071A1621F4D23681F49AB4218D15A
:100840000E6816F4702F14D0A66A46F48016A662BD
:100850000E68760505D5A66A26F4005646F480563D
:10086000A662A66AF6040AD5E66A26F00606E662DD
:1008700006E0A66A26F48016A6625E68E9E7E062F2
:1008800084F824006FF00200186020688368C3F3C6
:100890004243072B05D1A84208D1096811F4702FF3
:1008A00004D0816841F480118160B9E7816841F426
:1008B000A001F9E7002801400424014010B590F898
:1008C00021100022022905D00421816380F8202014
:1008D000012010BD01680B6823F00E030B60016856
:1008E0000B6823F001030B6090F84030C46B0121CA
:1008F00001FA03F3636080F8211080F8202010468D
:1009000010BD00002DE9F05F90F8211000240229AD
:1009100003D004218163012485E001680A6822F084
:100920000E020A6001680A6822F001020A603F4E66
:100930003E4FB215DFF8F4C0DFF8F090DFF8ECA01E
:10094000DFF8E8B0DFF8E4E00168783F1301150252
:10095000ACF1640CA9F15009AAF13C0AABF1280BE7
:10096000AEF1140E4FF48018B14227D9B9420ED01F
:10097000614512D049451DD0514518D0594518D070
:10098000714501D1424615E0294EB14201D1012203
:1009900010E0274E1436B14201D110220AE0244E55
:1009A0002836B14206D0224A3C32914201D11A4641
:1009B00000E02A461E49091F0A602BE0B94213D005
:1009C000614517D0494522D051451DD059451DD00C
:1009D000714501D142461AE0B14202D14FF0807216
:1009E00015E0134EB14201D1012210E0104E143631
:1009F000B14201D110220AE00D4E2836B14206D094
:100A00000B4A3C32914201D11A4600E02A4607497E
:100A100080394A60012180F82110002180F82010DF
:100A2000416B01B188472046BDE8F09F800002403D
:100A3000080402402DE9F84FDFF8C8910024A9F11D
:100A4000040B23460F2709F1040AABF1040ED1E091
:100A50000125A54006EA0502AA4276D1DFF8A8C121
:100A60004E68A6EB0C0866452BD00DDC032E34D067
:100A700005DC36B3012E19D0022E2FD11BE0112E2A
:100A800016D0122E2AD119E0B8F5881F19D006DC2D
:100A9000B8F5803F15D0B8F5801F1FD111E0B8F52B
:100AA000001F0ED0B8F5041F18D10AE0CB6815E07E
:100AB000CB681B1D12E0CB6808330FE0CB680C330A
:100AC0000CE08B682BB1012B4FF0080303D045617C
:100AD00004E0042302E0056100E00023FF2A01D8BE
:100AE000064601E000F104064FEA840501D9A5F1AC
:100AF0002005D6F8008007FA05FC28EA0C0803FA5E
:100B000005F548EA0508C6F800804D68ED0070D587
:100B10003E4DAE6946F00106AE61AD6924F00306B4
:100B200005F0010500953A4D06EB050CDCF8085080
:100B3000A607360F07FA06F825EA0805DFF8D4807D
:100B4000404503D14FF0000825E052E0DFF8C880AF
:100B5000404502D14FF001081DE0DFF8C08040455C
:100B600002D14FF0020816E0DFF8B480404502D110
:100B70004FF003080FE0DFF8AC80404502D14FF0A2
:100B8000040808E0DFF8A080404502D14FF00508D6
:100B900001E04FF0060808FA06F848EA0508CCF824
:100BA00008804D68D9F80060ED024D4601D5164326
:100BB00000E096432E604D68DAF80060AD025546BD
:100BC00001D5164300E096432E604D68DBF80060C7
:100BD000AD035D4601D5164300E096432E604D6897
:100BE000DEF80060ED03754601D5164300E096433C
:100BF0002E60641C0A681646E2407FF429AFBDE807
:100C0000F88F00000804014000001110001002409D
:100C10000000014000080140000C014000100140AC
:100C20000014014000180140001C01400148806888
:100C300070470000000000200248816802781144DB
:100C40008160704700000020074810B5016841F03E
:100C500010010160032000F075F80F2000F006F885
:100C600000F024F8002010BD0020024070B50D4DAA
:100C700004464FF47A712878B1FBF0F00A4909680C
:100C8000B1FBF0F000F0AEFB48B9102C07D2002207
:100C90002146501E00F036F800206C6070BD012027
:100CA00070BD0000000000200C0000200C4808B5BA
:100CB000816941F001018161816901F001010091C7
:100CC000C16941F08051C161C06900F0805000905D
:100CD0000448416821F0E06141F00071416008BDC5
:100CE0000010024000000140002809DB00F01F0254
:100CF000012191404009800000F1E020C0F800117E
:100D000070470000F0B40E4B1B680C46C3F302237F
:100D1000C3F10705042D00D90425191D072901D2A7
:100D2000002300E0DB1E012606FA05F1491E2140E2
:100D300099409E40761E16403143F0BC01F041BB05
:100D40000CED00E0064900F0070208684FF6FF03CB
:100D5000184040EA0220034A104308607047000030
:100D60000CED00E00000FA0510B501460020284C0B
:100D700004292FD00BDC012930D0022929D100F021
:100D80006BF96168C1F38131491C49001FE00829F2
:100D900020D010291DD161682268D20119D51D48C3
:100DA000C1F38342C903805C0AD56168194AC1F363
:100DB0004041921E515C184AB2FBF1F1484301E0F8
:100DC000164948436168490203D440000321B0FB3F
:100DD000F1F010BDBDE8104000F04EB9226AC2F338
:100DE0000121012903D1920701D5C80310BD0229B1
:100DF00005D1626A920702D549F6404010BD032929
:100E0000FCD121688903F9D54FF2244010BD0000C0
:100E1000001002408024000800127A0000093D0002
:100E20002DE9F84305460078354CC00754D0E069F9
:100E30000026C00008D4E06940F08050E061E0691D
:100E4000012600F0805000902E480168C90512D498
:100E50000168804641F480710160FFF7E7FE0746B4
:100E600005E000BFFFF7E2FEC01B642823D8D8F8D6
:100E70000000C005F6D5206A10F4407021D0A98882
:100E800001F4407181421CD0206A1F49012220F4E4
:100E900040700A6000220A602062C00711D0FFF78C
:100EA000C5FE074641F2883808E000BFFFF7BEFEE6
:100EB000C11B414502D90320BDE8F883206A8007A1
:100EC000F4D5206A696820F44070084320621EB19E
:100ED000E06920F08050E0612878800705D56068DF
:100EE000A96820F44040084360602878C00605D512
:100EF0006068696920F48000084360600020DBE7D7
:100F00000010024000700040400442422DE9F047CA
:100F10000F46050061D0434E306800F00700B8422C
:100F200009D2306820F0070038433060306800F0A4
:100F30000700B84251D128683B4C810712D54007C1
:100F400003D5606840F4E06060602878000703D54E
:100F5000606840F4605060606068A96820F0F0004C
:100F6000084360602878C00728D06868012810D03E
:100F70002168022810D0890700292EDA616821F043
:100F8000030101436160FFF751FE804641F2883959
:100F90000DE021688903EFE78901EDE7FFF746FEE1
:100FA000A0EB0801494502D90320BDE8F08760683D
:100FB000696800F00C00B0EB810FEFD1306800F0F1
:100FC0000700B8420BD9306820F007003843306082
:100FD000306800F00700B84201D00120E5E728782A
:100FE000400705D56068E96820F4E0600843606068
:100FF0002878000706D56068296920F4605040EA27
:10100000C100606000F038F86168084AC1F303115C
:10101000515CC8400649086006480068FFF726FE94
:101020000020C2E700200240001002409024000887
:101030000C000020040000200448054900684968AD
:10104000044AC1F30221515CC84070470C000020E3
:1010500000100240A02400080448054900684968BF
:10106000044AC1F3C221515CC84070470C00002003
:1010700000100240A02400080E4A51680E4801F0FA
:101080000C03042B11D0082B0FD10C48C1F3834360
:10109000C903C05C0AD55168084AC1F34041921E99
:1010A000515C054A5043B0FBF1F070470449484396
:1010B000704700000010024000127A006E24000801
:1010C00000093D002DE9F84F040070D02078C04D94
:1010D000C00749D06868C0F38100012807D068685C
:1010E000C0F38100022809D16868C00306D52868CA
:1010F000800339D560680028E7D035E06068B0F536
:10110000803F0BD010B1B0F5A02F11D0286820F48B
:1011100080302860286820F4802002E0286840F4AD
:1011200080302860606890B1FFF780FD06460AE0D5
:10113000286840F480202860F0E700BFFFF776FDC4
:10114000801B642873D828688003F7D50CE0FFF76C
:101150006DFD064605E000BFFFF768FD801B6428B3
:10116000F0D828688003F7D420789A4E80074FF093
:1011700001094FF0000839D5686810F00C0F07D04E
:101180006868C0F38100022809D16868C00306D4EA
:101190002868800714D52069012808D110E020694B
:1011A000B0B1C6F80090FFF741FD074605E00AE13F
:1011B000FFF73CFDC01B0228C4D828688007F7D57C
:1011C0002868616920F0F80040EAC10028600DE05D
:1011D000C6F80080FFF72AFD074604E0FFF726FD6A
:1011E000C01B022823D828688007F7D4207800077E
:1011F0002CD57948A169D9B1C0F80090FFF716FD48
:10120000074604E0FFF712FDC01B02280FD8686AEA
:101210008007F7D571484FF4FA510068B0FBF1F040
:10122000009000BF0098411E0091FAD20EE080E0CD
:10123000C0F80080FFF7FAFC074604E0FFF7F6FC71
:10124000C01B022875D8686A8007F7D42078400749
:1012500060D5E8690027C00008D4E86940F08050F4
:10126000E861E869012700F0805000905C4801685F
:10127000C90513D40168834641F480710160FFF70A
:10128000D5FC824606E000BFFFF7D0FCA0EB0A00C9
:1012900064284ED8DBF80000C005F5D5E0680128C9
:1012A0000AD008B1052813D0286A20F0010028626E
:1012B000286A20F0040002E0286A40F00100286259
:1012C000E06841F2883B98B1FFF7B0FC82460BE042
:1012D000286A40F004002862EEE700BFFFF7A6FC92
:1012E000A0EB0A0159455AD8286A8007F6D50CE0C8
:1012F000FFF79CFC824605E0FFF798FCA0EB0A0193
:1013000059454CD8286A8007F6D41FB1E86920F007
:101310008050E861E06988B36968C1F381010229FE
:1013200044D00228C6F8608004D0FFF77FFC044652
:1013300038E034E0FFF77AFC074604E0FFF776FC7C
:10134000C01B02282BD828688001F7D4206AB0F58A
:10135000803F05D16868A16820F4003008436860C8
:10136000D4E908010843696821F4741108436860EE
:10137000C6F86090FFF75AFC044606E025E000BF7F
:10138000FFF754FC001B022809D828688001F7D514
:101390001BE000BFFFF74AFC001B022802D9032014
:1013A000BDE8F88F28688001F4D40EE00128F7D05A
:1013B0006868226A00F48031914204D1616A00F4C5
:1013C0007010884201D00120EAE70020E8E7000021
:1013D0000010024000004242800442420C00002003
:1013E0000070004010B5401EB0F1807F01D3012095
:1013F00010BD4FF0E02460610F21601700F0E1FFA5
:101400000020A06107202061002010BD70477047B8
:1014100010B590F83C20012A22D0012280F83C200F
:10142000CA688C6822F4407222434C6822F48062BD
:1014300022430C6822F4006222430C6922F4805299
:1014400022434C6922F400522243C969002322F44A
:1014500080420A4301684A6480F83C30002010BD95
:10146000022010BD70B590F83C20012A2CD0012438
:1014700080F83C40022280F83D2003685A689D684D
:1014800022F070060A6832435A60104B02689A4292
:101490000ED00F4B9A420BD0B2F1804F08D00D4BBB
:1014A0009A4205D00C4B9A4202D00C4B9A4204D17E
:1014B000496825F080031943916080F83D40002180
:1014C00080F83C10084670BD022070BD002C014021
:1014D000003401400004004000080040000C0040BF
:1014E00010B5040003D094F83D0010B107E00120CE
:1014F00010BD002084F83C00204600F01FF80220B8
:1015000084F83D00211D206800F022FD012084F8B0
:10151000460084F83E0084F83F0084F8400084F8D8
:10152000410084F8420084F8430084F8440084F8C1
:10153000450084F83D00002010BD000008B51E4A9B
:1015400001681E4891420ED1816941F400618161B8
:101550008069002200F40060009008211920FFF744
:10156000D1FB192022E0164A91420ED1C16941F007
:101570000201C161C069002200F00200009009214F
:101580001D20FFF7BFFB1D2010E00E4A914211D134
:10159000C16941F00401C161C069002200F004008A
:1015A00000900B211E20FFF7ADFB1E20BDE8084078
:1015B000FFF79ABB08BD0000002C0140001002405C
:1015C000000400400008004070B5044690F83C005C
:1015D0000025012817D0012684F83C60022084F8F9
:1015E0003D002068826822F0770222F47F42826008
:1015F0000868502838D00DDC20284FD005DC90B387
:10160000102811D14AE0022070BD302846D0402871
:101610000AD13BE060282FD070280DD0B0F5805F54
:1016200003D0B0F5005F12D0012584F83D600020A2
:1016300084F83C00284670BDCB68D1E901212068C0
:1016400000F0D4FC2068816841F0770109E0CB68A4
:10165000D1E90121206800F0C9FC2068816841F4CB
:1016600080418160E1E719E0CA684968206800F0BC
:1016700091FD5021206806E0CA684968206800F0A2
:101680009AFD6021206800F0BBFCCEE7CA6849687B
:10169000206800F07FFD40212068F4E722680146C1
:1016A0001046F0E770472DE9F04104460068C6682F
:1016B00005694FF00007A90713D5B10711D5F91E29
:1016C000016101202077206880698007204602D0D0
:1016D000FFF7E8FF04E000F0A5F8204600F037F936
:1016E0002777680716D5700714D521686FF00400B6
:1016F0000861022020772068806910F4407F20462E
:1017000002D0FFF7CFFF04E000F08CF8204600F095
:101710001EF92777280715D5300713D521686FF0F4
:1017200008000861042020772068C06980072046EF
:1017300002D0FFF7B7FF04E000F074F8204600F095
:1017400006F92777E80616D5F00614D521686FF05C
:1017500010000861082020772068C06910F4407FDD
:10176000204602D0FFF79EFF04E000F05BF8204621
:1017700000F0EDF82777E80708D0F00706D02168D9
:101780006FF001000861204600F0E2F8280608D555
:10179000300606D521686FF0800008612046FFF70B
:1017A00035FE680608D5700606D521686FF0400042
:1017B0000861204600F0CDF8A8060AD5B00608D585
:1017C00021686FF0200008612046BDE8F041FFF776
:1017D0001EBEBDE8F081000000B585B0002100917B
:1017E00001910291039100680B49884212D10B4884
:1017F000816941F0040181618069694600F004005B
:1018000004904FF40060009002200190039004487F
:10181000FFF710F905B000BD002C01400010024098
:1018200000080140704770B5044690F83C0000265F
:101830000D4601280FD0012084F83C006AB1042A2B
:101840001DD0082A2FD00C2A3FD00126002084F872
:101850003C00304670BD022070BD206800F0D8FB0F
:101860002068816941F0080181612068816921F067
:1018700004018161206881692A69114311E02068AF
:1018800000F0F6FB2068816941F400618161206805
:10189000816921F480618161206881692A6941EA56
:1018A00002218161D2E7206800F018FC2068C1693C
:1018B00041F00801C1612068C16921F00401C161E2
:1018C0002068C1692A69114311E0206800F03AFCE0
:1018D0002068C16941F40061C1612068C16921F4D7
:1018E0008061C1612068C1692A6941EA0221C16140
:1018F000ACE710B5040003D094F83D0010B107E048
:10190000012010BD002084F83C00204600F01EF8A5
:10191000022084F83D00211D206800F019FB012001
:1019200084F8460084F83E0084F83F0084F84000C4
:1019300084F8410084F8420084F8430084F84400AD
:1019400084F8450084F83D00002010BD70477047C2
:101950007047704770477047F8B5016804460868DB
:10196000CA684B6910F00F0F4FF0000559D003F013
:10197000010602F49077374365D0C10705D0D10541
:1019800003D5616C41F001016164410705D5D907B8
:1019900003D0616C41F002016164810705D5D9076C
:1019A00003D0616C41F004016164010707D502F0C6
:1019B0002001314303D0616C41F008016164616C26
:1019C00000293AD0800604D5900602D5204600F0C2
:1019D00033FC20684069616CC0F38010090700D4B3
:1019E00060B3204600F001FC20684069400621D524
:1019F0002068143050E8001F21F0400140E8001238
:101A0000002AF5D1E06BA8B16D494163E06BFEF7A8
:101A100079FF002811D0E06B416B01B0BDE8F040C8
:101A2000084783060FD593060DD52046BDE8F8403C
:101A300000F002BC2046FFF78EFFF8BD2046FFF7FE
:101A40008AFF6564F8BD266B2023012E7CD1C60673
:101A50007AD5D60678D508684868009048694FF06E
:101A60000206400640D5E16B086840680004000C9F
:101A7000E8D0A28D8242E5D9E085886920282DD062
:101A800020680C3050E8001F21F4807140E80012FB
:101A9000002AF5D12068143050E8001F21F0010120
:101AA00040E80012002AF5D12068143050E8001FE9
:101AB00021F0400140E80012002AF5D184F84230BC
:101AC000256320680C3050E8001F21F0100140E829
:101AD0000012002AF5D1E06BFEF7F0FE6663A08DE0
:101AE000E18D401A81B22AE0A08DE18D401A81B2C9
:101AF000E08D0028A6D00029A4D022680C3252E83C
:101B0000000F20F4907042E80007002FF5D1206804
:101B1000143050E8002F22F0010240E80027002F87
:101B2000F5D184F84230256320680C3050E8002F4E
:101B300022F0100240E80023002BF5D16663204616
:101B4000FFF708FFF8BDFFE705062BD5150629D5D9
:101B500094F841002128F5D1A068B0F5805F01D14B
:101B60002069B0B1206A411C216221680078486078
:101B7000E08C401E0004000CE084E3D12068C168C2
:101B800021F08001C1602068C16841F04001C1605E
:101B9000D8E7206A0088C0F308004860206A801CEB
:101BA0002062E5E74006CDD55006CBD5CA68204671
:101BB00022F04002CA6084F8413000F076F8C1E7B4
:101BC000DB21000870B5040004D094F84100002522
:101BD00010B106E0012070BD84F84050204600F0AE
:101BE00023F8242084F841002068C16821F40051C2
:101BF000C160204600F082FB2068016921F4904119
:101C000001612068416921F02A0141612068C168B1
:101C100041F40051C1606564202084F8410084F8DB
:101C200042006563002070BD30B585B0002400948B
:101C30000194029403940068184988422CD11848F2
:101C4000816941F480418161816901F4804104919D
:101C5000816941F0040181618069124D00F0040046
:101C600004904FF400700090022001900320039034
:101C700069462846FEF7DEFE2815CDE900046946D0
:101C800028460294FEF7D6FE00220A212520FFF7FF
:101C900039F82520FFF728F805B030BD003801409D
:101CA000001002400008014070477047FEE7000046
:101CB0003EB50021144800910191124A0291026040
:101CC00001248160047301754FF460220461C261D4
:101CD0004160FEF7CDFC08B172B6FEE70620CDE903
:101CE00000040720029069460748FEF7D3FB08B1BD
:101CF00072B6FEE70448FEF75FFB0348FEF77EFD81
:101D00003EBD0000002401401000002010B596B038
:101D100000240F9410941194129413941C2108A879
:101D20001494FEF773FA20216846FEF76FFA2848EC
:101D3000264901600521C0E901144FF6FF71C0E991
:101D400003148021C0E90541FFF7CAFB08B172B650
:101D5000FEE74FF480500F900FA91D48FFF734FCA9
:101D600008B172B6FEE71A48FFF7C3FD08B172B6B4
:101D7000FEE7139413A916481494FFF773FB08B1F8
:101D800072B6FEE76020CDE908040A940C940D9425
:101D90000C2208A90E480E94FFF745FD08B172B653
:101DA000FEE700944FF40050CDE904400294019402
:101DB0000394694606480794FFF72AFB08B172B6F8
:101DC000FEE70348FFF708FD16B010BD002C0140E8
:101DD0004000002010B586B00024174800940194FC
:101DE00002940394049413490594016041F61F4141
:101DF000C0E901146321C0E903148461FFF770FB9B
:101E000008B172B6FEE74FF48050009069460A4868
:101E1000FFF7DAFB08B172B6FEE7049404A906489E
:101E20000594FFF71FFB002801D072B6FEE706B04D
:101E300010BD0000000400408800002010B586B0EE
:101E400000241748009401940294039404941349C5
:101E50000594016041F61F41C0E901144FF6FF717E
:101E6000C0E903148461FFF73BFB08B172B6FEE7DB
:101E70004FF48050009069460948FFF7A5FB08B170
:101E800072B6FEE7049404A905480594FFF7EAFA40
:101E9000002801D072B6FEE706B010BD0008004071
:101EA000D0000020FEE7FEE770477047FEF7C4BE93
:101EB00030B595B028216846FEF7A8F914210AA884
:101EC000FEF7A4F918210FA8FEF7A0F901210804D4
:101ED000CDE900100025029502240491CDE90740C8
:101EE0004FF4E01009906846FFF7ECF808B172B6BD
:101EF000FEE70AA90F2081E831004FF48060CDE9A8
:101F00000D0502210AA8FFF701F808B172B6FEE735
:101F10004FF4004011900F940FA8FEF781FF0028A6
:101F200001D072B6FEE715B030BD70470148FFF72B
:101F3000BABB0000400000200148FFF7B4BB00001E
:101F4000880000200148FFF7AEBB0000D000002051
:101F5000F0B50268204C214D214E224F224B4FF00C
:101F6000804CA04209D0984207D0604505D0A842D5
:101F700003D0B04201D0B84204D122F0700E4A68BA
:101F800042EA0E02A04209D0984207D0604505D02F
:101F9000A84203D0B04201D0B84203D122F4407528
:101FA000CA682A434D6922F080022A4302608A6887
:101FB000C2620A688262A04201D0984201D10969D6
:101FC0000163012141610169C90703D0016921F061
:101FD00001010161F0BD0000002C0140000400403F
:101FE00000080040000C00400034014010B5846837
:101FF00042EA032224F47F440A432243826010BD54
:10200000826822F070020A4342F007018160704743
:10201000F0B5036A026A22F0010202624268846932
:10202000124E24F073050C682C4323F002058B68D4
:102030002B430D4DA84201D0B04205D123F0080733
:10204000CB683B4323F00403A84201D0B04205D142
:102050004D6922F4407215438A692A4342608461C3
:10206000496841630362F0BD002C01400034014027
:10207000F0B5026A036A23F01003036243688469BF
:102080000D6824F4E64444EA05248D6822F0200219
:1020900042EA05120F4D104EA84201D0B04206D1BF
:1020A000CF6822F0800242EA071222F04002A842E2
:1020B00001D0B04207D14D6923F4406343EA850360
:1020C0008D6943EA850343608461496881630262E4
:1020D000F0BD0000002C014000340140F0B5026A60
:1020E000036A23F4807303624368C46922F40072B4
:1020F00024F073050C68124E2C438D6842EA0522C9
:102100000E4DA84201D0B04206D1CF6822F4006241
:1021100042EA072222F48062A84201D0B04207D1ED
:102120004D6923F4405343EA05138D6943EA0513CF
:102130004360C4614968C1630262F0BD002C014084
:102140000034014030B5046A026A22F4805202620F
:102150004268C3690D6823F4E64343EA05238D68AA
:1021600024F4005444EA0534084DA84202D0084D36
:10217000A84204D14D6922F4804242EA85124260AD
:10218000C36149680164046230BD0000002C014055
:102190000034014010B5036A046A24F001040462AB
:1021A000846924F0F00444EA021423F00A020A438A
:1021B0008461026210BD10B5036A046A24F0100441
:1021C0000462846923F0A00324F4704444EA0232D8
:1021D00043EA01118261016210BD10B5406A00211D
:1021E000C185C184FFF7B7FB10BD01680C3151E810
:1021F000002F22F4907241E80023002BF5D10168F2
:10220000143151E8002F22F0010241E80023002B95
:10221000F5D1016B012909D101680C3151E8002F7A
:1022200022F0100241E80023002BF5D1202180F894
:10223000421000210163704708B590F8421022292E
:1022400001D0022008BD82684FF480539A4201D128
:10225000016921B1816A9A421BD04AB10AE0026841
:10226000816A5268C2F308020A80816A891C08E008
:10227000026972B10268526802F07F020A70816AD4
:10228000491C8162C18D491E0904090CC18503D016
:102290001BE002685268F1E70168CA6822F0200278
:1022A000CA600168CA6822F48072CA6001684A691B
:1022B00022F001024A61202180F84210002141638E
:1022C000026B012A03D0FFF7EFFC002008BD016379
:1022D00001680C3151E8002F22F0100241E8002380
:1022E000002BF5D101680A68D20602D50A68496850
:1022F0000091818DFFF72EFBE7E7000070B50446E3
:1023000000680169E26821F44051114301612169CB
:10231000A0680843616908432168CA6841F20C63F8
:102320009A430243CA6020684169A26921F440715E
:10233000114341611E492068884202D1FEF78CFE9C
:1023400001E0FEF779FE00EBC00101EB00126068CE
:1023500064218000B2FBF0F3B3FBF1F36FF01806D9
:102360007343B2FBF0F5B2FBF0F605EB83053223C5
:1023700003EB0515B5FBF1F5B6FBF1F605F0F0053D
:1023800005EB0615B2FBF0F6B2FBF0F0B0FBF1F096
:102390006FF01802504306EB800003EB0010B0FB17
:1023A000F1F0216800F00F002844886070BD000043
:1023B000003801400148FFF7CFBA000018010020A3
:1023C000FEE70907090E002804DB00F1E02080F891
:1023D0000014704700F00F0000F1E02080F8141D99
:1023E0007047000086B0FEF72FFCFFF761FD002468
:1023F0001A4801940394816941F010018161816957
:1024000001F010010491816941F00401816180694A
:10241000694600F004000490012000900220029020
:102420000F48FEF707FBFFF771FCFFF7D3FCFFF740
:1024300005FDFFF73DFC0C480A4901604FF4E1310E
:10244000C0E901140C21C460C0E904418461C46185
:10245000FFF7B8FB08B172B6FEE7FEE700100240D6
:102460000008014000380140180100200102020369
:102470000405060708090A0B0C0D0E0F10100102C7
:1024800002030405060708090A0B0C0D0E0F1010B5
:102490000000000000000000010203040607080914
:1024A0000000000001020304C8240008000000200E
:1024B000100000006C010008D82400081000002063
:1024C000B0070000880100080100000010000000B3
:0824D0000000000000127A0078
:0400000508000131BD
:00000001FF
