:020000040800F2
:100000003013002045010008EF290008CF26000822
:10001000ED290008A5070008B12F00080000000026
:10002000000000000000000000000000F3290008AC
:10003000DF07000800000000F1290008F52900088A
:100040005F0100085F0100085F0100085F01000810
:100050005F0100085F0100085F0100085F01000800
:100060005F0100085F0100085F010008A9070008A0
:100070005F0100085F0100085F0100085F010008E0
:100080005F0100085F010008550600085F010008D5
:100090005F0100085F0100085F0100085F010008C0
:1000A0005F010008752A00085F0100085F01000871
:1000B0005F010008812A00088D2A00085F010008FE
:1000C0005F0100085F0100085F0100085F01000890
:1000D0005F010008A52F00085F0100085F0100080C
:1000E0005F0100085F0100085F0100085F01000870
:1000F0005F0100085F0100085F0100085F01000860
:100100005F0100085F0100085F0100085F0100084F
:100110005F0100085F0100085F0100085F0100083F
:100120005F0100085F0100085F0100085F0100082F
:10013000DFF80CD000F07CFA00480047813100085D
:10014000301300200648804706480047FEE7FEE7D8
:10015000FEE7FEE7FEE7FEE7FEE7FEE7FEE7FEE777
:10016000732A000831010008202A04DB203A21FA12
:1001700002F00021704721FA02F3D040C2F12002C0
:100180009140084319467047D2B201E000F8012BB4
:10019000491EFBD270470022F6E710B513460A4607
:1001A00004461946FFF7F0FF204610BD2DE9FE4F2B
:1001B000804681EA0300C00F0C46009021F0004108
:1001C00023F00045B8EB0200A94105D24046214684
:1001D00090461C460B46024623F00040104347D091
:1001E000270DC7F30A00C3F30A510290401A019089
:1001F00040286BDAC3F3130040F4801B009892464A
:1002000020B10023D2EB030A63EB0B0B0198594694
:10021000C0F14002504600F08DF906460D465046AA
:100220005946019A00F095F910EB0800614100244D
:1002300087EA115284EAE7731A4340D0009A62B306
:10024000019A012A4FEA075215DC001B61EB0201FB
:100250004FF0004202EA0752CDE90042001C41F58E
:10026000801132462B4600F095F903B0BDE8F08FBF
:1002700040462146F9E7001B61EB0201001C41F5F5
:10028000801300185B412018A2F5001747EB03010B
:1002900040EAD570B6196D4111E06D084FEA360697
:1002A00045EAC0754FEA0752001B61EB0201001CD2
:1002B00041F5801149084FEA30000019514132469A
:1002C0002B4603B0BDE8F04F00F055B9009801226D
:1002D00040000023D0EB020263EBE073009821465C
:1002E0004FEAE074B8EB000061EB0401E9E783F04A
:1002F00000435BE781F0004158E72DE9FE4F81EABA
:10030000030404F0004421F0004100944FF0000B7E
:1003100023F0004350EA01045ED052EA03045BD0AC
:10032000C3F30A54C1F30A552C44A4F2F3340194E4
:10033000A0FB0254C1F3130141F48011C3F3130372
:1003400043F4801301FB024400FB034E840A970A26
:1003500044EA815447EA8357A4FB076802958D0A53
:1003600005FB07854FEA932C04FB0C542705029DDF
:100370004FEA065847EA1637B5EB08056EEB070C4F
:10038000870E920E47EA811742EA8312A7FB020109
:10039000B6EB0B0164EB00042B0D43EA0C335E1843
:1003A00044EB1C50DA465146E7FB0201C5F3130447
:1003B0004FEA0B3343EA14534FEA0432019C43EAF9
:1003C0000603A4F10C040294009CCDE900B400F0F3
:1003D000E1F803B0BDE8F08F00200146F9E72DE910
:1003E000F04D81EA030404F0004B21F0004514466F
:1003F0004FF0000A23F0004150EA050220D054EAF1
:1004000001021DD0C5F30A570246C5F31303C1F319
:100410001300C1F30A5640F4801543F48013A7EB90
:100420000608101BD64608F2FD3873EB050002D310
:1004300008F1010801E092185B41B8F1000F03DAFE
:1004400000200146BDE8F08D00204FF480110646E3
:1004500084460EE0171B73EB050705D3121B63EBF5
:10046000050306434CEA010C49084FEA3000921894
:100470005B4150EA0107EDD152EA030012D082EA53
:10048000040083EA0501084305D0101BAB4106D2E6
:100490000122002306E000224FF0004302E06FF04B
:1004A000010253101AEB06004CEB085110EB0A0046
:1004B00041EB0B01BDE8F04D00F05DB80EB540F228
:1004C000334102910021CDE900110A460B4600F0AC
:1004D00061F803B000BDC1F30A5210B5C1F31301B6
:1004E00040F2FF3341F480119A4201DA002010BD3E
:1004F00040F233439A42A2F2334203DC5242FFF706
:1005000033FE10BD904010BD30B50B4601460020B3
:100510002022012409E021FA02F59D4205D303FAC5
:1005200002F5491B04FA02F52844151EA2F1010246
:10053000F1DC30BD202A04DB203A00FA02F1002071
:1005400070479140C2F1200320FA03F31943904011
:100550007047202A06DBCB17203A41FA02F043EA23
:10056000E07306E041FA02F3D040C2F1200291406C
:1005700008431946704710B5141E73F1000408DAD9
:10058000401C41F1000192185B411A4301D120F057
:10059000010010BD2DE9F04D92469B4611B1B1FA14
:1005A00081F202E0B0FA80F220329046FFF7C2FFFB
:1005B00004460F4640EA0A0041EA0B0153465A46F8
:1005C000084313D0114653EA010019D0C8F1400284
:1005D0005046FFF7C9FD05460E465046594642466D
:1005E000FFF7A8FF084305D0012004E02046394664
:1005F000BDE8F08D0020054346EAE0762C43374302
:100600000A986305E40AA0EB08000022FD0A44EA08
:1006100047540A3002D500200146E9E701051019C8
:100620006941DDE9084500196941BDE8F04DA2E7DF
:10063000064C074D06E0E06840F0010394E807002F
:1006400098471034AC42F6D3FFF776FDFC3700082C
:100650001C380008014800F00FBA000020000020FC
:1006600070B5044600688168C943C90717D181681D
:1006700021F00101816000F06DFF05460AE000BF36
:1006800000F068FF401B022804D920688068C0433E
:10069000C00706D020688068C043C007F0D00020A3
:1006A00070BDA06A40F01000A062E06A40F0010056
:1006B000E062012070BD10B50146406A826A12F006
:1006C000500F05D0006A026BBDE810400846104785
:1006D000816A41F40071816201688968C1F3424115
:1006E00007290CD1017B51B9816A21F480718162A3
:1006F000816AC90403D4816A41F00101816200F07A
:10070000A5F910BD10B5406A816A41F040018162CF
:10071000C16A41F00401C16200F0ADF910BD10B52D
:10072000406A00F0A7F910BDF8B50026044600960F
:1007300000688168C943C9072DD0816841F0010173
:100740008160164816490068B0FBF1F000E0401ED9
:1007500000900028FBD100F0FDFE054616E000BF2A
:1007600000F0F8FE401B022810D920688068C043C2
:10077000C0070BD0A06A40F01000A062E06A40F011
:100780000100E06284F824600120F8BD20688068E0
:10079000C043C007E4D10020F8BD000018000020CD
:1007A00040420F00FEE70000014800F021BC0000BD
:1007B0007001002030B590F840500124AC40C56B6A
:1007C0006C60046863604368102B036803D0996011
:1007D0000068C26030BD9A600068C16030BD70477B
:1007E00072B6FEE730B503460020084A01464FF4D2
:1007F0008C7400BF32F821509D4203D802EB810077
:10080000408830BD491CA142F4DD30BD5C33000896
:1008100070B586B018216846FFF7BDFC0020134B69
:1008200006224FF41674694690FBF2F502FB15059B
:1008300053F8206051F82550354490FBF2F602FB46
:100840001606401C41F82650A042EDDB0020084B64
:10085000642200BF51F82040B4FBF2F443F820407A
:10086000401C0628F6DB06B070BD0000B401002075
:10087000140B0020F8B500250446009590F82400DC
:1008800001280BD0012084F824002046FFF7E8FE61
:100890002046FFF749FF060002D050E00220F8BDD5
:1008A000A06A20F4885040F00200A062022000F00C
:1008B000EFFE25490968B1FBF0F0400000E0401E62
:1008C00000900028FBD12068816841F00801816018
:1008D00000F040FE074608E000F03CFEC01B0A287E
:1008E00003D920688068000715D420688068000755
:1008F000F2D42068816841F00401816000F02AFE92
:10090000074612E000F026FEC01B0A280DD9206819
:100910008068400709D5A06A20F0020040F010006E
:10092000A06284F824500120F8BD20688068400748
:10093000E8D4A06A20F0020040F00100A06284F830
:1009400024503046F8BD0000180000207047000019
:10095000F8B50024009490F824202546012A12D0EE
:10096000012280F824204A681F23072A0DD2066836
:10097000776B521E02EB820293409F430B689340B9
:100980001F43776319E00220F8BD06680D2A0AD2DA
:10099000376BD21F02EB820293409F430B68934058
:1009A0001F43376309E0F76A0D3A02EB8202934076
:1009B0009F430B6893401F43F7620A68072306684A
:1009C0000A2A0AD3F7680A3A02EB420293409F438D
:1009D0008B6893401F43F76008E0376902EB4202DF
:1009E00093409F438B6893401F4337610A68102AE6
:1009F00001D0112A20D1124B02689A4217D1936874
:100A00001B0219D4936843F400039360096810290A
:100A100012D10C490C4A0968B1FBF2F101EB8101DA
:100A2000490000E0491E00910029FBD104E0816AE1
:100A300041F020018162012480F824502046F8BD55
:100A4000002401401800002040420F00074910B563
:100A500088420AD1FFF7DCFE044800F0E3F90448BD
:100A60004168491C41600121017010BD2000002037
:100A7000000000207047704770B5044600680668A3
:100A80004568A90625D5B10723D5A16AC90603D4AF
:100A9000A16A41F40071A1628168C1F34241072952
:100AA00010D1217B71B9416821F020014160A06A19
:100AB00020F48070A062A06AC00403D4A06A40F051
:100AC0000100A0622046FFF7C1FF21686FF012000D
:100AD000086028062ED570072CD5A06AC00603D45E
:100AE000A06A40F40050A06220688168C1F302311E
:100AF000072909D04168490515D48168C1F34241ED
:100B0000072910D1217B71B9416821F08001416032
:100B1000A06A20F48050A062A06AC00503D4A06A35
:100B200040F00100A0622046FFF710FF21686FF03F
:100B30000C00086068060CD5F0070AD0A06A40F4E3
:100B40008030A062204600F095F821686FF0010027
:100B5000086070BD2DE9F04104004FF000057FD022
:100B6000A06A002628B9E66284F82460204600F0D6
:100B700083F82046FFF774FDA16AC90600D420B1AE
:100B8000A06A40F01000A0626AE0A16A21F48851D6
:100B900041F00201A162334923688B42E16904D12B
:100BA000B1F5402F01D14FF40021277B4FF4807C19
:100BB00041EA470261680A43A168614508D00129FA
:100BC00006D0002194F814E0BEF1010F02D00AE033
:100BD0006146F7E7C7B1A76A47F02007A762E76A4F
:100BE00047F00107E7625F6827F469470F435F60DA
:100BF000236899681C4F394011439960A168614589
:100C00000BD0012909D00CE0DFF860E0A7690EEBFA
:100C100047370F4347F40061E5E7218A0D05A5F545
:100C200080152168CB6A23F470032B43CB622168C3
:100C300089680F4B1940914208D1E662A16A21F000
:100C4000020141F00101A162BDE8F081A06A20F03B
:100C5000020040F01000A062E06A40F00100E06293
:100C60000120F1E7003C0140FDF7E1FF00E0FFFF5C
:100C7000FE0E1FFF7047000070B586B000250646C7
:100C8000009501950295039500681E49884236D16A
:100C90001D49886940F400708861886900F400701B
:100CA0000490886940F0040088618869694600F012
:100CB00004000490FC20009003200190134800F0F1
:100CC00043FB144C1248C4E900058020C4E90250DB
:100CD00080002061800060612020C4E90605204674
:100CE00000F0AAFA08B1FFF77BFD34620022072169
:100CF0001220666200F09AFC122000F089FC06B017
:100D000070BD0000002401400010024000080140B6
:100D100008000240700100202DE9F0478946044692
:100D20003B4900683B4F0E1D9046884201D0B842B7
:100D300007D1306810F4702F03D001252846BDE894
:100D4000F08794F8240001280CD0012084F82400B6
:100D50002046FFF7E9FC05004FF0000004D084F8BE
:100D60002400EBE70220EAE7A16A40F60162914322
:100D700041F48071A1622168B94218D1326812F43D
:100D8000702F14D0A16A41F48011A1623168490525
:100D900005D5A16A21F4005141F48051A162A16AF4
:100DA000C9040AD5E16A21F00601E16206E0A26AFF
:100DB00022F48012A2624968E9E7E06284F8240024
:100DC000216A15488862216A1448C862216A144859
:100DD000086321686FF0020008602068816841F4B0
:100DE00080718160216843464A464C31206A00F098
:100DF00061FA20688168C1F342410729816803D004
:100E000041F48011816099E741F4A001FAE7000004
:100E10000024014000280140B70600081F07000811
:100E20000507000810B5044690F82400012807D0F3
:100E3000012084F824002046FFF712FC10B113E0D3
:100E4000022010BD21688A6822F480728A60216ABB
:100E500091F82120022A07D1084600F00EF8A16A75
:100E600030B141F04001A162002184F8241010BD8E
:100E700021F4885141F00101F5E710B590F82110F7
:100E80000022022905D00421816380F8202001205E
:100E900010BD01680B6823F00E030B6001680B683E
:100EA00023F001030B6090F84030C46B012101FA7C
:100EB00003F3636080F8211080F82020104610BDF5
:100EC0002DE9F05F90F821100024022903D00421BD
:100ED0008163012485E001680A6822F00E020A603D
:100EE00001680A6822F001020A603F4E3E4FB215C7
:100EF000DFF8F4C0DFF8F090DFF8ECA0DFF8E8B03E
:100F0000DFF8E4E00168783F13011502ACF1640CEE
:100F1000A9F15009AAF13C0AABF1280BAEF1140E6D
:100F20004FF48018B14227D9B9420ED0614512D092
:100F300049451DD0514518D0594518D0714501D1AA
:100F4000424615E0294EB14201D1012210E0274E60
:100F50001436B14201D110220AE0244E2836B142A3
:100F600006D0224A3C32914201D11A4600E02A467C
:100F70001E49091F0A602BE0B94213D0614517D002
:100F8000494522D051451DD059451DD0714501D14B
:100F900042461AE0B14202D14FF0807215E0134E82
:100FA000B14201D1012210E0104E1436B14201D1FC
:100FB00010220AE00D4E2836B14206D00B4A3C32D0
:100FC000914201D11A4600E02A46074980394A6019
:100FD000012180F82110002180F82010416B01B11F
:100FE00088472046BDE8F09F800002400804024088
:100FF0002DE9F05FC16B0A6801680B68046C4FF063
:10100000040808FA04F8844D844E854FDFF814C2B2
:10101000DFF81492DFF814A2DFF814B2DFF814E25C
:1010200018EA020F65D05FEA437862D50A68920633
:1010300003D40A6822F004020A60DFF8F0814FF45A
:101040008062016808F1140813011402414524D993
:10105000A9420DD0B1420FD0B9421AD0614515D086
:10106000494515D0514501D1120312E0594501D12E
:1010700004220EE0714501D140220AE06D4D143585
:10108000A94206D06B4A2832914201D11A4600E0AB
:1010900022466749091F0A6029E0A94213D0B142DC
:1010A00015D0B94220D061451BD049451BD05145D0
:1010B00002D14FF4800217E0414502D14FF0806227
:1010C00012E0594501D104220EE0714501D14022C0
:1010D0000AE0584D1435A94206D0564A28329142AA
:1010E00001D11A4600E022464B4908394A60C16ADC
:1010F00071E04FF0020808FA04F818EA020F70D005
:101100005FEA83786DD50A68920606D40A6822F0F1
:101110000A020A60012180F82110DFF810814FF4E3
:101120000072016808F1140813011402414524D922
:10113000A9420DD0B1420FD0B9421AD0614515D0A5
:10114000494515D0514501D1120312E0594501D14D
:1011500002220EE0714501D120220AE0354D1435FE
:10116000A94206D0334A2832914201D11A4600E002
:1011700022462F49091F0A6029E0A94213D0B14233
:1011800015D0B94220D061451BD049451BD05145EF
:1011900002D14FF4001217E0414502D14FF0007226
:1011A00012E0594501D102220EE0714501D1202201
:1011B0000AE0204D1435A94206D01E4A2832914239
:1011C00001D11A4600E02246134908394A6000213D
:1011D00080F82010816A00291CD0BDE8F05F084724
:1011E000FFE70825A540154214D01A0712D50A6852
:1011F00022F00E020A6090F84020C36B012101FA30
:1012000002F25A60816380F82110002180F82010DA
:10121000016BE0E7BDE8F09F080002401C000240BF
:101220003000024044000240580002406C0002407E
:10123000080402401C04024030B560B11A4B026839
:1012400014219A4209D2194B1344B3FBF1F18900DE
:10125000016417490AE0012030BD134B5B4213447F
:10126000B3FBF1F1890001640F490839C163022120
:1012700080F82110136843F6F0718B43F0E90114F4
:101280002143D0E902452C432143046921434469A9
:1012900021438469214319431160002141630122E4
:1012A00042770177084630BD08040240F8FFFDBFD1
:1012B0000000024070B5044690F820000025012887
:1012C0000CD0012084F8200094F821600020012E29
:1012D00006D084F820000225284670BD022070BD8B
:1012E000022684F82160A0632068066826F00106C3
:1012F00006602046FFF75EFAE06A00282068016871
:1013000002D041F00E0106E021F0040101602068E6
:10131000016841F00A0101602068016841F00101A3
:101320000160D9E770B5044600F014F90546601C69
:1013300002D004480078044400F00CF9401BA0429D
:10134000FAD370BD0C0000202DE9F84FDFF8C891EA
:101350000024A9F1040B23460F2709F1040AABF17D
:10136000040ED1E00125A54006EA0502AA4276D185
:10137000DFF8A8C14E68A6EB0C0866452BD00DDC43
:10138000032E34D005DC36B3012E19D0022E2FD116
:101390001BE0112E16D0122E2AD119E0B8F5881FA5
:1013A00019D006DCB8F5803F15D0B8F5801F1FD1E5
:1013B00011E0B8F5001F0ED0B8F5041F18D10AE0EF
:1013C000CB6815E0CB681B1D12E0CB6808330FE03B
:1013D000CB680C330CE08B682BB1012B4FF008036A
:1013E00003D0456104E0042302E0056100E000232E
:1013F000FF2A01D8064601E000F104064FEA840501
:1014000001D9A5F12005D6F8008007FA05FC28EAE5
:101410000C0803FA05F548EA0508C6F800804D688F
:10142000ED0070D53E4DAE6946F00106AE61AD6986
:1014300024F0030605F0010500953A4D06EB050C76
:10144000DCF80850A607360F07FA06F825EA080563
:10145000DFF8D480404503D14FF0000825E052E08A
:10146000DFF8C880404502D14FF001081DE0DFF8E9
:10147000C080404502D14FF0020816E0DFF8B4808A
:10148000404502D14FF003080FE0DFF8AC80404543
:1014900002D14FF0040808E0DFF8A080404502D1F7
:1014A0004FF0050801E04FF0060808FA06F848EA90
:1014B0000508CCF808804D68D9F80060ED024D466B
:1014C00001D5164300E096432E604D68DAF80060BF
:1014D000AD02554601D5164300E096432E604D6897
:1014E000DBF80060AD035D4601D5164300E096438E
:1014F0002E604D68DEF80060ED03754601D5164399
:1015000000E096432E60641C0A681646E2407FF4B1
:1015100029AFBDE8F88F0000080401400000111059
:10152000001002400000014000080140000C014092
:10153000001001400014014000180140001C01404F
:101540008068084000D0012070470AB101617047EF
:101550000904FBE701488068704700000C00002088
:101560000248816802781144816070470C000020B5
:10157000074810B5016841F010010160032000F038
:1015800075F80F2000F006F800F024F8002010BDD8
:101590000020024070B50D4D04464FF47A71287852
:1015A000B1FBF0F00A490968B1FBF0F000F0AEFBC6
:1015B00048B9102C07D200222146501E00F036F800
:1015C00000206C6070BD012070BD00000C00002088
:1015D000180000200C4808B5816941F001018161C3
:1015E000816901F001010091C16941F08051C1613F
:1015F000C06900F0805000900448416821F0E0612B
:1016000041F00071416008BD00100240000001403F
:10161000002809DB00F01F020121914040098000F1
:1016200000F1E020C0F8001170470000F0B40E4B4C
:101630001B680C46C3F30223C3F10705042D00D930
:101640000425191D072901D2002300E0DB1E012615
:1016500006FA05F1491E214099409E40761E16402B
:101660003143F0BC01F0B6BC0CED00E0064900F0DF
:10167000070208684FF6FF03184040EA0220034AB9
:1016800010430860704700000CED00E00000FA0510
:1016900010B501460020284C04292FD00BDC01296D
:1016A00030D0022929D100F06BF96168C1F3813192
:1016B000491C49001FE0082920D010291DD161686C
:1016C0002268D20119D51D48C1F38342C903805C49
:1016D0000AD56168194AC1F34041921E515C184A0B
:1016E000B2FBF1F1484301E0164948436168490201
:1016F00003D440000321B0FBF1F010BDBDE8104061
:1017000000F04EB9226AC2F30121012903D19207E8
:1017100001D5C80310BD022905D1626A920702D51E
:1017200049F6404010BD0329FCD121688903F9D551
:101730004FF2244010BD000000100240D4370008D2
:1017400000127A0000093D002DE9F84305460078B3
:10175000354CC00754D0E0690026C00008D4E069C9
:1017600040F08050E061E069012600F08050009078
:101770002E480168C90512D40168804641F4807181
:101780000160FFF7E7FE074605E000BFFFF7E2FE56
:10179000C01B642823D8D8F80000C005F6D5206AFD
:1017A00010F4407021D0A98801F4407181421CD00E
:1017B000206A1F49012220F440700A6000220A605A
:1017C0002062C00711D0FFF7C5FE074641F28838F6
:1017D00008E000BFFFF7BEFEC11B414502D9032050
:1017E000BDE8F883206A8007F4D5206A696820F490
:1017F0004070084320621EB1E06920F08050E06133
:101800002878800705D56068A96820F4404008431F
:1018100060602878C00605D56068696920F480009A
:10182000084360600020DBE70010024000700040C9
:10183000400442422DE9F0470F46050061D0434E77
:10184000306800F00700B84209D2306820F0070085
:1018500038433060306800F00700B84251D1286842
:101860003B4C810712D5400703D5606840F4E06027
:1018700060602878000703D5606840F460506060BD
:101880006068A96820F0F000084360602878C0070D
:1018900028D06868012810D02168022810D0890754
:1018A00000292EDA616821F0030101436160FFF72E
:1018B00051FE804641F288390DE021688903EFE747
:1018C0008901EDE7FFF746FEA0EB0801494502D983
:1018D0000320BDE8F0876068696800F00C00B0EB99
:1018E000810FEFD1306800F00700B8420BD93068A3
:1018F00020F0070038433060306800F00700B8423D
:1019000001D00120E5E72878400705D56068E9683F
:1019100020F4E060084360602878000706D560681E
:10192000296920F4605040EAC100606000F038F896
:101930006168084AC1F30311515CC8400649086058
:1019400006480068FFF726FE0020C2E7002002409C
:1019500000100240E43700081800002010000020AA
:101960000448054900684968044AC1F30221515CF2
:10197000C84070471800002000100240F4370008EB
:101980000448054900684968044AC1F3C221515C12
:10199000C84070471800002000100240F4370008CB
:1019A0000E4A51680E4801F00C03042B11D0082B8D
:1019B0000FD10C48C1F38343C903C05C0AD55168F9
:1019C000084AC1F34041921E515C054A5043B0FBA6
:1019D000F1F070470449484370470000001002408E
:1019E00000127A00C237000800093D002DE9F84FC7
:1019F000040070D02078C04DC00749D06868C0F39B
:101A00008100012807D06868C0F38100022809D14D
:101A10006868C00306D52868800339D56068002847
:101A2000E7D035E06068B0F5803F0BD010B1B0F57D
:101A3000A02F11D0286820F480302860286820F476
:101A4000802002E0286840F480302860606890B10F
:101A5000FFF780FD06460AE0286840F480202860F1
:101A6000F0E700BFFFF776FD801B642873D8286875
:101A70008003F7D50CE0FFF76DFD064605E000BFDB
:101A8000FFF768FD801B6428F0D828688003F7D42E
:101A900020789A4E80074FF001094FF0000839D5A1
:101AA000686810F00C0F07D06868C0F38100022846
:101AB00009D16868C00306D42868800714D5206956
:101AC000012808D110E02069B0B1C6F80090FFF7F6
:101AD00041FD074605E00AE1FFF73CFDC01B022877
:101AE000C4D828688007F7D52868616920F0F80015
:101AF00040EAC10028600DE0C6F80080FFF72AFD2B
:101B0000074604E0FFF726FDC01B022823D82868FB
:101B10008007F7D4207800072CD57948A169D9B17E
:101B2000C0F80090FFF716FD074604E0FFF712FD2E
:101B3000C01B02280FD8686A8007F7D571484FF498
:101B4000FA510068B0FBF1F0009000BF0098411E10
:101B50000091FAD20EE080E0C0F80080FFF7FAFCB6
:101B6000074604E0FFF7F6FCC01B022875D8686A38
:101B70008007F7D42078400760D5E8690027C000C7
:101B800008D4E86940F08050E861E869012700F076
:101B9000805000905C480168C90513D401688346F1
:101BA00041F480710160FFF7D5FC824606E000BF7A
:101BB000FFF7D0FCA0EB0A0064284ED8DBF8000049
:101BC000C005F5D5E06801280AD008B1052813D072
:101BD000286A20F001002862286A20F0040002E050
:101BE000286A40F001002862E06841F2883B98B121
:101BF000FFF7B0FC82460BE0286A40F00400286240
:101C0000EEE700BFFFF7A6FCA0EB0A0159455AD842
:101C1000286A8007F6D50CE0FFF79CFC824605E0B9
:101C2000FFF798FCA0EB0A0159454CD8286A8007B9
:101C3000F6D41FB1E86920F08050E861E06988B30C
:101C40006968C1F38101022944D00228C6F8608086
:101C500004D0FFF77FFC044638E034E0FFF77AFC5D
:101C6000074604E0FFF776FCC01B02282BD8286843
:101C70008001F7D4206AB0F5803F05D16868A1687B
:101C800020F4003008436860D4E90801084369681B
:101C900021F4741108436860C6F86090FFF75AFC9D
:101CA000044606E025E000BFFFF754FC001B0228B5
:101CB00009D828688001F7D51BE000BFFFF74AFC70
:101CC000001B022802D90320BDE8F88F2868800194
:101CD000F4D40EE00128F7D06868226A00F480315D
:101CE000914204D1616A00F47010884201D0012051
:101CF000EAE70020E8E7000000100240000042424E
:101D000080044242180000200070004010B5401EC0
:101D1000B0F1807F01D3012010BD4FF0E02460615D
:101D20000F21601701F056F90020A0610720206103
:101D3000002010BD7047704710B590F83C20012A74
:101D400022D0012280F83C20CA688C6822F44072BC
:101D500022434C6822F4806222430C6822F4006221
:101D600022430C6922F4805222434C6922F400522F
:101D70002243C969002322F480420A4301684A646D
:101D800080F83C30002010BD022010BD70B590F8E6
:101D90003C20012A2CD0012480F83C40022280F80B
:101DA0003D2003685A689D6822F070060A68324335
:101DB0005A60104B02689A420ED00F4B9A420BD0D9
:101DC000B2F1804F08D00D4B9A4205D00C4B9A428D
:101DD00002D00C4B9A4204D1496825F08003194384
:101DE000916080F83D40002180F83C10084670BDAD
:101DF000022070BD002C014000340140000400406E
:101E000000080040000C004010B5040003D094F816
:101E10003D0010B107E0012010BD002084F83C0017
:101E2000204600F01FF8022084F83D00211D2068A4
:101E300000F032FE012084F8460084F83E0084F869
:101E40003F0084F8400084F8410084F8420084F8A0
:101E5000430084F8440084F8450084F83D000020E5
:101E600010BD000008B51E4A01681E4891420ED1FF
:101E7000816941F4006181618069002200F40060A1
:101E8000009008211920FFF7D1FB192022E0164A03
:101E900091420ED1C16941F00201C161C0690022C5
:101EA00000F00200009009211D20FFF7BFFB1D205C
:101EB00010E00E4A914211D1C16941F00401C161A3
:101EC000C069002200F0040000900B211E20FFF7E3
:101ED000ADFB1E20BDE80840FFF79ABB08BD00001F
:101EE000002C0140001002400004004000080040A7
:101EF00070B5044690F83C000025012817D0012653
:101F000084F83C60022084F83D002068826822F05A
:101F1000770222F47F4282600868502838D00DDCB6
:101F200020284FD005DC90B3102811D14AE00220C0
:101F300070BD302846D040280AD13BE060282FD021
:101F400070280DD0B0F5805F03D0B0F5005F12D0DF
:101F5000012584F83D60002084F83C00284670BDCF
:101F6000CB68D1E90121206800F0E4FD2068816898
:101F700041F0770109E0CB68D1E90121206800F048
:101F8000D9FD2068816841F480418160E1E719E072
:101F9000CA684968206800F0A1FE5021206806E068
:101FA000CA684968206800F0AAFE6021206800F035
:101FB000CBFDCEE7CA684968206800F08FFE40215B
:101FC0002068F4E7226801461046F0E770472DE9E3
:101FD000F04104460068C66805694FF00007A9078C
:101FE00013D5B10711D5F91E0161012020772068B2
:101FF00080698007204602D0FFF7E8FF04E000F088
:10200000A5F8204600F037F92777680716D570073E
:1020100014D521686FF00400086102202077206841
:10202000806910F4407F204602D0FFF7CFFF04E024
:1020300000F08CF8204600F01EF92777280715D508
:10204000300713D521686FF008000861042020775D
:102050002068C0698007204602D0FFF7B7FF04E080
:1020600000F074F8204600F006F92777E80616D548
:10207000F00614D521686FF0100008610820207761
:102080002068C06910F4407F204602D0FFF79EFF11
:1020900004E000F05BF8204600F0EDF82777E80751
:1020A00008D0F00706D021686FF0010008612046D3
:1020B00000F0E2F8280608D5300606D521686FF052
:1020C000800008612046FFF735FE680608D57006D7
:1020D00006D521686FF040000861204600F0CDF879
:1020E000A8060AD5B00608D521686FF0200008615F
:1020F0002046BDE8F041FFF71EBEBDE8F0810000BC
:1021000000B585B000210091019102910391006812
:102110000B49884212D10B48816941F00401816169
:102120008069694600F0040004904FF4006000905C
:102130000220019003900448FFF706F905B000BDA6
:10214000002C01400010024000080140704770B5AB
:10215000044690F83C0000260D4601280FD00120CF
:1021600084F83C006AB1042A1DD0082A2FD00C2A1A
:102170003FD00126002084F83C00304670BD02208C
:1021800070BD206800F0E8FC2068816941F008011A
:1021900081612068816921F0040181612068816981
:1021A0002A69114311E0206800F006FD206881696A
:1021B00041F4006181612068816921F4806181615D
:1021C000206881692A6941EA02218161D2E7206899
:1021D00000F028FD2068C16941F00801C161206854
:1021E000C16921F00401C1612068C1692A691143F4
:1021F00011E0206800F04AFD2068C16941F40061E7
:10220000C1612068C16921F48061C1612068C16930
:102210002A6941EA0221C161ACE710B5040003D08C
:1022200094F83D0010B107E0012010BD002084F8B3
:102230003C00204600F01EF8022084F83D00211DDD
:10224000206800F029FC012084F8460084F83E0054
:1022500084F83F0084F8400084F8410084F842008C
:1022600084F8430084F8440084F8450084F83D0075
:10227000002010BD70477047704770477047704727
:10228000F8B5016804460868CA684B6910F00F0F7A
:102290004FF0000559D003F0010602F49077374360
:1022A00065D0C10705D0D10503D5616C41F00101AE
:1022B0006164410705D5D90703D0616C41F0020183
:1022C0006164810705D5D90703D0616C41F0040131
:1022D0006164010707D502F02001314303D0616C2E
:1022E00041F008016164616C00293AD0800604D590
:1022F000900602D5204600F043FD20684069616CDD
:10230000C0F38010090700D460B3204600F011FD2F
:1023100020684069400621D52068143050E8001F2D
:1023200021F0400140E80012002AF5D1E06BA8B18D
:102330006D494163E06BFEF7C3FD002811D0E06BEF
:10234000416B01B0BDE8F040084783060FD5930606
:102350000DD52046BDE8F84000F012BD2046FFF73D
:102360008EFFF8BD2046FFF78AFF6564F8BD266B37
:102370002023012E7CD1C6067AD5D60678D50868EA
:102380004868009048694FF00206400640D5E16B6E
:10239000086840680004000CE8D0A28D8242E5D9AC
:1023A000E085886920282DD020680C3050E8001F77
:1023B00021F4807140E80012002AF5D12068143021
:1023C00050E8001F21F0010140E80012002AF5D179
:1023D0002068143050E8001F21F0400140E800124E
:1023E000002AF5D184F84230256320680C3050E88B
:1023F000001F21F0100140E80012002AF5D1E06B27
:10240000FEF73BFD6663A08DE18D401A81B22AE0A4
:10241000A08DE18D401A81B2E08D0028A6D0002960
:10242000A4D022680C3252E8000F20F4907042E8E9
:102430000007002FF5D12068143050E8002F22F05B
:10244000010240E80027002FF5D184F842302563CF
:1024500020680C3050E8002F22F0100240E80023E2
:10246000002BF5D166632046FFF708FFF8BDFFE7B4
:1024700005062BD5150629D594F841002128F5D15C
:10248000A068B0F5805F01D12069B0B1206A411C1D
:102490002162216800784860E08C401E0004000C36
:1024A000E084E3D12068C16821F08001C160206828
:1024B000C16841F04001C160D8E7206A0088C0F3DC
:1024C00008004860206A801C2062E5E74006CDD500
:1024D0005006CBD5CA68204622F04002CA6084F874
:1024E000413000F0F3F8C1E7232D000870B5040077
:1024F00004D094F84100002510B106E0012070BD21
:1025000084F84050204600F023F8242084F841004D
:102510002068C16821F40051C160204600F092FC9F
:102520002068016921F4904101612068416921F02E
:102530002A0141612068C16841F40051C1606564AD
:10254000202084F8410084F842006563002070BDBB
:1025500030B585B00024009401940294039400687F
:10256000184988422CD11848816941F48041816121
:10257000816901F480410491816941F00401816124
:102580008069124D00F0040004904FF40070009038
:10259000022001900320039069462846FEF7D4FEEE
:1025A0002815CDE90004694628460294FEF7CCFEC2
:1025B00000220A212520FFF739F82520FFF728F807
:1025C00005B030BD00380140001002400008014055
:1025D00090F84230202B01D00220704721B11AB16F
:1025E0000023036300F08ABC012070470C49884235
:1025F00014D10C480C4B0278801E41785A54491C67
:10260000417000210A2A05D00170012205490448C1
:10261000FFF7DEBF012202704170F6E7704700004D
:10262000280100200B0000202C0B00202DE9F8438E
:10263000044690F84100984616460D46202802D0E0
:102640000220BDE8F88385B17EB1002060642120BE
:1026500084F84100FEF77EFFA6848146E684A068E8
:102660002027B0F5805F02D003E00120E9E7206970
:1026700010B12E4600250EE000260CE080212046F9
:1026800000F057FCA8B9C6B116F8010B21684860E4
:10269000E08C401EE084E08C4B464FF00002CDF809
:1026A00000800028EAD14FF04001204600F041FCB4
:1026B00040B184F841700320C3E735F8020BC0F342
:1026C0000800E3E784F841700020BAE77047FEE7AE
:1026D00010B50C4C01212046FEF732FF012810D125
:1026E0001420FEF71FFE01212046FEF729FF0128D6
:1026F00007D10549087001212046FEF721FF012876
:10270000F9D010BD0008014008000020FEB50021EE
:102710002A4800910191284A029102609215826034
:1027200001240473017506254FF460220561C2611E
:102730004160FEF70FFA08B172B6FEE70226CDE956
:102740000064052469461D480294FEF701F908B1AA
:1027500072B6FEE70327CDE9007669461748FEF713
:10276000F7F808B172B6FEE7042669461348CDE9CA
:102770000067FEF7EDF808B172B6FEE7CDE9004656
:1027800069460E48FEF7E4F808B172B6FEE7CDE9F7
:10279000005469460948FEF7DBF808B172B6FEE757
:1027A0000720CDE9000569460448FEF7D1F8002866
:1027B00001D072B6FEE7FEBD0024014020000020DB
:1027C000F0B585B000241F4800940194029403944E
:1027D000816941F010018161816901F0100104916A
:1027E000816941F004018161816901F00401049172
:1027F000816941F0080181618069134F00F0080090
:102800000490002223213846FEF79FFE781402250B
:102810008DE8310069460D48FEF796FD01260096C9
:1028200069460B48CDE90145FEF78EFD2320CDE931
:10283000000669463846CDE90245FEF785FD05B03C
:10284000F0BD000000100240000C014000100140EB
:102850000008014010B596B000240F941094119414
:10286000129413941C2108A81494FDF794FC2021C1
:102870006846FDF790FC2848264901600521C0E91B
:1028800001144FF6FF71C0E903148021C0E905412E
:10289000FFF7BAFA08B172B6FEE74FF480500F9016
:1028A0000FA91D48FFF724FB08B172B6FEE71A48CE
:1028B000FFF7B3FC08B172B6FEE7139413A91648EC
:1028C0001494FFF763FA08B172B6FEE76020CDE911
:1028D00008040A940C940D940C2208A90E480E9436
:1028E000FFF735FC08B172B6FEE700944FF40050D4
:1028F000CDE9044002940194039469460648079484
:10290000FFF71AFA08B172B6FEE70348FFF7F8FBC3
:1029100016B010BD002C01405000002010B586B04C
:1029200000241748009401940294039404941349DA
:102930000594016041F61F41C0E901146321C0E91B
:1029400003148461FFF760FA08B172B6FEE74FF432
:102950008050009069460A48FFF7CAFA08B172B67B
:10296000FEE7049404A906480594FFF70FFA00282F
:1029700001D072B6FEE706B010BD000000040040B2
:102980009800002010B586B00024174800940194E8
:1029900002940394049413490594016041F61F4185
:1029A000C0E901144FF6FF71C0E903148461FFF719
:1029B0002BFA08B172B6FEE74FF4805000906946DA
:1029C0000948FFF795FA08B172B6FEE7049404A926
:1029D00005480594FFF7DAF9002801D072B6FEE742
:1029E00006B010BD00080040E0000020FEE7FEE752
:1029F00070477047FEF7B4BD30B595B028216846E2
:102A0000FDF7C9FB14210AA8FDF7C5FB18210FA883
:102A1000FDF7C1FB01210804CDE900100025029556
:102A200002240491CDE907404FF4E0100990684674
:102A3000FEF7DCFF08B172B6FEE70AA90F2081E8B5
:102A400031004FF48060CDE90D0502210AA8FEF7A0
:102A5000F1FE08B172B6FEE74FF4004011900F94FA
:102A60000FA8FEF771FE002801D072B6FEE715B080
:102A700030BD70470148FFF7AABA0000500000209F
:102A80000148FFF7A4BA0000980000200148FFF7B2
:102A90009EBA0000E0000020F0B50268204C214DF5
:102AA000214E224F224B4FF0804CA04209D0984239
:102AB00007D0604505D0A84203D0B04201D0B8424B
:102AC00004D122F0700E4A6842EA0E02A04209D0F8
:102AD000984207D0604505D0A84203D0B04201D04B
:102AE000B84203D122F44075CA682A434D6922F0E6
:102AF00080022A4302608A68C2620A688262A04237
:102B000001D0984201D10969016301214161016944
:102B1000C90703D0016921F001010161F0BD000086
:102B2000002C01400004004000080040000C004060
:102B30000034014010B5846842EA032224F47F4443
:102B40000A432243826010BD826822F070020A4369
:102B500042F0070181607047F0B5036A026A22F013
:102B60000102026242688469124E24F073050C6807
:102B70002C4323F002058B682B430D4DA84201D056
:102B8000B04205D123F00807CB683B4323F0040390
:102B9000A84201D0B04205D14D6922F440721543DC
:102BA0008A692A4342608461496841630362F0BDD7
:102BB000002C014000340140F0B5026A036A23F0A2
:102BC00010030362436884690D6824F4E64444EA10
:102BD00005248D6822F0200242EA05120F4D104EA6
:102BE000A84201D0B04206D1CF6822F0800242EA6A
:102BF000071222F04002A84201D0B04207D14D692D
:102C000023F4406343EA85038D6943EA8503436007
:102C10008461496881630262F0BD0000002C0140BC
:102C200000340140F0B5026A036A23F48073036242
:102C30004368C46922F4007224F073050C68124ED4
:102C40002C438D6842EA05220E4DA84201D0B042C5
:102C500006D1CF6822F4006242EA072222F48062A1
:102C6000A84201D0B04207D14D6923F4405343EA52
:102C700005138D6943EA05134360C4614968C16364
:102C80000262F0BD002C01400034014030B5046AFE
:102C9000026A22F4805202624268C3690D6823F41A
:102CA000E64343EA05238D6824F4005444EA0534DE
:102CB000084DA84202D0084DA84204D14D6922F423
:102CC000804242EA85124260C3614968016404623D
:102CD00030BD0000002C01400034014010B5036AF3
:102CE000046A24F001040462846924F0F00444EAD4
:102CF000021423F00A020A438461026210BD10B577
:102D0000036A046A24F010040462846923F0A003B7
:102D100024F4704444EA023243EA01118261016200
:102D200010BD10B5406A0021C185C184FFF7A7FA24
:102D300010BD01680C3151E8002F22F4907241E877
:102D40000023002BF5D10168143151E8002F22F047
:102D5000010241E80023002BF5D1016B012909D1C3
:102D600001680C3151E8002F22F0100241E80023E5
:102D7000002BF5D1202180F842100021016370471B
:102D800008B590F84210222901D0022008BD8268BF
:102D90004FF480539A4201D1016921B1816A9A426C
:102DA0001BD04AB10AE00268816A5268C2F3080285
:102DB0000A80816A891C08E0026972B1026852685F
:102DC00002F07F020A70816A491C8162C18D491E2E
:102DD0000904090CC18503D01BE002685268F1E7C1
:102DE0000168CA6822F02002CA600168CA6822F439
:102DF0008072CA6001684A6922F001024A6120219A
:102E000080F8421000214163026B012A03D0FFF7D2
:102E1000EDFB002008BD016301680C3151E8002F73
:102E200022F0100241E80023002BF5D101680A6866
:102E3000D20602D50A6849680091818DFFF71EFA13
:102E4000E7E7000070B5044600680169E26821F414
:102E50004051114301612169A06808436169084339
:102E60002168CA6841F20C639A430243CA60206831
:102E70004169A26921F44071114341611E492068F2
:102E8000884202D1FEF77CFD01E0FEF769FD00EB10
:102E9000C00101EB0012606864218000B2FBF0F316
:102EA000B3FBF1F36FF018067343B2FBF0F5B2FB1E
:102EB000F0F605EB8305322303EB0515B5FBF1F5C1
:102EC000B6FBF1F605F0F00505EB0615B2FBF0F6E2
:102ED000B2FBF0F0B0FBF1F06FF01802504306EBDC
:102EE000800003EB0010B0FBF1F0216800F00F0050
:102EF0002844886070BD00000038014081628285EE
:102F0000C28500214164222180F84210016921B16B
:102F10000168CA6842F48072CA6001684A6942F076
:102F200001024A610068C16841F02001C1600020CF
:102F300070472DE9F843984617460D460446089E0B
:102F400024E0701C22D0FEF705FBA0EB0800B04285
:102F50001AD8CEB12068C168490717D5802D15D081
:102F6000402D13D00168C94309070FD4016800251B
:102F7000406800902046FFF7DCFE0820606484F87B
:102F800040500120BDE8F8830320FBE7206800687B
:102F900035EA000004D00020B842D2D00020F1E78A
:102FA0000120F9E70148FFF76BB900002801002074
:102FB000FEE700000FB4054B10B503A9044A0298C0
:102FC00000F028F810BC5DF814FB0000693100081F
:102FD0001C0000200907090E002804DB00F1E02096
:102FE00080F80014704700F00F0000F1E02080F836
:102FF000141D704702E008C8121F08C1002AFAD148
:1030000070477047002001E001C1121F002AFBD168
:10301000704700002DE9FF4F89B09B46044600250C
:1030200006E025280BD05A460B999047641C6D1C6E
:1030300020780028F5D10DB02846BDE8F08F002794
:10304000B8460122474900E0074314F8013F203BFE
:1030500002FA03F00842F7D120782E2819D114F88B
:10306000010F47F004072A280ED06FF02F022078B6
:10307000A0F1300109290CD808EB880102EB4101CD
:1030800000EB0108641CF2E70A98641C50F8048BFA
:103090000A9020780028CED0642808D0692806D06D
:1030A00075281ED05A460B9990476D1C58E00A9916
:1030B0004FF00A0901C90A91002802DA40422D2185
:1030C00002E0390504D52B218DF82010012103E001
:1030D000F90704D02021F7E78A4608AE0DE0002169
:1030E000FAE70A994FF00A0901C90A91F7E7494638
:1030F000FDF70AFA303106F8011D0028F7D1ADEBD3
:10310000060000F12009780701D44FF00108C845F6
:1031100002DDA8EB090000E000208046002706E061
:1031200008A85A46C05D0B9990476D1C7F1C5745F7
:10313000F6DB04E030205A460B9990476D1CB8F13D
:103140000001A8F10108F5DC05E016F8010B5A466C
:103150000B9990476D1CB9F10001A9F10109F4DC4C
:10316000641C65E70928010013B54FF0FF33012205
:1031700069460248FFF75AFA00981CBD2801002052
:1031800008B5FEF7F5F9FFF737FCFFF719FB3F48E5
:10319000416941F0010141614069002200F00100F4
:1031A000009011460B20FEF741FA0B20FEF730FA93
:1031B000FFF750FBFFF7B2FBFFF7E4FBFFF7A6FAC0
:1031C00034483349002501604FF4E131C0E901156D
:1031D0000C21C560C0E904518561C561FFF786F91E
:1031E00008B172B6FEE72C48FDF744FBDFF8AC806F
:1031F000DFF8AC902B4E00BFFFF76AFA98F800108A
:10320000012907D188F800504FF416722649224848
:10321000FDF782FD99F800100129EDD189F80050E1
:103220005FF00004A11C56F8242020A0FFF7C2FE86
:10323000641C062CF6DB34692046FDF73FF9224A70
:10324000224BFDF75AF802460B4600202049FDF7B5
:10325000C6F800221F4BFDF74AF8FDF73CF9074678
:1032600021461DA0FFF7A6FE394623A0FFF7A2FEC8
:103270003846FDF7B7FA014628A0FFF79BFE304815
:10328000016830A0FFF796FEB6E70000001002408C
:103290000038014028010020200000200800002004
:1032A00000000020140B0020B401002041444331F1
:1032B000204368616E6E656C2025642056616C75D4
:1032C000653A2025640D0A009A9999999999F13FD8
:1032D000008863410088A34050686F746F72657303
:1032E0006973746F72204144432056616C75653A6E
:1032F0002025640D0A00000050686F746F726573BA
:103300006973746F7220526573697374616E63655B
:103310003A202564204F686D730D0A0054686520BB
:103320006C6967687420696E74656E73697479205E
:1033300069733A202564204C75780D0A000000005E
:103340000400002054686520444D4120636F756E71
:10335000742069733A2025640D0A0000409C010026
:10336000EE660200A0500300D0430400423B05007B
:103370001635060066300700A62C08009A290900B9
:1033800006270A00E0240B00F6220C0052210D0053
:10339000E01F0E00961E0F006A1D10005C1C11003D
:1033A000621B1200861A1300B4191400F6181500D7
:1033B00042181600A21717000C17180076161900ED
:1033C000F4151A0072151B00FA141C008C141D0051
:1033D00028141E00BA131F006013200006132100DA
:1033E000AC1222005C1223000C122400BC11250038
:1033F0007611260030112700EA102800AE102900AF
:1034000072102A0036102B00FA0F2C00C80F2D0066
:103410008C0F2E005A0F2F00280F3000000F3100A4
:10342000CE0E32009C0E3300740E34004C0E35006C
:10343000240E3600FC0D3700D40D3800AC0D3900D9
:10344000840D3A00660D3B003E0D3C00200D3D0012
:10345000020D3E00E40C3F00C60C40009E0C4100F3
:103460008A0C42006C0C43004E0C4400300C4500AA
:10347000120C4600FE0B4700E00B4800CC0B490045
:10348000AE0B4A009A0B4B007C0B4C00680B4D00B6
:10349000540B4E00400B4F00220B50000E0B5100FE
:1034A000FA0A5200E60A5300D20A5400BE0A550036
:1034B000AA0A5600960A5700820A5800780A59004C
:1034C000640A5A00500A5B003C0A5C00320A5D0044
:1034D0001E0A5E000A0A5F00000A6000EC09610033
:1034E000E2096200CE096300BA096400B009650010
:1034F0009C096600920967008809680074096900E0
:103500006A096A0056096B004C096C0042096D009B
:1035100038096E0024096F001A0970001009710043
:10352000FC087200F2087300E8087400DE087500F9
:10353000D4087600CA087700B6087800AC0879008D
:10354000A2087A0098087B008E087C0084087D0021
:103550007A087E0070087F00660880005C088100A1
:1035600052088200480883003E0884003408850021
:103570002A08860020088700160888000C088900A1
:1035800002088A00F8078B00EE078D00E4078E0022
:10359000DA078F00D0079000C6079100BC079300A0
:1035A000B2079400A80795009E079600940798001C
:1035B0008A07990080079A0076079B006C079D0098
:1035C00062079E005807A0004E07A1004407A20012
:1035D0003A07A4003007A5002607A7001C07A8008B
:1035E0001207AA000807AB00FE06AD00F406AF0004
:1035F000EA06B000E006B200D606B400CC06B5007C
:10360000C206B700B806B900AE06BB00A406BC00EF
:103610009A06BE009006C0008606C2007C06C40062
:103620007206C6006806C8005E06CA005406CC00D2
:103630004A06CE004006D0003606D2002C06D40042
:103640002206D7001806D9000E06DB000406DE00AD
:10365000FA05E000F005E200E605E500DC05E7001C
:10366000D205EA00C805ED00BE05EF00B405F20082
:10367000AA05F500A005F8009605FA008C05FD00E6
:1036800082050001780503016E05060164050A0143
:103690005A050D0150051001460513013C0517019F
:1036A00032051A0128051E011E05210114052501F8
:1036B0000A05290100052C01F6043001EC0434014F
:1036C000E2043801D8043D01CE044101C40445019F
:1036D000BA044A01B0044E01A60453019C045801E7
:1036E00092045C01880461017E04660174046C012B
:1036F0006A0471016004760156047C014C04820165
:103700004204870138048D012E04930124049A0198
:103710001A04A0011004A7010604AE01FC03B401C1
:10372000F203BC01E803C301DE03CA01D403D201E2
:10373000CA03DA01C003E201B603EB01AC03F301F3
:10374000A203FC01980305028E030E0284031802F3
:103750007A03220270032C02660337025C034202E2
:1037600052034D02480358023E03640234037102BF
:103770002A037D0220038A02160398020C03A60284
:103780000203B402F802C302EE02D302E402E3022F
:10379000DA02F402D0020503C6021703BC022903B1
:1037A000B2023D03A80251039E02650394027B030B
:1037B0008A0292038002A9037602C1036C02DB0332
:1037C000010202030405060708090A0B0C0D0E0F7F
:1037D0001010010202030405060708090A0B0C0D6C
:1037E0000E0F101000000000000000000102030492
:1037F0000607080900000000010203041C38000845
:103800000000002020000000F42F00083C380008D1
:103810002000002010130000043000080000000009
:103820000000000000000000010000001000000087
:0C3830000000000000127A000000000000
:0400000508000131BD
:00000001FF
